{
  "_format": "hh-sol-artifact-1",
  "contractName": "TestToken",
  "sourceName": "src/contracts/TestToken.sol",
  "abi": [
    {
      "inputs": [
        {
          "internalType": "string",
          "name": "name",
          "type": "string"
        },
        {
          "internalType": "string",
          "name": "symbol",
          "type": "string"
        },
        {
          "internalType": "uint256",
          "name": "initialSupply",
          "type": "uint256"
        }
      ],
      "stateMutability": "nonpayable",
      "type": "constructor"
    },
    {
      "anonymous": false,
      "inputs": [
        {
          "indexed": true,
          "internalType": "address",
          "name": "owner",
          "type": "address"
        },
        {
          "indexed": true,
          "internalType": "address",
          "name": "spender",
          "type": "address"
        },
        {
          "indexed": false,
          "internalType": "uint256",
          "name": "value",
          "type": "uint256"
        }
      ],
      "name": "Approval",
      "type": "event"
    },
    {
      "anonymous": false,
      "inputs": [
        {
          "indexed": true,
          "internalType": "address",
          "name": "user",
          "type": "address"
        },
        {
          "indexed": false,
          "internalType": "uint256",
          "name": "amount",
          "type": "uint256"
        }
      ],
      "name": "FaucetUsed",
      "type": "event"
    },
    {
      "anonymous": false,
      "inputs": [
        {
          "indexed": true,
          "internalType": "address",
          "name": "previousOwner",
          "type": "address"
        },
        {
          "indexed": true,
          "internalType": "address",
          "name": "newOwner",
          "type": "address"
        }
      ],
      "name": "OwnershipTransferred",
      "type": "event"
    },
    {
      "anonymous": false,
      "inputs": [
        {
          "indexed": true,
          "internalType": "address",
          "name": "from",
          "type": "address"
        },
        {
          "indexed": true,
          "internalType": "address",
          "name": "to",
          "type": "address"
        },
        {
          "indexed": false,
          "internalType": "uint256",
          "name": "value",
          "type": "uint256"
        }
      ],
      "name": "Transfer",
      "type": "event"
    },
    {
      "inputs": [],
      "name": "FAUCET_AMOUNT",
      "outputs": [
        {
          "internalType": "uint256",
          "name": "",
          "type": "uint256"
        }
      ],
      "stateMutability": "view",
      "type": "function"
    },
    {
      "inputs": [],
      "name": "FAUCET_COOLDOWN",
      "outputs": [
        {
          "internalType": "uint256",
          "name": "",
          "type": "uint256"
        }
      ],
      "stateMutability": "view",
      "type": "function"
    },
    {
      "inputs": [
        {
          "internalType": "address",
          "name": "owner",
          "type": "address"
        },
        {
          "internalType": "address",
          "name": "spender",
          "type": "address"
        }
      ],
      "name": "allowance",
      "outputs": [
        {
          "internalType": "uint256",
          "name": "",
          "type": "uint256"
        }
      ],
      "stateMutability": "view",
      "type": "function"
    },
    {
      "inputs": [
        {
          "internalType": "address",
          "name": "spender",
          "type": "address"
        },
        {
          "internalType": "uint256",
          "name": "amount",
          "type": "uint256"
        }
      ],
      "name": "approve",
      "outputs": [
        {
          "internalType": "bool",
          "name": "",
          "type": "bool"
        }
      ],
      "stateMutability": "nonpayable",
      "type": "function"
    },
    {
      "inputs": [
        {
          "internalType": "address",
          "name": "account",
          "type": "address"
        }
      ],
      "name": "balanceOf",
      "outputs": [
        {
          "internalType": "uint256",
          "name": "",
          "type": "uint256"
        }
      ],
      "stateMutability": "view",
      "type": "function"
    },
    {
      "inputs": [
        {
          "internalType": "address",
          "name": "from",
          "type": "address"
        },
        {
          "internalType": "uint256",
          "name": "amount",
          "type": "uint256"
        }
      ],
      "name": "burn",
      "outputs": [],
      "stateMutability": "nonpayable",
      "type": "function"
    },
    {
      "inputs": [
        {
          "internalType": "address",
          "name": "user",
          "type": "address"
        }
      ],
      "name": "canUseFaucet",
      "outputs": [
        {
          "internalType": "bool",
          "name": "",
          "type": "bool"
        }
      ],
      "stateMutability": "view",
      "type": "function"
    },
    {
      "inputs": [],
      "name": "decimals",
      "outputs": [
        {
          "internalType": "uint8",
          "name": "",
          "type": "uint8"
        }
      ],
      "stateMutability": "view",
      "type": "function"
    },
    {
      "inputs": [
        {
          "internalType": "address",
          "name": "spender",
          "type": "address"
        },
        {
          "internalType": "uint256",
          "name": "subtractedValue",
          "type": "uint256"
        }
      ],
      "name": "decreaseAllowance",
      "outputs": [
        {
          "internalType": "bool",
          "name": "",
          "type": "bool"
        }
      ],
      "stateMutability": "nonpayable",
      "type": "function"
    },
    {
      "inputs": [],
      "name": "faucet",
      "outputs": [],
      "stateMutability": "nonpayable",
      "type": "function"
    },
    {
      "inputs": [
        {
          "internalType": "address",
          "name": "spender",
          "type": "address"
        },
        {
          "internalType": "uint256",
          "name": "addedValue",
          "type": "uint256"
        }
      ],
      "name": "increaseAllowance",
      "outputs": [
        {
          "internalType": "bool",
          "name": "",
          "type": "bool"
        }
      ],
      "stateMutability": "nonpayable",
      "type": "function"
    },
    {
      "inputs": [
        {
          "internalType": "address",
          "name": "",
          "type": "address"
        }
      ],
      "name": "lastFaucetTime",
      "outputs": [
        {
          "internalType": "uint256",
          "name": "",
          "type": "uint256"
        }
      ],
      "stateMutability": "view",
      "type": "function"
    },
    {
      "inputs": [
        {
          "internalType": "address",
          "name": "to",
          "type": "address"
        },
        {
          "internalType": "uint256",
          "name": "amount",
          "type": "uint256"
        }
      ],
      "name": "mint",
      "outputs": [],
      "stateMutability": "nonpayable",
      "type": "function"
    },
    {
      "inputs": [],
      "name": "name",
      "outputs": [
        {
          "internalType": "string",
          "name": "",
          "type": "string"
        }
      ],
      "stateMutability": "view",
      "type": "function"
    },
    {
      "inputs": [],
      "name": "owner",
      "outputs": [
        {
          "internalType": "address",
          "name": "",
          "type": "address"
        }
      ],
      "stateMutability": "view",
      "type": "function"
    },
    {
      "inputs": [],
      "name": "renounceOwnership",
      "outputs": [],
      "stateMutability": "nonpayable",
      "type": "function"
    },
    {
      "inputs": [],
      "name": "symbol",
      "outputs": [
        {
          "internalType": "string",
          "name": "",
          "type": "string"
        }
      ],
      "stateMutability": "view",
      "type": "function"
    },
    {
      "inputs": [
        {
          "internalType": "address",
          "name": "user",
          "type": "address"
        }
      ],
      "name": "timeUntilFaucet",
      "outputs": [
        {
          "internalType": "uint256",
          "name": "",
          "type": "uint256"
        }
      ],
      "stateMutability": "view",
      "type": "function"
    },
    {
      "inputs": [],
      "name": "totalSupply",
      "outputs": [
        {
          "internalType": "uint256",
          "name": "",
          "type": "uint256"
        }
      ],
      "stateMutability": "view",
      "type": "function"
    },
    {
      "inputs": [
        {
          "internalType": "address",
          "name": "to",
          "type": "address"
        },
        {
          "internalType": "uint256",
          "name": "amount",
          "type": "uint256"
        }
      ],
      "name": "transfer",
      "outputs": [
        {
          "internalType": "bool",
          "name": "",
          "type": "bool"
        }
      ],
      "stateMutability": "nonpayable",
      "type": "function"
    },
    {
      "inputs": [
        {
          "internalType": "address",
          "name": "from",
          "type": "address"
        },
        {
          "internalType": "address",
          "name": "to",
          "type": "address"
        },
        {
          "internalType": "uint256",
          "name": "amount",
          "type": "uint256"
        }
      ],
      "name": "transferFrom",
      "outputs": [
        {
          "internalType": "bool",
          "name": "",
          "type": "bool"
        }
      ],
      "stateMutability": "nonpayable",
      "type": "function"
    },
    {
      "inputs": [
        {
          "internalType": "address",
          "name": "newOwner",
          "type": "address"
        }
      ],
      "name": "transferOwnership",
      "outputs": [],
      "stateMutability": "nonpayable",
      "type": "function"
    }
  ],
  "bytecode": "0x608060405234801561001057600080fd5b506040516113c83803806113c883398101604081905261002f9161026a565b8282600361003d8382610364565b50600461004a8282610364565b50505061006361005e61009360201b60201c565b610097565b61006c33610097565b61008b3361007c6012600a610521565b6100869084610537565b6100e9565b505050610561565b3390565b600580546001600160a01b038381166001600160a01b0319831681179093556040519116919082907f8be0079c531659141344cd1fd0a4f28419497f9722a3daafe3b4186f6b6457e090600090a35050565b6001600160a01b0382166101435760405162461bcd60e51b815260206004820152601f60248201527f45524332303a206d696e7420746f20746865207a65726f206164647265737300604482015260640160405180910390fd5b8060026000828254610155919061054e565b90915550506001600160a01b038216600081815260208181526040808320805486019055518481527fddf252ad1be2c89b69c2b068fc378daa952ba7f163c4a11628f55a4df523b3ef910160405180910390a35050565b505050565b634e487b7160e01b600052604160045260246000fd5b600082601f8301126101d857600080fd5b81516001600160401b038111156101f1576101f16101b1565b604051601f8201601f19908116603f011681016001600160401b038111828210171561021f5761021f6101b1565b60405281815283820160200185101561023757600080fd5b60005b828110156102565760208186018101518383018201520161023a565b506000918101602001919091529392505050565b60008060006060848603121561027f57600080fd5b83516001600160401b0381111561029557600080fd5b6102a1868287016101c7565b602086015190945090506001600160401b038111156102bf57600080fd5b6102cb868287016101c7565b925050604084015190509250925092565b600181811c908216806102f057607f821691505b60208210810361031057634e487b7160e01b600052602260045260246000fd5b50919050565b601f8211156101ac57806000526020600020601f840160051c8101602085101561033d5750805b601f840160051c820191505b8181101561035d5760008155600101610349565b5050505050565b81516001600160401b0381111561037d5761037d6101b1565b6103918161038b84546102dc565b84610316565b6020601f8211600181146103c557600083156103ad5750848201515b600019600385901b1c1916600184901b17845561035d565b600084815260208120601f198516915b828110156103f557878501518255602094850194600190920191016103d5565b50848210156104135786840151600019600387901b60f8161c191681555b50505050600190811b01905550565b634e487b7160e01b600052601160045260246000fd5b6001815b60018411156104735780850481111561045757610457610422565b600184161561046557908102905b60019390931c92800261043c565b935093915050565b60008261048a5750600161051b565b816104975750600061051b565b81600181146104ad57600281146104b7576104d3565b600191505061051b565b60ff8411156104c8576104c8610422565b50506001821b61051b565b5060208310610133831016604e8410600b84101617156104f6575081810a61051b565b6105036000198484610438565b806000190482111561051757610517610422565b0290505b92915050565b600061053060ff84168361047b565b9392505050565b808202811582820484141761051b5761051b610422565b8082018082111561051b5761051b610422565b610e58806105706000396000f3fe608060405234801561001057600080fd5b50600436106101425760003560e01c80637bc1f6cc116100b8578063a457c2d71161007c578063a457c2d714610298578063a9059cbb146102ab578063dd62ed3e146102be578063de5f72fd146102d1578063e8662981146102d9578063f2fde38b146102ec57600080fd5b80637bc1f6cc146102385780637d1d5d19146102585780638da5cb5b1461026257806395d89b411461027d5780639dc29fac1461028557600080fd5b8063395093511161010a57806339509351146101bc57806340c10f19146101cf57806370a08231146101e4578063715018a61461020d5780637669764014610215578063780768fc1461022557600080fd5b806306fdde0314610147578063095ea7b31461016557806318160ddd1461018857806323b872dd1461019a578063313ce567146101ad575b600080fd5b61014f6102ff565b60405161015c9190610c8d565b60405180910390f35b610178610173366004610cf7565b610391565b604051901515815260200161015c565b6002545b60405190815260200161015c565b6101786101a8366004610d21565b6103ab565b6040516012815260200161015c565b6101786101ca366004610cf7565b6103cf565b6101e26101dd366004610cf7565b6103f1565b005b61018c6101f2366004610d5e565b6001600160a01b031660009081526020819052604090205490565b6101e2610407565b61018c683635c9adc5dea0000081565b610178610233366004610d5e565b61041b565b61018c610246366004610d5e565b60066020526000908152604090205481565b61018c6201518081565b6005546040516001600160a01b03909116815260200161015c565b61014f61044b565b6101e2610293366004610cf7565b61045a565b6101786102a6366004610cf7565b61046c565b6101786102b9366004610cf7565b6104ec565b61018c6102cc366004610d79565b6104fa565b6101e2610525565b61018c6102e7366004610d5e565b6105f0565b6101e26102fa366004610d5e565b61063c565b60606003805461030e90610dac565b80601f016020809104026020016040519081016040528092919081815260200182805461033a90610dac565b80156103875780601f1061035c57610100808354040283529160200191610387565b820191906000526020600020905b81548152906001019060200180831161036a57829003601f168201915b5050505050905090565b60003361039f8185856106b5565b60019150505b92915050565b6000336103b98582856107da565b6103c4858585610854565b506001949350505050565b60003361039f8185856103e283836104fa565b6103ec9190610dfc565b6106b5565b6103f96109f8565b6104038282610a52565b5050565b61040f6109f8565b6104196000610b11565b565b6001600160a01b038116600090815260066020526040812054610442906201518090610dfc565b42101592915050565b60606004805461030e90610dac565b6104626109f8565b6104038282610b63565b6000338161047a82866104fa565b9050838110156104df5760405162461bcd60e51b815260206004820152602560248201527f45524332303a2064656372656173656420616c6c6f77616e63652062656c6f77604482015264207a65726f60d81b60648201526084015b60405180910390fd5b6103c482868684036106b5565b60003361039f818585610854565b6001600160a01b03918216600090815260016020908152604080832093909416825291909152205490565b33600090815260066020526040902054610543906201518090610dfc565b42101561058b5760405162461bcd60e51b815260206004820152601660248201527546617563657420636f6f6c646f776e2061637469766560501b60448201526064016104d6565b3360008181526006602052604090204290556105b090683635c9adc5dea00000610a52565b604051683635c9adc5dea00000815233907fc471df7d13ab46c73ec6eb2da0f35f84077f20d50243ba09a714b82cffc54de99060200160405180910390a2565b6001600160a01b0381166000908152600660205260408120548190610619906201518090610dfc565b905080421061062b5750600092915050565b6106354282610e0f565b9392505050565b6106446109f8565b6001600160a01b0381166106a95760405162461bcd60e51b815260206004820152602660248201527f4f776e61626c653a206e6577206f776e657220697320746865207a65726f206160448201526564647265737360d01b60648201526084016104d6565b6106b281610b11565b50565b6001600160a01b0383166107175760405162461bcd60e51b8152602060048201526024808201527f45524332303a20617070726f76652066726f6d20746865207a65726f206164646044820152637265737360e01b60648201526084016104d6565b6001600160a01b0382166107785760405162461bcd60e51b815260206004820152602260248201527f45524332303a20617070726f766520746f20746865207a65726f206164647265604482015261737360f01b60648201526084016104d6565b6001600160a01b0383811660008181526001602090815260408083209487168084529482529182902085905590518481527f8c5be1e5ebec7d5bd14f71427d1e84f3dd0314c0f7b2291e5b200ac8c7c3b92591015b60405180910390a3505050565b60006107e684846104fa565b9050600019811461084e57818110156108415760405162461bcd60e51b815260206004820152601d60248201527f45524332303a20696e73756666696369656e7420616c6c6f77616e636500000060448201526064016104d6565b61084e84848484036106b5565b50505050565b6001600160a01b0383166108b85760405162461bcd60e51b815260206004820152602560248201527f45524332303a207472616e736665722066726f6d20746865207a65726f206164604482015264647265737360d81b60648201526084016104d6565b6001600160a01b03821661091a5760405162461bcd60e51b815260206004820152602360248201527f45524332303a207472616e7366657220746f20746865207a65726f206164647260448201526265737360e81b60648201526084016104d6565b6001600160a01b038316600090815260208190526040902054818110156109925760405162461bcd60e51b815260206004820152602660248201527f45524332303a207472616e7366657220616d6f756e7420657863656564732062604482015265616c616e636560d01b60648201526084016104d6565b6001600160a01b03848116600081815260208181526040808320878703905593871680835291849020805487019055925185815290927fddf252ad1be2c89b69c2b068fc378daa952ba7f163c4a11628f55a4df523b3ef910160405180910390a361084e565b6005546001600160a01b031633146104195760405162461bcd60e51b815260206004820181905260248201527f4f776e61626c653a2063616c6c6572206973206e6f7420746865206f776e657260448201526064016104d6565b6001600160a01b038216610aa85760405162461bcd60e51b815260206004820152601f60248201527f45524332303a206d696e7420746f20746865207a65726f20616464726573730060448201526064016104d6565b8060026000828254610aba9190610dfc565b90915550506001600160a01b038216600081815260208181526040808320805486019055518481527fddf252ad1be2c89b69c2b068fc378daa952ba7f163c4a11628f55a4df523b3ef910160405180910390a35050565b600580546001600160a01b038381166001600160a01b0319831681179093556040519116919082907f8be0079c531659141344cd1fd0a4f28419497f9722a3daafe3b4186f6b6457e090600090a35050565b6001600160a01b038216610bc35760405162461bcd60e51b815260206004820152602160248201527f45524332303a206275726e2066726f6d20746865207a65726f206164647265736044820152607360f81b60648201526084016104d6565b6001600160a01b03821660009081526020819052604090205481811015610c375760405162461bcd60e51b815260206004820152602260248201527f45524332303a206275726e20616d6f756e7420657863656564732062616c616e604482015261636560f01b60648201526084016104d6565b6001600160a01b0383166000818152602081815260408083208686039055600280548790039055518581529192917fddf252ad1be2c89b69c2b068fc378daa952ba7f163c4a11628f55a4df523b3ef91016107cd565b602081526000825180602084015260005b81811015610cbb5760208186018101516040868401015201610c9e565b506000604082850101526040601f19601f83011684010191505092915050565b80356001600160a01b0381168114610cf257600080fd5b919050565b60008060408385031215610d0a57600080fd5b610d1383610cdb565b946020939093013593505050565b600080600060608486031215610d3657600080fd5b610d3f84610cdb565b9250610d4d60208501610cdb565b929592945050506040919091013590565b600060208284031215610d7057600080fd5b61063582610cdb565b60008060408385031215610d8c57600080fd5b610d9583610cdb565b9150610da360208401610cdb565b90509250929050565b600181811c90821680610dc057607f821691505b602082108103610de057634e487b7160e01b600052602260045260246000fd5b50919050565b634e487b7160e01b600052601160045260246000fd5b808201808211156103a5576103a5610de6565b818103818111156103a5576103a5610de656fea2646970667358221220ccc5d4fc1fca7cbaea84f1c2ef1d4b26f421a6f3fe2f707e0952a28903f226e564736f6c634300081a0033",
  "linkReferences": {},
  "deployedLinkReferences": {}
}