{
  "_format": "hh-sol-artifact-1",
  "contractName": "PlatformAchievementNFT",
  "sourceName": "contracts/PlatformAchievementNFT.sol",
  "abi": [
    {
      "inputs": [
        {
          "internalType": "address",
          "name": "_platformTreasury",
          "type": "address"
        }
      ],
      "stateMutability": "nonpayable",
      "type": "constructor"
    },
    {
      "anonymous": false,
      "inputs": [
        {
          "indexed": true,
          "internalType": "address",
          "name": "user",
          "type": "address"
        },
        {
          "indexed": true,
          "internalType": "uint256",
          "name": "tokenId",
          "type": "uint256"
        },
        {
          "indexed": true,
          "internalType": "enum PlatformAchievementNFT.AchievementCategory",
          "name": "category",
          "type": "uint8"
        },
        {
          "indexed": false,
          "internalType": "string",
          "name": "name",
          "type": "string"
        },
        {
          "indexed": false,
          "internalType": "enum PlatformAchievementNFT.RarityLevel",
          "name": "rarity",
          "type": "uint8"
        },
        {
          "indexed": false,
          "internalType": "uint256",
          "name": "serialNumber",
          "type": "uint256"
        }
      ],
      "name": "AchievementMinted",
      "type": "event"
    },
    {
      "anonymous": false,
      "inputs": [
        {
          "indexed": true,
          "internalType": "string",
          "name": "achievementName",
          "type": "string"
        },
        {
          "indexed": false,
          "internalType": "enum PlatformAchievementNFT.AchievementCategory",
          "name": "category",
          "type": "uint8"
        },
        {
          "indexed": false,
          "internalType": "enum PlatformAchievementNFT.RarityLevel",
          "name": "rarity",
          "type": "uint8"
        },
        {
          "indexed": false,
          "internalType": "bool",
          "name": "isLimitedEdition",
          "type": "bool"
        },
        {
          "indexed": false,
          "internalType": "uint256",
          "name": "maxSupply",
          "type": "uint256"
        }
      ],
      "name": "AchievementTypeRegistered",
      "type": "event"
    },
    {
      "anonymous": false,
      "inputs": [
        {
          "indexed": true,
          "internalType": "address",
          "name": "owner",
          "type": "address"
        },
        {
          "indexed": true,
          "internalType": "address",
          "name": "approved",
          "type": "address"
        },
        {
          "indexed": true,
          "internalType": "uint256",
          "name": "tokenId",
          "type": "uint256"
        }
      ],
      "name": "Approval",
      "type": "event"
    },
    {
      "anonymous": false,
      "inputs": [
        {
          "indexed": true,
          "internalType": "address",
          "name": "owner",
          "type": "address"
        },
        {
          "indexed": true,
          "internalType": "address",
          "name": "operator",
          "type": "address"
        },
        {
          "indexed": false,
          "internalType": "bool",
          "name": "approved",
          "type": "bool"
        }
      ],
      "name": "ApprovalForAll",
      "type": "event"
    },
    {
      "anonymous": false,
      "inputs": [
        {
          "indexed": false,
          "internalType": "uint256",
          "name": "_fromTokenId",
          "type": "uint256"
        },
        {
          "indexed": false,
          "internalType": "uint256",
          "name": "_toTokenId",
          "type": "uint256"
        }
      ],
      "name": "BatchMetadataUpdate",
      "type": "event"
    },
    {
      "anonymous": false,
      "inputs": [
        {
          "indexed": false,
          "internalType": "uint256",
          "name": "_tokenId",
          "type": "uint256"
        }
      ],
      "name": "MetadataUpdate",
      "type": "event"
    },
    {
      "anonymous": false,
      "inputs": [
        {
          "indexed": false,
          "internalType": "uint256",
          "name": "oldFee",
          "type": "uint256"
        },
        {
          "indexed": false,
          "internalType": "uint256",
          "name": "newFee",
          "type": "uint256"
        }
      ],
      "name": "MintingFeeUpdated",
      "type": "event"
    },
    {
      "anonymous": false,
      "inputs": [
        {
          "indexed": true,
          "internalType": "address",
          "name": "previousOwner",
          "type": "address"
        },
        {
          "indexed": true,
          "internalType": "address",
          "name": "newOwner",
          "type": "address"
        }
      ],
      "name": "OwnershipTransferred",
      "type": "event"
    },
    {
      "anonymous": false,
      "inputs": [
        {
          "indexed": false,
          "internalType": "address",
          "name": "account",
          "type": "address"
        }
      ],
      "name": "Paused",
      "type": "event"
    },
    {
      "anonymous": false,
      "inputs": [
        {
          "indexed": true,
          "internalType": "address",
          "name": "oldTreasury",
          "type": "address"
        },
        {
          "indexed": true,
          "internalType": "address",
          "name": "newTreasury",
          "type": "address"
        }
      ],
      "name": "PlatformTreasuryUpdated",
      "type": "event"
    },
    {
      "anonymous": false,
      "inputs": [
        {
          "indexed": true,
          "internalType": "address",
          "name": "from",
          "type": "address"
        },
        {
          "indexed": true,
          "internalType": "address",
          "name": "to",
          "type": "address"
        },
        {
          "indexed": true,
          "internalType": "uint256",
          "name": "tokenId",
          "type": "uint256"
        }
      ],
      "name": "Transfer",
      "type": "event"
    },
    {
      "anonymous": false,
      "inputs": [
        {
          "indexed": false,
          "internalType": "address",
          "name": "account",
          "type": "address"
        }
      ],
      "name": "Unpaused",
      "type": "event"
    },
    {
      "inputs": [
        {
          "internalType": "string",
          "name": "",
          "type": "string"
        }
      ],
      "name": "achievementTypeCount",
      "outputs": [
        {
          "internalType": "uint256",
          "name": "",
          "type": "uint256"
        }
      ],
      "stateMutability": "view",
      "type": "function"
    },
    {
      "inputs": [
        {
          "internalType": "uint256",
          "name": "",
          "type": "uint256"
        }
      ],
      "name": "achievements",
      "outputs": [
        {
          "internalType": "enum PlatformAchievementNFT.AchievementCategory",
          "name": "category",
          "type": "uint8"
        },
        {
          "internalType": "enum PlatformAchievementNFT.RarityLevel",
          "name": "rarity",
          "type": "uint8"
        },
        {
          "internalType": "string",
          "name": "name",
          "type": "string"
        },
        {
          "internalType": "string",
          "name": "description",
          "type": "string"
        },
        {
          "internalType": "uint256",
          "name": "mintedAt",
          "type": "uint256"
        },
        {
          "internalType": "address",
          "name": "originalOwner",
          "type": "address"
        },
        {
          "internalType": "bool",
          "name": "isLimitedEdition",
          "type": "bool"
        },
        {
          "internalType": "uint256",
          "name": "serialNumber",
          "type": "uint256"
        }
      ],
      "stateMutability": "view",
      "type": "function"
    },
    {
      "inputs": [
        {
          "internalType": "address",
          "name": "to",
          "type": "address"
        },
        {
          "internalType": "uint256",
          "name": "tokenId",
          "type": "uint256"
        }
      ],
      "name": "approve",
      "outputs": [],
      "stateMutability": "nonpayable",
      "type": "function"
    },
    {
      "inputs": [
        {
          "internalType": "address",
          "name": "owner",
          "type": "address"
        }
      ],
      "name": "balanceOf",
      "outputs": [
        {
          "internalType": "uint256",
          "name": "",
          "type": "uint256"
        }
      ],
      "stateMutability": "view",
      "type": "function"
    },
    {
      "inputs": [
        {
          "internalType": "address",
          "name": "user",
          "type": "address"
        },
        {
          "internalType": "string[]",
          "name": "achievementNames",
          "type": "string[]"
        },
        {
          "internalType": "string[]",
          "name": "descriptions",
          "type": "string[]"
        },
        {
          "internalType": "enum PlatformAchievementNFT.AchievementCategory[]",
          "name": "categories",
          "type": "uint8[]"
        },
        {
          "internalType": "enum PlatformAchievementNFT.RarityLevel[]",
          "name": "rarities",
          "type": "uint8[]"
        },
        {
          "internalType": "string[]",
          "name": "metadataURIs",
          "type": "string[]"
        },
        {
          "internalType": "bool[]",
          "name": "isLimitedEditions",
          "type": "bool[]"
        }
      ],
      "name": "batchMintAchievements",
      "outputs": [
        {
          "internalType": "uint256[]",
          "name": "",
          "type": "uint256[]"
        }
      ],
      "stateMutability": "nonpayable",
      "type": "function"
    },
    {
      "inputs": [
        {
          "internalType": "string",
          "name": "achievementName",
          "type": "string"
        }
      ],
      "name": "getAchievementStats",
      "outputs": [
        {
          "internalType": "uint256",
          "name": "totalMinted",
          "type": "uint256"
        },
        {
          "internalType": "uint256",
          "name": "maxSupply",
          "type": "uint256"
        },
        {
          "internalType": "bool",
          "name": "isLimitedEdition",
          "type": "bool"
        }
      ],
      "stateMutability": "view",
      "type": "function"
    },
    {
      "inputs": [
        {
          "internalType": "enum PlatformAchievementNFT.AchievementCategory",
          "name": "category",
          "type": "uint8"
        }
      ],
      "name": "getAchievementsByCategory",
      "outputs": [
        {
          "internalType": "uint256[]",
          "name": "",
          "type": "uint256[]"
        }
      ],
      "stateMutability": "view",
      "type": "function"
    },
    {
      "inputs": [
        {
          "internalType": "enum PlatformAchievementNFT.RarityLevel",
          "name": "rarity",
          "type": "uint8"
        }
      ],
      "name": "getAchievementsByRarity",
      "outputs": [
        {
          "internalType": "uint256[]",
          "name": "",
          "type": "uint256[]"
        }
      ],
      "stateMutability": "view",
      "type": "function"
    },
    {
      "inputs": [
        {
          "internalType": "uint256",
          "name": "tokenId",
          "type": "uint256"
        }
      ],
      "name": "getApproved",
      "outputs": [
        {
          "internalType": "address",
          "name": "",
          "type": "address"
        }
      ],
      "stateMutability": "view",
      "type": "function"
    },
    {
      "inputs": [
        {
          "internalType": "address",
          "name": "user",
          "type": "address"
        }
      ],
      "name": "getUserAchievements",
      "outputs": [
        {
          "internalType": "uint256[]",
          "name": "",
          "type": "uint256[]"
        }
      ],
      "stateMutability": "view",
      "type": "function"
    },
    {
      "inputs": [
        {
          "internalType": "address",
          "name": "user",
          "type": "address"
        },
        {
          "internalType": "string",
          "name": "achievementName",
          "type": "string"
        }
      ],
      "name": "hasAchievement",
      "outputs": [
        {
          "internalType": "bool",
          "name": "",
          "type": "bool"
        }
      ],
      "stateMutability": "view",
      "type": "function"
    },
    {
      "inputs": [
        {
          "internalType": "address",
          "name": "owner",
          "type": "address"
        },
        {
          "internalType": "address",
          "name": "operator",
          "type": "address"
        }
      ],
      "name": "isApprovedForAll",
      "outputs": [
        {
          "internalType": "bool",
          "name": "",
          "type": "bool"
        }
      ],
      "stateMutability": "view",
      "type": "function"
    },
    {
      "inputs": [
        {
          "internalType": "string",
          "name": "",
          "type": "string"
        }
      ],
      "name": "limitedEditionMax",
      "outputs": [
        {
          "internalType": "uint256",
          "name": "",
          "type": "uint256"
        }
      ],
      "stateMutability": "view",
      "type": "function"
    },
    {
      "inputs": [
        {
          "internalType": "address",
          "name": "user",
          "type": "address"
        },
        {
          "internalType": "string",
          "name": "achievementName",
          "type": "string"
        },
        {
          "internalType": "string",
          "name": "description",
          "type": "string"
        },
        {
          "internalType": "enum PlatformAchievementNFT.AchievementCategory",
          "name": "category",
          "type": "uint8"
        },
        {
          "internalType": "enum PlatformAchievementNFT.RarityLevel",
          "name": "rarity",
          "type": "uint8"
        },
        {
          "internalType": "string",
          "name": "metadataURI",
          "type": "string"
        },
        {
          "internalType": "bool",
          "name": "isLimitedEdition",
          "type": "bool"
        }
      ],
      "name": "mintAchievement",
      "outputs": [
        {
          "internalType": "uint256",
          "name": "",
          "type": "uint256"
        }
      ],
      "stateMutability": "nonpayable",
      "type": "function"
    },
    {
      "inputs": [],
      "name": "mintingFee",
      "outputs": [
        {
          "internalType": "uint256",
          "name": "",
          "type": "uint256"
        }
      ],
      "stateMutability": "view",
      "type": "function"
    },
    {
      "inputs": [],
      "name": "name",
      "outputs": [
        {
          "internalType": "string",
          "name": "",
          "type": "string"
        }
      ],
      "stateMutability": "view",
      "type": "function"
    },
    {
      "inputs": [],
      "name": "owner",
      "outputs": [
        {
          "internalType": "address",
          "name": "",
          "type": "address"
        }
      ],
      "stateMutability": "view",
      "type": "function"
    },
    {
      "inputs": [
        {
          "internalType": "uint256",
          "name": "tokenId",
          "type": "uint256"
        }
      ],
      "name": "ownerOf",
      "outputs": [
        {
          "internalType": "address",
          "name": "",
          "type": "address"
        }
      ],
      "stateMutability": "view",
      "type": "function"
    },
    {
      "inputs": [],
      "name": "pause",
      "outputs": [],
      "stateMutability": "nonpayable",
      "type": "function"
    },
    {
      "inputs": [],
      "name": "paused",
      "outputs": [
        {
          "internalType": "bool",
          "name": "",
          "type": "bool"
        }
      ],
      "stateMutability": "view",
      "type": "function"
    },
    {
      "inputs": [],
      "name": "platformTreasury",
      "outputs": [
        {
          "internalType": "address",
          "name": "",
          "type": "address"
        }
      ],
      "stateMutability": "view",
      "type": "function"
    },
    {
      "inputs": [],
      "name": "publicMintingEnabled",
      "outputs": [
        {
          "internalType": "bool",
          "name": "",
          "type": "bool"
        }
      ],
      "stateMutability": "view",
      "type": "function"
    },
    {
      "inputs": [
        {
          "internalType": "string",
          "name": "achievementName",
          "type": "string"
        },
        {
          "internalType": "enum PlatformAchievementNFT.AchievementCategory",
          "name": "category",
          "type": "uint8"
        },
        {
          "internalType": "enum PlatformAchievementNFT.RarityLevel",
          "name": "rarity",
          "type": "uint8"
        },
        {
          "internalType": "bool",
          "name": "isLimitedEdition",
          "type": "bool"
        },
        {
          "internalType": "uint256",
          "name": "maxSupply",
          "type": "uint256"
        }
      ],
      "name": "registerAchievementType",
      "outputs": [],
      "stateMutability": "nonpayable",
      "type": "function"
    },
    {
      "inputs": [],
      "name": "renounceOwnership",
      "outputs": [],
      "stateMutability": "nonpayable",
      "type": "function"
    },
    {
      "inputs": [
        {
          "internalType": "address",
          "name": "from",
          "type": "address"
        },
        {
          "internalType": "address",
          "name": "to",
          "type": "address"
        },
        {
          "internalType": "uint256",
          "name": "tokenId",
          "type": "uint256"
        }
      ],
      "name": "safeTransferFrom",
      "outputs": [],
      "stateMutability": "nonpayable",
      "type": "function"
    },
    {
      "inputs": [
        {
          "internalType": "address",
          "name": "from",
          "type": "address"
        },
        {
          "internalType": "address",
          "name": "to",
          "type": "address"
        },
        {
          "internalType": "uint256",
          "name": "tokenId",
          "type": "uint256"
        },
        {
          "internalType": "bytes",
          "name": "data",
          "type": "bytes"
        }
      ],
      "name": "safeTransferFrom",
      "outputs": [],
      "stateMutability": "nonpayable",
      "type": "function"
    },
    {
      "inputs": [
        {
          "internalType": "address",
          "name": "operator",
          "type": "address"
        },
        {
          "internalType": "bool",
          "name": "approved",
          "type": "bool"
        }
      ],
      "name": "setApprovalForAll",
      "outputs": [],
      "stateMutability": "nonpayable",
      "type": "function"
    },
    {
      "inputs": [
        {
          "internalType": "uint256",
          "name": "_mintingFee",
          "type": "uint256"
        }
      ],
      "name": "setMintingFee",
      "outputs": [],
      "stateMutability": "nonpayable",
      "type": "function"
    },
    {
      "inputs": [
        {
          "internalType": "address",
          "name": "_platformTreasury",
          "type": "address"
        }
      ],
      "name": "setPlatformTreasury",
      "outputs": [],
      "stateMutability": "nonpayable",
      "type": "function"
    },
    {
      "inputs": [
        {
          "internalType": "bool",
          "name": "_enabled",
          "type": "bool"
        }
      ],
      "name": "setPublicMintingEnabled",
      "outputs": [],
      "stateMutability": "nonpayable",
      "type": "function"
    },
    {
      "inputs": [
        {
          "internalType": "bytes4",
          "name": "interfaceId",
          "type": "bytes4"
        }
      ],
      "name": "supportsInterface",
      "outputs": [
        {
          "internalType": "bool",
          "name": "",
          "type": "bool"
        }
      ],
      "stateMutability": "view",
      "type": "function"
    },
    {
      "inputs": [],
      "name": "symbol",
      "outputs": [
        {
          "internalType": "string",
          "name": "",
          "type": "string"
        }
      ],
      "stateMutability": "view",
      "type": "function"
    },
    {
      "inputs": [
        {
          "internalType": "uint256",
          "name": "tokenId",
          "type": "uint256"
        }
      ],
      "name": "tokenURI",
      "outputs": [
        {
          "internalType": "string",
          "name": "",
          "type": "string"
        }
      ],
      "stateMutability": "view",
      "type": "function"
    },
    {
      "inputs": [],
      "name": "totalSupply",
      "outputs": [
        {
          "internalType": "uint256",
          "name": "",
          "type": "uint256"
        }
      ],
      "stateMutability": "view",
      "type": "function"
    },
    {
      "inputs": [
        {
          "internalType": "address",
          "name": "from",
          "type": "address"
        },
        {
          "internalType": "address",
          "name": "to",
          "type": "address"
        },
        {
          "internalType": "uint256",
          "name": "tokenId",
          "type": "uint256"
        }
      ],
      "name": "transferFrom",
      "outputs": [],
      "stateMutability": "nonpayable",
      "type": "function"
    },
    {
      "inputs": [
        {
          "internalType": "address",
          "name": "newOwner",
          "type": "address"
        }
      ],
      "name": "transferOwnership",
      "outputs": [],
      "stateMutability": "nonpayable",
      "type": "function"
    },
    {
      "inputs": [],
      "name": "unpause",
      "outputs": [],
      "stateMutability": "nonpayable",
      "type": "function"
    },
    {
      "inputs": [
        {
          "internalType": "string",
          "name": "",
          "type": "string"
        },
        {
          "internalType": "address",
          "name": "",
          "type": "address"
        }
      ],
      "name": "userAchievementNames",
      "outputs": [
        {
          "internalType": "bool",
          "name": "",
          "type": "bool"
        }
      ],
      "stateMutability": "view",
      "type": "function"
    },
    {
      "inputs": [
        {
          "internalType": "address",
          "name": "",
          "type": "address"
        },
        {
          "internalType": "uint256",
          "name": "",
          "type": "uint256"
        }
      ],
      "name": "userAchievements",
      "outputs": [
        {
          "internalType": "uint256",
          "name": "",
          "type": "uint256"
        }
      ],
      "stateMutability": "view",
      "type": "function"
    },
    {
      "inputs": [],
      "name": "withdraw",
      "outputs": [],
      "stateMutability": "nonpayable",
      "type": "function"
    }
  ],
  "bytecode": "0x608060405260006011556012805460ff191690553480156200002057600080fd5b50604051620036ac380380620036ac83398101604081905262000043916200015d565b6040518060400160405280601f81526020017f47616d696e6720506c6174666f726d20416368696576656d656e74204e4654008152506040518060400160405280600381526020016247504160e81b8152508160009081620000a6919062000234565b506001620000b5828262000234565b505050620000d2620000cc6200010760201b60201c565b6200010b565b60016008556009805460ff19169055601080546001600160a01b0319166001600160a01b039290921691909117905562000300565b3390565b600780546001600160a01b038381166001600160a01b0319831681179093556040519116919082907f8be0079c531659141344cd1fd0a4f28419497f9722a3daafe3b4186f6b6457e090600090a35050565b6000602082840312156200017057600080fd5b81516001600160a01b03811681146200018857600080fd5b9392505050565b634e487b7160e01b600052604160045260246000fd5b600181811c90821680620001ba57607f821691505b602082108103620001db57634e487b7160e01b600052602260045260246000fd5b50919050565b601f8211156200022f57600081815260208120601f850160051c810160208610156200020a5750805b601f850160051c820191505b818110156200022b5782815560010162000216565b5050505b505050565b81516001600160401b038111156200025057620002506200018f565b6200026881620002618454620001a5565b84620001e1565b602080601f831160018114620002a05760008415620002875750858301515b600019600386901b1c1916600185901b1785556200022b565b600085815260208120601f198616915b82811015620002d157888601518255948401946001909101908401620002b0565b5085821015620002f05787850151600019600388901b60f8161c191681555b5050505050600190811b01905550565b61339c80620003106000396000f3fe608060405234801561001057600080fd5b50600436106102485760003560e01c8063715018a61161013b578063b88d4fde116100b8578063d791b0201161007c578063d791b02014610562578063e138818c14610575578063e985e9c514610588578063f09153c4146105c4578063f2fde38b146105d757600080fd5b8063b88d4fde146104d8578063b9a626ed146104eb578063c6b27032146104fe578063c87b56dd14610511578063cf2e70db1461052457600080fd5b80638dec9f7a116100ff5780638dec9f7a146104725780638e72863e1461047f57806395d89b4114610492578063a22cb4651461049a578063a6af93d6146104ad57600080fd5b8063715018a61461042b5780637cd86d60146104335780638456cb5914610446578063858d98f41461044e5780638da5cb5b1461046157600080fd5b806327aed72e116101c957806342842e0e1161018d57806342842e0e146103de5780635a64ad95146103f15780635c975abb146103fa5780636352211e1461040557806370a082311461041857600080fd5b806327aed72e1461034c5780632d94d584146103735780633ccfd60b1461039e5780633f4ba83a146103a657806340e8f107146103ae57600080fd5b806318160ddd1161021057806318160ddd146102ea5780631835dbe614610300578063238a47091461031357806323b872dd1461032657806324548c601461033957600080fd5b806301ffc9a71461024d57806306d25f9d1461027557806306fdde0314610295578063081812fc146102aa578063095ea7b3146102d5575b600080fd5b61026061025b3660046126c3565b6105ea565b60405190151581526020015b60405180910390f35b6102886102833660046129bf565b6105fb565b60405161026c9190612ac5565b61029d6107d6565b60405161026c9190612b59565b6102bd6102b8366004612b6c565b610868565b6040516001600160a01b03909116815260200161026c565b6102e86102e3366004612b85565b61088f565b005b6102f26109a4565b60405190815260200161026c565b6102e861030e366004612baf565b6109b4565b6102e8610321366004612b6c565b6109cf565b6102e8610334366004612bca565b610a1d565b6102f2610347366004612b85565b610a4e565b61035f61035a366004612b6c565b610a7f565b60405161026c989796959493929190612c40565b6102f2610381366004612cb3565b8051602081830181018051600e8252928201919093012091525481565b6102e8610be8565b6102e8610cd0565b6103c16103bc366004612cb3565b610ce2565b60408051938452602084019290925215159082015260600161026c565b6102e86103ec366004612bca565b610d36565b6102f260115481565b60095460ff16610260565b6102bd610413366004612b6c565b610d51565b6102f2610426366004612ce7565b610db1565b6102e8610e37565b6102e8610441366004612ce7565b610e49565b6102e8610ef9565b6102e861045c366004612d02565b610f09565b6007546001600160a01b03166102bd565b6012546102609060ff1681565b61028861048d366004612d78565b61103a565b61029d6111ca565b6102e86104a8366004612d93565b6111d9565b6102f26104bb366004612cb3565b8051602081830181018051600f8252928201919093012091525481565b6102e86104e6366004612dc6565b6111e4565b6102606104f9366004612e41565b61121c565b61028861050c366004612e8e565b61125e565b61029d61051f366004612b6c565b6113e9565b610260610532366004612ea9565b8151602081840181018051600d825292820194820194909420919093529091526000908152604090205460ff1681565b6102f2610570366004612eed565b6114f9565b6010546102bd906001600160a01b031681565b610260610596366004612fb7565b6001600160a01b03918216600090815260056020908152604080832093909416825291909152205460ff1690565b6102886105d2366004612ce7565b61152e565b6102e86105e5366004612ce7565b61159a565b60006105f582611613565b92915050565b6060610605611638565b61060d611692565b6106156116eb565b85518751148015610627575084518651145b8015610634575083518551145b8015610641575082518451145b801561064e575081518351145b6106975760405162461bcd60e51b8152602060048201526015602482015274082e4e4c2f240d8cadccee8d040dad2e6dac2e8c6d605b1b60448201526064015b60405180910390fd5b600087516001600160401b038111156106b2576106b26126fc565b6040519080825280602002602001820160405280156106db578160200160208202803683370190505b50905060005b88518110156107be5761078f8a8a838151811061070057610700612fe1565b60200260200101518a848151811061071a5761071a612fe1565b60200260200101518a858151811061073457610734612fe1565b60200260200101518a868151811061074e5761074e612fe1565b60200260200101518a878151811061076857610768612fe1565b60200260200101518a888151811061078257610782612fe1565b6020026020010151611731565b8282815181106107a1576107a1612fe1565b6020908102919091010152806107b68161300d565b9150506106e1565b5090506107cb6001600855565b979650505050505050565b6060600080546107e590613026565b80601f016020809104026020016040519081016040528092919081815260200182805461081190613026565b801561085e5780601f106108335761010080835404028352916020019161085e565b820191906000526020600020905b81548152906001019060200180831161084157829003601f168201915b5050505050905090565b600061087382611c11565b506000908152600460205260409020546001600160a01b031690565b600061089a82610d51565b9050806001600160a01b0316836001600160a01b0316036109075760405162461bcd60e51b815260206004820152602160248201527f4552433732313a20617070726f76616c20746f2063757272656e74206f776e656044820152603960f91b606482015260840161068e565b336001600160a01b038216148061092357506109238133610596565b6109955760405162461bcd60e51b815260206004820152603d60248201527f4552433732313a20617070726f76652063616c6c6572206973206e6f7420746f60448201527f6b656e206f776e6572206f7220617070726f76656420666f7220616c6c000000606482015260840161068e565b61099f8383611c61565b505050565b60006109af600a5490565b905090565b6109bc611638565b6012805460ff1916911515919091179055565b6109d7611638565b601180549082905560408051828152602081018490527fc24d648b8b29d6566f302551df9152ced5a44785e31f38d1d047c8168dd3451991015b60405180910390a15050565b610a273382611ccf565b610a435760405162461bcd60e51b815260040161068e90613060565b61099f838383611d4d565b600c6020528160005260406000208181548110610a6a57600080fd5b90600052602060002001600091509150505481565b600b602052600090815260409020805460018201805460ff8084169461010090940416929190610aae90613026565b80601f0160208091040260200160405190810160405280929190818152602001828054610ada90613026565b8015610b275780601f10610afc57610100808354040283529160200191610b27565b820191906000526020600020905b815481529060010190602001808311610b0a57829003601f168201915b505050505090806002018054610b3c90613026565b80601f0160208091040260200160405190810160405280929190818152602001828054610b6890613026565b8015610bb55780601f10610b8a57610100808354040283529160200191610bb5565b820191906000526020600020905b815481529060010190602001808311610b9857829003601f168201915b5050505060038301546004840154600590940154929390926001600160a01b0382169250600160a01b90910460ff169088565b610bf0611638565b4780610c355760405162461bcd60e51b81526020600482015260146024820152734e6f2066756e647320746f20776974686472617760601b604482015260640161068e565b6010546040516000916001600160a01b03169083908381818185875af1925050503d8060008114610c82576040519150601f19603f3d011682016040523d82523d6000602084013e610c87565b606091505b5050905080610ccc5760405162461bcd60e51b815260206004820152601160248201527015da5d1a191c985dd85b0819985a5b1959607a1b604482015260640161068e565b5050565b610cd8611638565b610ce0611ebe565b565b6000806000600e84604051610cf791906130ad565b9081526020016040518091039020549250600f84604051610d1891906130ad565b90815260200160405180910390205491506000821190509193909250565b61099f838383604051806020016040528060008152506111e4565b6000818152600260205260408120546001600160a01b0316806105f55760405162461bcd60e51b8152602060048201526018602482015277115490cdcc8c4e881a5b9d985b1a59081d1bdad95b88125160421b604482015260640161068e565b60006001600160a01b038216610e1b5760405162461bcd60e51b815260206004820152602960248201527f4552433732313a2061646472657373207a65726f206973206e6f7420612076616044820152683634b21037bbb732b960b91b606482015260840161068e565b506001600160a01b031660009081526003602052604090205490565b610e3f611638565b610ce06000611f10565b610e51611638565b6001600160a01b038116610ea75760405162461bcd60e51b815260206004820152601860248201527f496e76616c696420747265617375727920616464726573730000000000000000604482015260640161068e565b601080546001600160a01b038381166001600160a01b0319831681179093556040519116919082907ff3814cc4b6220f5bf02409e4cebe75e5032fdb20cef0db459431fd5cba574b9390600090a35050565b610f01611638565b610ce0611f62565b610f11611638565b6000855111610f5e5760405162461bcd60e51b81526020600482015260196024820152781058da1a595d995b595b9d081b985b59481c995c5d5a5c9959603a1b604482015260640161068e565b8115610fe05760008111610fbe5760405162461bcd60e51b815260206004820152602160248201527f4d617820737570706c79206d7573742062652067726561746572207468616e206044820152600360fc1b606482015260840161068e565b80600f86604051610fcf91906130ad565b908152604051908190036020019020555b84604051610fee91906130ad565b60405180910390207f8b6e6524c10cb2174065f69b2741900a29a474b2ed59fb981193ba7fb636856f8585858560405161102b94939291906130c9565b60405180910390a25050505050565b60606000611047600a5490565b90506000816001600160401b03811115611063576110636126fc565b60405190808252806020026020018201604052801561108c578160200160208202803683370190505b509050600060015b838111611125576110a481611f9f565b80156110e257508560058111156110bd576110bd612c06565b6000828152600b602052604090205460ff1660058111156110e0576110e0612c06565b145b1561111357808383815181106110fa576110fa612fe1565b60209081029190910101528161110f8161300d565b9250505b8061111d8161300d565b915050611094565b506000816001600160401b03811115611140576111406126fc565b604051908082528060200260200182016040528015611169578160200160208202803683370190505b50905060005b828110156111c05783818151811061118957611189612fe1565b60200260200101518282815181106111a3576111a3612fe1565b6020908102919091010152806111b88161300d565b91505061116f565b5095945050505050565b6060600180546107e590613026565b610ccc338383611fbc565b6111ee3383611ccf565b61120a5760405162461bcd60e51b815260040161068e90613060565b6112168484848461208a565b50505050565b6000600d8260405161122e91906130ad565b90815260408051602092819003830190206001600160a01b0386166000908152925290205460ff16905092915050565b6060600061126b600a5490565b90506000816001600160401b03811115611287576112876126fc565b6040519080825280602002602001820160405280156112b0578160200160208202803683370190505b509050600060015b83811161134e576112c881611f9f565b801561130b57508560048111156112e1576112e1612c06565b6000828152600b6020526040902054610100900460ff16600481111561130957611309612c06565b145b1561133c578083838151811061132357611323612fe1565b6020908102919091010152816113388161300d565b9250505b806113468161300d565b9150506112b8565b506000816001600160401b03811115611369576113696126fc565b604051908082528060200260200182016040528015611392578160200160208202803683370190505b50905060005b828110156111c0578381815181106113b2576113b2612fe1565b60200260200101518282815181106113cc576113cc612fe1565b6020908102919091010152806113e18161300d565b915050611398565b60606113f482611c11565b6000828152600660205260408120805461140d90613026565b80601f016020809104026020016040519081016040528092919081815260200182805461143990613026565b80156114865780601f1061145b57610100808354040283529160200191611486565b820191906000526020600020905b81548152906001019060200180831161146957829003601f168201915b5050505050905060006114a460408051602081019091526000815290565b905080516000036114b6575092915050565b8151156114e85780826040516020016114d09291906130f6565b60405160208183030381529060405292505050919050565b6114f1846120bd565b949350505050565b6000611503611638565b61150b611692565b6115136116eb565b61152288888888888888611731565b90506107cb6001600855565b6001600160a01b0381166000908152600c602090815260409182902080548351818402810184019094528084526060939283018282801561158e57602002820191906000526020600020905b81548152602001906001019080831161157a575b50505050509050919050565b6115a2611638565b6001600160a01b0381166116075760405162461bcd60e51b815260206004820152602660248201527f4f776e61626c653a206e6577206f776e657220697320746865207a65726f206160448201526564647265737360d01b606482015260840161068e565b61161081611f10565b50565b60006001600160e01b03198216632483248360e11b14806105f557506105f582612131565b6007546001600160a01b03163314610ce05760405162461bcd60e51b815260206004820181905260248201527f4f776e61626c653a2063616c6c6572206973206e6f7420746865206f776e6572604482015260640161068e565b6002600854036116e45760405162461bcd60e51b815260206004820152601f60248201527f5265656e7472616e637947756172643a207265656e7472616e742063616c6c00604482015260640161068e565b6002600855565b60095460ff1615610ce05760405162461bcd60e51b815260206004820152601060248201526f14185d5cd8589b194e881c185d5cd95960821b604482015260640161068e565b60006001600160a01b0388166117805760405162461bcd60e51b8152602060048201526014602482015273496e76616c69642075736572206164647265737360601b604482015260640161068e565b60008751116117cd5760405162461bcd60e51b81526020600482015260196024820152781058da1a595d995b595b9d081b985b59481c995c5d5a5c9959603a1b604482015260640161068e565b60008351116118165760405162461bcd60e51b815260206004820152601560248201527413595d1859185d1848155492481c995c5d5a5c9959605a1b604482015260640161068e565b600d8760405161182691906130ad565b90815260408051602092819003830190206001600160a01b038b166000908152925290205460ff16156118a55760405162461bcd60e51b815260206004820152602160248201527f5573657220616c726561647920686173207468697320616368696576656d656e6044820152601d60fa1b606482015260840161068e565b811561198d576000600f886040516118bd91906130ad565b90815260200160405180910390205490506000811161191e5760405162461bcd60e51b815260206004820152601e60248201527f4c696d697465642065646974696f6e206e6f7420726567697374657265640000604482015260640161068e565b80600e8960405161192f91906130ad565b9081526020016040518091039020541061198b5760405162461bcd60e51b815260206004820181905260248201527f4c696d697465642065646974696f6e20737570706c7920657868617573746564604482015260640161068e565b505b61199b600a80546001019055565b60006119a6600a5490565b90506119b28982612181565b6119bc81856122fc565b6000600e896040516119ce91906130ad565b90815260200160405180910390205460016119e99190613125565b9050604051806101000160405280886005811115611a0957611a09612c06565b8152602001876004811115611a2057611a20612c06565b815260208082018c905260408083018c90524260608401526001600160a01b038e16608084015287151560a084015260c09092018490526000858152600b9091522081518154829060ff19166001836005811115611a8057611a80612c06565b021790555060208201518154829061ff001916610100836004811115611aa857611aa8612c06565b021790555060408201516001820190611ac19082613186565b5060608201516002820190611ad69082613186565b506080820151600382015560a082015160048201805460c08501511515600160a01b026001600160a81b03199091166001600160a01b039384161717905560e0909201516005909101558a166000908152600c602090815260408083208054600181810183559185529290932090910184905551600d90611b58908c906130ad565b90815260408051602092819003830181206001600160a01b038f16600090815293529120805460ff1916921515929092179091558190600e90611b9c908c906130ad565b90815260405190819003602001902055866005811115611bbe57611bbe612c06565b828b6001600160a01b03167f8139e155785b0a12187406560f73ffcdc8bdc83f2ba1f4e560ae37d41d4277ec8c8a86604051611bfc93929190613245565b60405180910390a45098975050505050505050565b611c1a81611f9f565b6116105760405162461bcd60e51b8152602060048201526018602482015277115490cdcc8c4e881a5b9d985b1a59081d1bdad95b88125160421b604482015260640161068e565b600081815260046020526040902080546001600160a01b0319166001600160a01b0384169081179091558190611c9682610d51565b6001600160a01b03167f8c5be1e5ebec7d5bd14f71427d1e84f3dd0314c0f7b2291e5b200ac8c7c3b92560405160405180910390a45050565b600080611cdb83610d51565b9050806001600160a01b0316846001600160a01b03161480611d2257506001600160a01b0380821660009081526005602090815260408083209388168352929052205460ff165b806114f15750836001600160a01b0316611d3b84610868565b6001600160a01b031614949350505050565b826001600160a01b0316611d6082610d51565b6001600160a01b031614611d865760405162461bcd60e51b815260040161068e90613275565b6001600160a01b038216611de85760405162461bcd60e51b8152602060048201526024808201527f4552433732313a207472616e7366657220746f20746865207a65726f206164646044820152637265737360e01b606482015260840161068e565b611df583838360016123b1565b826001600160a01b0316611e0882610d51565b6001600160a01b031614611e2e5760405162461bcd60e51b815260040161068e90613275565b600081815260046020908152604080832080546001600160a01b03199081169091556001600160a01b0387811680865260038552838620805460001901905590871680865283862080546001019055868652600290945282852080549092168417909155905184937fddf252ad1be2c89b69c2b068fc378daa952ba7f163c4a11628f55a4df523b3ef91a4505050565b611ec66123f9565b6009805460ff191690557f5db9ee0a495bf2e6ff9c91a7834c1ba4fdd244a5e8aa4e537bd38aeae4b073aa335b6040516001600160a01b03909116815260200160405180910390a1565b600780546001600160a01b038381166001600160a01b0319831681179093556040519116919082907f8be0079c531659141344cd1fd0a4f28419497f9722a3daafe3b4186f6b6457e090600090a35050565b611f6a6116eb565b6009805460ff191660011790557f62e78cea01bee320cd4e420270b5ea74000d11b0c9f74754ebdbfc544b05a258611ef33390565b6000908152600260205260409020546001600160a01b0316151590565b816001600160a01b0316836001600160a01b03160361201d5760405162461bcd60e51b815260206004820152601960248201527f4552433732313a20617070726f766520746f2063616c6c657200000000000000604482015260640161068e565b6001600160a01b03838116600081815260056020908152604080832094871680845294825291829020805460ff191686151590811790915591519182527f17307eab39ab6107e8899845ad3d59bd9653f200f220920489ca2b5937696c31910160405180910390a3505050565b612095848484611d4d565b6120a184848484612442565b6112165760405162461bcd60e51b815260040161068e906132ba565b60606120c882611c11565b60006120df60408051602081019091526000815290565b905060008151116120ff576040518060200160405280600081525061212a565b8061210984612543565b60405160200161211a9291906130f6565b6040516020818303038152906040525b9392505050565b60006001600160e01b031982166380ac58cd60e01b148061216257506001600160e01b03198216635b5e139f60e01b145b806105f557506301ffc9a760e01b6001600160e01b03198316146105f5565b6001600160a01b0382166121d75760405162461bcd60e51b815260206004820181905260248201527f4552433732313a206d696e7420746f20746865207a65726f2061646472657373604482015260640161068e565b6121e081611f9f565b1561222d5760405162461bcd60e51b815260206004820152601c60248201527f4552433732313a20746f6b656e20616c7265616479206d696e74656400000000604482015260640161068e565b61223b6000838360016123b1565b61224481611f9f565b156122915760405162461bcd60e51b815260206004820152601c60248201527f4552433732313a20746f6b656e20616c7265616479206d696e74656400000000604482015260640161068e565b6001600160a01b038216600081815260036020908152604080832080546001019055848352600290915280822080546001600160a01b0319168417905551839291907fddf252ad1be2c89b69c2b068fc378daa952ba7f163c4a11628f55a4df523b3ef908290a45050565b61230582611f9f565b6123685760405162461bcd60e51b815260206004820152602e60248201527f45524337323155524953746f726167653a2055524920736574206f66206e6f6e60448201526d32bc34b9ba32b73a103a37b5b2b760911b606482015260840161068e565b60008281526006602052604090206123808282613186565b506040518281527ff8e1a15aba9398e019f0b49df1a4fde98ee17ae345cb5f6b5e2c27f5033e8ce790602001610a11565b60095460ff16156112165760405162461bcd60e51b815260206004820152601260248201527110dbdb9d1c9858dd081a5cc81c185d5cd95960721b604482015260640161068e565b60095460ff16610ce05760405162461bcd60e51b815260206004820152601460248201527314185d5cd8589b194e881b9bdd081c185d5cd95960621b604482015260640161068e565b60006001600160a01b0384163b1561253857604051630a85bd0160e11b81526001600160a01b0385169063150b7a029061248690339089908890889060040161330c565b6020604051808303816000875af19250505080156124c1575060408051601f3d908101601f191682019092526124be91810190613349565b60015b61251e573d8080156124ef576040519150601f19603f3d011682016040523d82523d6000602084013e6124f4565b606091505b5080516000036125165760405162461bcd60e51b815260040161068e906132ba565b805181602001fd5b6001600160e01b031916630a85bd0160e11b1490506114f1565b506001949350505050565b60606000612550836125d5565b60010190506000816001600160401b0381111561256f5761256f6126fc565b6040519080825280601f01601f191660200182016040528015612599576020820181803683370190505b5090508181016020015b600019016f181899199a1a9b1b9c1cb0b131b232b360811b600a86061a8153600a85049450846125a357509392505050565b60008072184f03e93ff9f4daa797ed6e38ed64bf6a1f0160401b83106126145772184f03e93ff9f4daa797ed6e38ed64bf6a1f0160401b830492506040015b6d04ee2d6d415b85acef81000000008310612640576d04ee2d6d415b85acef8100000000830492506020015b662386f26fc10000831061265e57662386f26fc10000830492506010015b6305f5e1008310612676576305f5e100830492506008015b612710831061268a57612710830492506004015b6064831061269c576064830492506002015b600a83106105f55760010192915050565b6001600160e01b03198116811461161057600080fd5b6000602082840312156126d557600080fd5b813561212a816126ad565b80356001600160a01b03811681146126f757600080fd5b919050565b634e487b7160e01b600052604160045260246000fd5b604051601f8201601f191681016001600160401b038111828210171561273a5761273a6126fc565b604052919050565b60006001600160401b0382111561275b5761275b6126fc565b5060051b60200190565b60006001600160401b0383111561277e5761277e6126fc565b612791601f8401601f1916602001612712565b90508281528383830111156127a557600080fd5b828260208301376000602084830101529392505050565b600082601f8301126127cd57600080fd5b61212a83833560208501612765565b600082601f8301126127ed57600080fd5b813560206128026127fd83612742565b612712565b82815260059290921b8401810191818101908684111561282157600080fd5b8286015b848110156128605780356001600160401b038111156128445760008081fd5b6128528986838b01016127bc565b845250918301918301612825565b509695505050505050565b8035600681106126f757600080fd5b600082601f83011261288b57600080fd5b8135602061289b6127fd83612742565b82815260059290921b840181019181810190868411156128ba57600080fd5b8286015b84811015612860576128cf8161286b565b83529183019183016128be565b8035600581106126f757600080fd5b600082601f8301126128fc57600080fd5b8135602061290c6127fd83612742565b82815260059290921b8401810191818101908684111561292b57600080fd5b8286015b8481101561286057612940816128dc565b835291830191830161292f565b803580151581146126f757600080fd5b600082601f83011261296e57600080fd5b8135602061297e6127fd83612742565b82815260059290921b8401810191818101908684111561299d57600080fd5b8286015b84811015612860576129b28161294d565b83529183019183016129a1565b600080600080600080600060e0888a0312156129da57600080fd5b6129e3886126e0565b965060208801356001600160401b03808211156129ff57600080fd5b612a0b8b838c016127dc565b975060408a0135915080821115612a2157600080fd5b612a2d8b838c016127dc565b965060608a0135915080821115612a4357600080fd5b612a4f8b838c0161287a565b955060808a0135915080821115612a6557600080fd5b612a718b838c016128eb565b945060a08a0135915080821115612a8757600080fd5b612a938b838c016127dc565b935060c08a0135915080821115612aa957600080fd5b50612ab68a828b0161295d565b91505092959891949750929550565b6020808252825182820181905260009190848201906040850190845b81811015612afd57835183529284019291840191600101612ae1565b50909695505050505050565b60005b83811015612b24578181015183820152602001612b0c565b50506000910152565b60008151808452612b45816020860160208601612b09565b601f01601f19169290920160200192915050565b60208152600061212a6020830184612b2d565b600060208284031215612b7e57600080fd5b5035919050565b60008060408385031215612b9857600080fd5b612ba1836126e0565b946020939093013593505050565b600060208284031215612bc157600080fd5b61212a8261294d565b600080600060608486031215612bdf57600080fd5b612be8846126e0565b9250612bf6602085016126e0565b9150604084013590509250925092565b634e487b7160e01b600052602160045260246000fd5b60068110612c2c57612c2c612c06565b9052565b60058110612c2c57612c2c612c06565b6000610100612c4f838c612c1c565b612c5c602084018b612c30565b806040840152612c6e8184018a612b2d565b90508281036060840152612c828189612b2d565b608084019790975250506001600160a01b039390931660a084015290151560c083015260e090910152949350505050565b600060208284031215612cc557600080fd5b81356001600160401b03811115612cdb57600080fd5b6114f1848285016127bc565b600060208284031215612cf957600080fd5b61212a826126e0565b600080600080600060a08688031215612d1a57600080fd5b85356001600160401b03811115612d3057600080fd5b612d3c888289016127bc565b955050612d4b6020870161286b565b9350612d59604087016128dc565b9250612d676060870161294d565b949793965091946080013592915050565b600060208284031215612d8a57600080fd5b61212a8261286b565b60008060408385031215612da657600080fd5b612daf836126e0565b9150612dbd6020840161294d565b90509250929050565b60008060008060808587031215612ddc57600080fd5b612de5856126e0565b9350612df3602086016126e0565b92506040850135915060608501356001600160401b03811115612e1557600080fd5b8501601f81018713612e2657600080fd5b612e3587823560208401612765565b91505092959194509250565b60008060408385031215612e5457600080fd5b612e5d836126e0565b915060208301356001600160401b03811115612e7857600080fd5b612e84858286016127bc565b9150509250929050565b600060208284031215612ea057600080fd5b61212a826128dc565b60008060408385031215612ebc57600080fd5b82356001600160401b03811115612ed257600080fd5b612ede858286016127bc565b925050612dbd602084016126e0565b600080600080600080600060e0888a031215612f0857600080fd5b612f11886126e0565b965060208801356001600160401b0380821115612f2d57600080fd5b612f398b838c016127bc565b975060408a0135915080821115612f4f57600080fd5b612f5b8b838c016127bc565b9650612f6960608b0161286b565b9550612f7760808b016128dc565b945060a08a0135915080821115612f8d57600080fd5b50612f9a8a828b016127bc565b925050612fa960c0890161294d565b905092959891949750929550565b60008060408385031215612fca57600080fd5b612fd3836126e0565b9150612dbd602084016126e0565b634e487b7160e01b600052603260045260246000fd5b634e487b7160e01b600052601160045260246000fd5b60006001820161301f5761301f612ff7565b5060010190565b600181811c9082168061303a57607f821691505b60208210810361305a57634e487b7160e01b600052602260045260246000fd5b50919050565b6020808252602d908201527f4552433732313a2063616c6c6572206973206e6f7420746f6b656e206f776e6560408201526c1c881bdc88185c1c1c9bdd9959609a1b606082015260800190565b600082516130bf818460208701612b09565b9190910192915050565b608081016130d78287612c1c565b6130e46020830186612c30565b92151560408201526060015292915050565b60008351613108818460208801612b09565b83519083019061311c818360208801612b09565b01949350505050565b808201808211156105f5576105f5612ff7565b601f82111561099f57600081815260208120601f850160051c8101602086101561315f5750805b601f850160051c820191505b8181101561317e5782815560010161316b565b505050505050565b81516001600160401b0381111561319f5761319f6126fc565b6131b3816131ad8454613026565b84613138565b602080601f8311600181146131e857600084156131d05750858301515b600019600386901b1c1916600185901b17855561317e565b600085815260208120601f198616915b82811015613217578886015182559484019460019091019084016131f8565b50858210156132355787850151600019600388901b60f8161c191681555b5050505050600190811b01905550565b6060815260006132586060830186612b2d565b90506132676020830185612c30565b826040830152949350505050565b60208082526025908201527f4552433732313a207472616e736665722066726f6d20696e636f72726563742060408201526437bbb732b960d91b606082015260800190565b60208082526032908201527f4552433732313a207472616e7366657220746f206e6f6e20455243373231526560408201527131b2b4bb32b91034b6b83632b6b2b73a32b960711b606082015260800190565b6001600160a01b038581168252841660208201526040810183905260806060820181905260009061333f90830184612b2d565b9695505050505050565b60006020828403121561335b57600080fd5b815161212a816126ad56fea26469706673582212203d802e32f0d5427e839d8f1b678e9ec096a14a3987a3cc7958688322a071023f64736f6c63430008130033",
  "linkReferences": {},
  "deployedLinkReferences": {}
}