{
  "_format": "hh-sol-artifact-1",
  "contractName": "PostRegistry",
  "sourceName": "contracts/PostRegistry.sol",
  "abi": [
    {
      "inputs": [],
      "stateMutability": "nonpayable",
      "type": "constructor"
    },
    {
      "anonymous": false,
      "inputs": [
        {
          "indexed": false,
          "internalType": "uint256",
          "name": "oldFee",
          "type": "uint256"
        },
        {
          "indexed": false,
          "internalType": "uint256",
          "name": "newFee",
          "type": "uint256"
        }
      ],
      "name": "FeeUpdated",
      "type": "event"
    },
    {
      "anonymous": false,
      "inputs": [
        {
          "indexed": true,
          "internalType": "address",
          "name": "previousOwner",
          "type": "address"
        },
        {
          "indexed": true,
          "internalType": "address",
          "name": "newOwner",
          "type": "address"
        }
      ],
      "name": "OwnershipTransferred",
      "type": "event"
    },
    {
      "anonymous": false,
      "inputs": [
        {
          "indexed": true,
          "internalType": "uint256",
          "name": "postId",
          "type": "uint256"
        },
        {
          "indexed": true,
          "internalType": "address",
          "name": "author",
          "type": "address"
        },
        {
          "indexed": false,
          "internalType": "string",
          "name": "content",
          "type": "string"
        },
        {
          "indexed": false,
          "internalType": "string",
          "name": "mediaIpfs",
          "type": "string"
        },
        {
          "indexed": false,
          "internalType": "string",
          "name": "gameCategory",
          "type": "string"
        },
        {
          "indexed": false,
          "internalType": "uint256",
          "name": "timestamp",
          "type": "uint256"
        }
      ],
      "name": "PostCreated",
      "type": "event"
    },
    {
      "anonymous": false,
      "inputs": [
        {
          "indexed": true,
          "internalType": "uint256",
          "name": "postId",
          "type": "uint256"
        },
        {
          "indexed": true,
          "internalType": "address",
          "name": "author",
          "type": "address"
        }
      ],
      "name": "PostDeleted",
      "type": "event"
    },
    {
      "anonymous": false,
      "inputs": [
        {
          "indexed": true,
          "internalType": "uint256",
          "name": "postId",
          "type": "uint256"
        },
        {
          "indexed": true,
          "internalType": "address",
          "name": "liker",
          "type": "address"
        }
      ],
      "name": "PostLiked",
      "type": "event"
    },
    {
      "anonymous": false,
      "inputs": [
        {
          "indexed": true,
          "internalType": "uint256",
          "name": "postId",
          "type": "uint256"
        },
        {
          "indexed": true,
          "internalType": "address",
          "name": "unliker",
          "type": "address"
        }
      ],
      "name": "PostUnliked",
      "type": "event"
    },
    {
      "inputs": [],
      "name": "MAX_CONTENT_LENGTH",
      "outputs": [
        {
          "internalType": "uint256",
          "name": "",
          "type": "uint256"
        }
      ],
      "stateMutability": "view",
      "type": "function"
    },
    {
      "inputs": [
        {
          "internalType": "string",
          "name": "_content",
          "type": "string"
        },
        {
          "internalType": "string",
          "name": "_mediaIpfs",
          "type": "string"
        },
        {
          "internalType": "string",
          "name": "_gameCategory",
          "type": "string"
        }
      ],
      "name": "createPost",
      "outputs": [],
      "stateMutability": "payable",
      "type": "function"
    },
    {
      "inputs": [
        {
          "internalType": "string",
          "name": "_content",
          "type": "string"
        },
        {
          "internalType": "string",
          "name": "_mediaIpfs",
          "type": "string"
        },
        {
          "internalType": "string",
          "name": "_gameCategory",
          "type": "string"
        }
      ],
      "name": "createPostWhenNotPaused",
      "outputs": [],
      "stateMutability": "payable",
      "type": "function"
    },
    {
      "inputs": [
        {
          "internalType": "uint256",
          "name": "_postId",
          "type": "uint256"
        }
      ],
      "name": "deletePost",
      "outputs": [],
      "stateMutability": "nonpayable",
      "type": "function"
    },
    {
      "inputs": [],
      "name": "getBalance",
      "outputs": [
        {
          "internalType": "uint256",
          "name": "",
          "type": "uint256"
        }
      ],
      "stateMutability": "view",
      "type": "function"
    },
    {
      "inputs": [
        {
          "internalType": "uint256",
          "name": "_postId",
          "type": "uint256"
        }
      ],
      "name": "getPost",
      "outputs": [
        {
          "components": [
            {
              "internalType": "uint256",
              "name": "id",
              "type": "uint256"
            },
            {
              "internalType": "address",
              "name": "author",
              "type": "address"
            },
            {
              "internalType": "string",
              "name": "content",
              "type": "string"
            },
            {
              "internalType": "string",
              "name": "mediaIpfs",
              "type": "string"
            },
            {
              "internalType": "string",
              "name": "gameCategory",
              "type": "string"
            },
            {
              "internalType": "uint256",
              "name": "timestamp",
              "type": "uint256"
            },
            {
              "internalType": "bool",
              "name": "isDeleted",
              "type": "bool"
            },
            {
              "internalType": "uint256",
              "name": "likesCount",
              "type": "uint256"
            },
            {
              "internalType": "uint256",
              "name": "commentsCount",
              "type": "uint256"
            }
          ],
          "internalType": "struct PostRegistry.Post",
          "name": "",
          "type": "tuple"
        }
      ],
      "stateMutability": "view",
      "type": "function"
    },
    {
      "inputs": [
        {
          "internalType": "uint256",
          "name": "_count",
          "type": "uint256"
        }
      ],
      "name": "getRecentPosts",
      "outputs": [
        {
          "internalType": "uint256[]",
          "name": "",
          "type": "uint256[]"
        }
      ],
      "stateMutability": "view",
      "type": "function"
    },
    {
      "inputs": [],
      "name": "getTotalPosts",
      "outputs": [
        {
          "internalType": "uint256",
          "name": "",
          "type": "uint256"
        }
      ],
      "stateMutability": "view",
      "type": "function"
    },
    {
      "inputs": [
        {
          "internalType": "address",
          "name": "_user",
          "type": "address"
        }
      ],
      "name": "getUserPosts",
      "outputs": [
        {
          "internalType": "uint256[]",
          "name": "",
          "type": "uint256[]"
        }
      ],
      "stateMutability": "view",
      "type": "function"
    },
    {
      "inputs": [
        {
          "internalType": "uint256",
          "name": "_postId",
          "type": "uint256"
        },
        {
          "internalType": "address",
          "name": "_user",
          "type": "address"
        }
      ],
      "name": "hasUserLikedPost",
      "outputs": [
        {
          "internalType": "bool",
          "name": "",
          "type": "bool"
        }
      ],
      "stateMutability": "view",
      "type": "function"
    },
    {
      "inputs": [],
      "name": "owner",
      "outputs": [
        {
          "internalType": "address",
          "name": "",
          "type": "address"
        }
      ],
      "stateMutability": "view",
      "type": "function"
    },
    {
      "inputs": [],
      "name": "paused",
      "outputs": [
        {
          "internalType": "bool",
          "name": "",
          "type": "bool"
        }
      ],
      "stateMutability": "view",
      "type": "function"
    },
    {
      "inputs": [],
      "name": "postFee",
      "outputs": [
        {
          "internalType": "uint256",
          "name": "",
          "type": "uint256"
        }
      ],
      "stateMutability": "view",
      "type": "function"
    },
    {
      "inputs": [
        {
          "internalType": "uint256",
          "name": "",
          "type": "uint256"
        },
        {
          "internalType": "address",
          "name": "",
          "type": "address"
        }
      ],
      "name": "postLikes",
      "outputs": [
        {
          "internalType": "bool",
          "name": "",
          "type": "bool"
        }
      ],
      "stateMutability": "view",
      "type": "function"
    },
    {
      "inputs": [
        {
          "internalType": "uint256",
          "name": "",
          "type": "uint256"
        }
      ],
      "name": "posts",
      "outputs": [
        {
          "internalType": "uint256",
          "name": "id",
          "type": "uint256"
        },
        {
          "internalType": "address",
          "name": "author",
          "type": "address"
        },
        {
          "internalType": "string",
          "name": "content",
          "type": "string"
        },
        {
          "internalType": "string",
          "name": "mediaIpfs",
          "type": "string"
        },
        {
          "internalType": "string",
          "name": "gameCategory",
          "type": "string"
        },
        {
          "internalType": "uint256",
          "name": "timestamp",
          "type": "uint256"
        },
        {
          "internalType": "bool",
          "name": "isDeleted",
          "type": "bool"
        },
        {
          "internalType": "uint256",
          "name": "likesCount",
          "type": "uint256"
        },
        {
          "internalType": "uint256",
          "name": "commentsCount",
          "type": "uint256"
        }
      ],
      "stateMutability": "view",
      "type": "function"
    },
    {
      "inputs": [],
      "name": "renounceOwnership",
      "outputs": [],
      "stateMutability": "nonpayable",
      "type": "function"
    },
    {
      "inputs": [
        {
          "internalType": "bool",
          "name": "_paused",
          "type": "bool"
        }
      ],
      "name": "setPaused",
      "outputs": [],
      "stateMutability": "nonpayable",
      "type": "function"
    },
    {
      "inputs": [
        {
          "internalType": "uint256",
          "name": "_newFee",
          "type": "uint256"
        }
      ],
      "name": "setPostFee",
      "outputs": [],
      "stateMutability": "nonpayable",
      "type": "function"
    },
    {
      "inputs": [
        {
          "internalType": "uint256",
          "name": "_postId",
          "type": "uint256"
        }
      ],
      "name": "toggleLike",
      "outputs": [],
      "stateMutability": "nonpayable",
      "type": "function"
    },
    {
      "inputs": [
        {
          "internalType": "address",
          "name": "newOwner",
          "type": "address"
        }
      ],
      "name": "transferOwnership",
      "outputs": [],
      "stateMutability": "nonpayable",
      "type": "function"
    },
    {
      "inputs": [
        {
          "internalType": "address",
          "name": "",
          "type": "address"
        },
        {
          "internalType": "uint256",
          "name": "",
          "type": "uint256"
        }
      ],
      "name": "userPosts",
      "outputs": [
        {
          "internalType": "uint256",
          "name": "",
          "type": "uint256"
        }
      ],
      "stateMutability": "view",
      "type": "function"
    },
    {
      "inputs": [
        {
          "internalType": "address",
          "name": "",
          "type": "address"
        }
      ],
      "name": "userPostsCount",
      "outputs": [
        {
          "internalType": "uint256",
          "name": "",
          "type": "uint256"
        }
      ],
      "stateMutability": "view",
      "type": "function"
    },
    {
      "inputs": [],
      "name": "withdraw",
      "outputs": [],
      "stateMutability": "nonpayable",
      "type": "function"
    }
  ],
  "bytecode": "0x608060405266038d7ea4c680006003556008805460ff1916905534801561002557600080fd5b5061002f3361003d565b60018055600060025561008d565b600080546001600160a01b038381166001600160a01b0319831681178455604051919092169283917f8be0079c531659141344cd1fd0a4f28419497f9722a3daafe3b4186f6b6457e09190a35050565b611b588061009c6000396000f3fe6080604052600436106101405760003560e01c8063715018a6116100b6578063ca1f0cad1161006f578063ca1f0cad14610376578063e8a4a1eb146103b1578063f2a43db8146103c4578063f2fde38b1461040a578063f75fdef21461042a578063fcf7becf1461045757600080fd5b8063715018a6146102b9578063768bf477146102ce5780638064d149146102e15780638da5cb5b146103015780639a2194a914610329578063c66a7ca71461035657600080fd5b806326eb4ca81161010857806326eb4ca8146101f85780633ccfd60b1461021857806340731c241461022d57806354398d181461025a5780635c975abb1461027a5780635fe226b4146102a457600080fd5b806305b746b514610145578063094cd5ee1461016e5780630b1e7f831461019057806312065fe0146101c557806316c38b3c146101d8575b600080fd5b34801561015157600080fd5b5061015b6107d081565b6040519081526020015b60405180910390f35b34801561017a57600080fd5b5061018e6101893660046114dc565b61046d565b005b34801561019c57600080fd5b506101b06101ab3660046114dc565b6105ba565b6040516101659998979695949392919061153b565b3480156101d157600080fd5b504761015b565b3480156101e457600080fd5b5061018e6101f33660046115b8565b6107a8565b34801561020457600080fd5b5061018e6102133660046114dc565b6107c3565b34801561022457600080fd5b5061018e610810565b34801561023957600080fd5b5061024d6102483660046114dc565b6108f8565b60405161016591906115e1565b34801561026657600080fd5b5061018e6102753660046114dc565b610bdb565b34801561028657600080fd5b506008546102949060ff1681565b6040519015158152602001610165565b3480156102b057600080fd5b5060025461015b565b3480156102c557600080fd5b5061018e610dac565b61018e6102dc366004611745565b610dc0565b3480156102ed57600080fd5b5061015b6102fc3660046117e9565b610e77565b34801561030d57600080fd5b506000546040516001600160a01b039091168152602001610165565b34801561033557600080fd5b50610349610344366004611813565b610ea8565b604051610165919061182e565b34801561036257600080fd5b506103496103713660046114dc565b610f14565b34801561038257600080fd5b50610294610391366004611872565b600660209081526000928352604080842090915290825290205460ff1681565b61018e6103bf366004611745565b6110bb565b3480156103d057600080fd5b506102946103df366004611872565b60009182526006602090815260408084206001600160a01b0393909316845291905290205460ff1690565b34801561041657600080fd5b5061018e610425366004611813565b611360565b34801561043657600080fd5b5061015b610445366004611813565b60076020526000908152604090205481565b34801561046357600080fd5b5061015b60035481565b8060008111801561048057506002548111155b6104a55760405162461bcd60e51b815260040161049c9061189e565b60405180910390fd5b60008181526004602052604090206006015460ff16156104d75760405162461bcd60e51b815260040161049c906118c7565b60008281526004602052604090206001015482906001600160a01b0316331461054e5760405162461bcd60e51b815260206004820152602360248201527f4f6e6c7920617574686f722063616e20706572666f726d20746869732061637460448201526234b7b760e91b606482015260840161049c565b6000838152600460209081526040808320600601805460ff19166001179055338352600790915281208054916105838361190c565b9091555050604051339084907f1da4a15b15417b54b8b3bea2ca87cfc4c94f0fee7d86702d0dab9e2906e7a7d390600090a3505050565b60046020526000908152604090208054600182015460028301805492936001600160a01b03909216926105ec90611923565b80601f016020809104026020016040519081016040528092919081815260200182805461061890611923565b80156106655780601f1061063a57610100808354040283529160200191610665565b820191906000526020600020905b81548152906001019060200180831161064857829003601f168201915b50505050509080600301805461067a90611923565b80601f01602080910402602001604051908101604052809291908181526020018280546106a690611923565b80156106f35780601f106106c8576101008083540402835291602001916106f3565b820191906000526020600020905b8154815290600101906020018083116106d657829003601f168201915b50505050509080600401805461070890611923565b80601f016020809104026020016040519081016040528092919081815260200182805461073490611923565b80156107815780601f1061075657610100808354040283529160200191610781565b820191906000526020600020905b81548152906001019060200180831161076457829003601f168201915b505050506005830154600684015460078501546008909501549394919360ff909116925089565b6107b06113d9565b6008805460ff1916911515919091179055565b6107cb6113d9565b600380549082905560408051828152602081018490527f528d9479e9f9889a87a3c30c7f7ba537e5e59c4c85a37733b16e57c62df61302910160405180910390a15050565b6108186113d9565b478061085d5760405162461bcd60e51b81526020600482015260146024820152734e6f2066756e647320746f20776974686472617760601b604482015260640161049c565b600080546040516001600160a01b039091169083908381818185875af1925050503d80600081146108aa576040519150601f19603f3d011682016040523d82523d6000602084013e6108af565b606091505b50509050806108f45760405162461bcd60e51b815260206004820152601160248201527015da5d1a191c985dd85b0819985a5b1959607a1b604482015260640161049c565b5050565b6109526040518061012001604052806000815260200160006001600160a01b031681526020016060815260200160608152602001606081526020016000815260200160001515815260200160008152602001600081525090565b8160008111801561096557506002548111155b6109815760405162461bcd60e51b815260040161049c9061189e565b60008181526004602052604090206006015460ff16156109b35760405162461bcd60e51b815260040161049c906118c7565b6000838152600460209081526040918290208251610120810184528154815260018201546001600160a01b03169281019290925260028101805492939192918401916109fe90611923565b80601f0160208091040260200160405190810160405280929190818152602001828054610a2a90611923565b8015610a775780601f10610a4c57610100808354040283529160200191610a77565b820191906000526020600020905b815481529060010190602001808311610a5a57829003601f168201915b50505050508152602001600382018054610a9090611923565b80601f0160208091040260200160405190810160405280929190818152602001828054610abc90611923565b8015610b095780601f10610ade57610100808354040283529160200191610b09565b820191906000526020600020905b815481529060010190602001808311610aec57829003601f168201915b50505050508152602001600482018054610b2290611923565b80601f0160208091040260200160405190810160405280929190818152602001828054610b4e90611923565b8015610b9b5780601f10610b7057610100808354040283529160200191610b9b565b820191906000526020600020905b815481529060010190602001808311610b7e57829003601f168201915b505050918352505060058201546020820152600682015460ff16151560408201526007820154606082015260089091015460809091015291505b50919050565b80600081118015610bee57506002548111155b610c0a5760405162461bcd60e51b815260040161049c9061189e565b60008181526004602052604090206006015460ff1615610c3c5760405162461bcd60e51b815260040161049c906118c7565b600082815260046020526040902060010154336001600160a01b0390911603610ca75760405162461bcd60e51b815260206004820152601960248201527f43616e6e6f74206c696b6520796f7572206f776e20706f737400000000000000604482015260640161049c565b600082815260066020908152604080832033845290915290205460ff1615610d395760008281526006602090815260408083203384528252808320805460ff1916905584835260049091528120600701805491610d038361190c565b9091555050604051339083907f82092d1196022c48d901e5dc4b17451dbce942b8a9ded42fc6f2a4a5e8fd89b990600090a35050565b60008281526006602090815260408083203384528252808320805460ff1916600117905584835260049091528120600701805491610d7683611957565b9091555050604051339083907fcf765d6f163c9b0d832e2a94f4c8e9bffd32a2c3ca5fdbb8cc67b5fe1441f41390600090a35050565b610db46113d9565b610dbe6000611433565b565b610dc8611483565b60085460ff1615610e105760405162461bcd60e51b815260206004820152601260248201527110dbdb9d1c9858dd081a5cc81c185d5cd95960721b604482015260640161049c565b60405163e8a4a1eb60e01b8152309063e8a4a1eb90610e3790869086908690600401611970565b600060405180830381600087803b158015610e5157600080fd5b505af1158015610e65573d6000803e3d6000fd5b50505050610e7260018055565b505050565b60056020528160005260406000208181548110610e9357600080fd5b90600052602060002001600091509150505481565b6001600160a01b038116600090815260056020908152604091829020805483518184028101840190945280845260609392830182828015610f0857602002820191906000526020600020905b815481526020019060010190808311610ef4575b50505050509050919050565b6002546060906000819003610f39575050604080516000815260208101909152919050565b6000818411610f485783610f4a565b815b905060008167ffffffffffffffff811115610f6757610f676116a2565b604051908082528060200260200182016040528015610f90578160200160208202803683370190505b5090506000835b60018110158015610fa757508382105b156110035760008181526004602052604090206006015460ff16610ff15780838381518110610fd857610fd86119b3565b602090810291909101015281610fed81611957565b9250505b80610ffb8161190c565b915050610f97565b50828110156110b25760008167ffffffffffffffff811115611027576110276116a2565b604051908082528060200260200182016040528015611050578160200160208202803683370190505b50905060005b828110156110a757838181518110611070576110706119b3565b602002602001015182828151811061108a5761108a6119b3565b60209081029190910101528061109f81611957565b915050611056565b509695505050505050565b50949350505050565b6110c3611483565b60008351116111145760405162461bcd60e51b815260206004820152601760248201527f436f6e74656e742063616e6e6f7420626520656d707479000000000000000000604482015260640161049c565b6107d08351111561115a5760405162461bcd60e51b815260206004820152601060248201526f436f6e74656e7420746f6f206c6f6e6760801b604482015260640161049c565b6003543410156111bb5760405162461bcd60e51b815260206004820152602660248201527f496e73756666696369656e74207061796d656e7420666f7220706f737420637260448201526532b0ba34b7b760d11b606482015260840161049c565b600280549060006111cb83611957565b909155505060028054604080516101208101825282815233602080830191825282840189815260608401899052608084018890524260a0850152600060c0850181905260e08501819052610100850181905286815260049092529390208251815590516001820180546001600160a01b0319166001600160a01b03909216919091179055915192939092908201906112639082611a17565b50606082015160038201906112789082611a17565b506080820151600482019061128d9082611a17565b5060a082015160058281019190915560c083015160068301805460ff191691151591909117905560e0830151600780840191909155610100909301516008909201919091553360008181526020928352604080822080546001810182559083528483200186905591815292909152812080549161130983611957565b9190505550336001600160a01b0316817f9b28687e6fda33694991b0e01f361f75fdd0088ee56e157da940ad9f6a1ecd038686864260405161134e9493929190611ad7565b60405180910390a350610e7260018055565b6113686113d9565b6001600160a01b0381166113cd5760405162461bcd60e51b815260206004820152602660248201527f4f776e61626c653a206e6577206f776e657220697320746865207a65726f206160448201526564647265737360d01b606482015260840161049c565b6113d681611433565b50565b6000546001600160a01b03163314610dbe5760405162461bcd60e51b815260206004820181905260248201527f4f776e61626c653a2063616c6c6572206973206e6f7420746865206f776e6572604482015260640161049c565b600080546001600160a01b038381166001600160a01b0319831681178455604051919092169283917f8be0079c531659141344cd1fd0a4f28419497f9722a3daafe3b4186f6b6457e09190a35050565b6002600154036114d55760405162461bcd60e51b815260206004820152601f60248201527f5265656e7472616e637947756172643a207265656e7472616e742063616c6c00604482015260640161049c565b6002600155565b6000602082840312156114ee57600080fd5b5035919050565b6000815180845260005b8181101561151b576020818501810151868301820152016114ff565b506000602082860101526020601f19601f83011685010191505092915050565b8981526001600160a01b0389166020820152610120604082018190526000906115668382018b6114f5565b9050828103606084015261157a818a6114f5565b9050828103608084015261158e81896114f5565b60a0840197909752505092151560c084015260e08301919091526101009091015295945050505050565b6000602082840312156115ca57600080fd5b813580151581146115da57600080fd5b9392505050565b60208152815160208201526000602083015161160860408401826001600160a01b03169052565b5060408301516101208060608501526116256101408501836114f5565b91506060850151601f198086850301608087015261164384836114f5565b935060808701519150808685030160a08701525061166183826114f5565b92505060a085015160c085015260c085015161168160e086018215159052565b5060e085015161010085810191909152909401519390920192909252919050565b634e487b7160e01b600052604160045260246000fd5b600082601f8301126116c957600080fd5b813567ffffffffffffffff808211156116e4576116e46116a2565b604051601f8301601f19908116603f0116810190828211818310171561170c5761170c6116a2565b8160405283815286602085880101111561172557600080fd5b836020870160208301376000602085830101528094505050505092915050565b60008060006060848603121561175a57600080fd5b833567ffffffffffffffff8082111561177257600080fd5b61177e878388016116b8565b9450602086013591508082111561179457600080fd5b6117a0878388016116b8565b935060408601359150808211156117b657600080fd5b506117c3868287016116b8565b9150509250925092565b80356001600160a01b03811681146117e457600080fd5b919050565b600080604083850312156117fc57600080fd5b611805836117cd565b946020939093013593505050565b60006020828403121561182557600080fd5b6115da826117cd565b6020808252825182820181905260009190848201906040850190845b818110156118665783518352928401929184019160010161184a565b50909695505050505050565b6000806040838503121561188557600080fd5b82359150611895602084016117cd565b90509250929050565b6020808252600f908201526e125b9d985b1a59081c1bdcdd081251608a1b604082015260600190565b602080825260159082015274141bdcdd081a185cc81899595b8819195b195d1959605a1b604082015260600190565b634e487b7160e01b600052601160045260246000fd5b60008161191b5761191b6118f6565b506000190190565b600181811c9082168061193757607f821691505b602082108103610bd557634e487b7160e01b600052602260045260246000fd5b600060018201611969576119696118f6565b5060010190565b60608152600061198360608301866114f5565b828103602084015261199581866114f5565b905082810360408401526119a981856114f5565b9695505050505050565b634e487b7160e01b600052603260045260246000fd5b601f821115610e7257600081815260208120601f850160051c810160208610156119f05750805b601f850160051c820191505b81811015611a0f578281556001016119fc565b505050505050565b815167ffffffffffffffff811115611a3157611a316116a2565b611a4581611a3f8454611923565b846119c9565b602080601f831160018114611a7a5760008415611a625750858301515b600019600386901b1c1916600185901b178555611a0f565b600085815260208120601f198616915b82811015611aa957888601518255948401946001909101908401611a8a565b5085821015611ac75787850151600019600388901b60f8161c191681555b5050505050600190811b01905550565b608081526000611aea60808301876114f5565b8281036020840152611afc81876114f5565b90508281036040840152611b1081866114f5565b9150508260608301529594505050505056fea2646970667358221220a2019408c94b36bd7e0d5190b3ef83569b143cfd8c19f1e27f1ed1a954184f2664736f6c63430008130033",
  "linkReferences": {},
  "deployedLinkReferences": {}
}