{
  "_format": "hh-sol-artifact-1",
  "contractName": "StreamTipping",
  "sourceName": "contracts/StreamTipping.sol",
  "abi": [
    {
      "inputs": [],
      "stateMutability": "nonpayable",
      "type": "constructor"
    },
    {
      "anonymous": false,
      "inputs": [
        {
          "indexed": true,
          "internalType": "address",
          "name": "streamer",
          "type": "address"
        },
        {
          "indexed": false,
          "internalType": "uint256",
          "name": "amount",
          "type": "uint256"
        }
      ],
      "name": "EarningsWithdrawn",
      "type": "event"
    },
    {
      "anonymous": false,
      "inputs": [
        {
          "indexed": true,
          "internalType": "address",
          "name": "previousOwner",
          "type": "address"
        },
        {
          "indexed": true,
          "internalType": "address",
          "name": "newOwner",
          "type": "address"
        }
      ],
      "name": "OwnershipTransferred",
      "type": "event"
    },
    {
      "anonymous": false,
      "inputs": [
        {
          "indexed": false,
          "internalType": "address",
          "name": "account",
          "type": "address"
        }
      ],
      "name": "Paused",
      "type": "event"
    },
    {
      "anonymous": false,
      "inputs": [
        {
          "indexed": false,
          "internalType": "uint256",
          "name": "newFeePercent",
          "type": "uint256"
        }
      ],
      "name": "PlatformFeeUpdated",
      "type": "event"
    },
    {
      "anonymous": false,
      "inputs": [
        {
          "indexed": false,
          "internalType": "uint256",
          "name": "amount",
          "type": "uint256"
        }
      ],
      "name": "PlatformFeesWithdrawn",
      "type": "event"
    },
    {
      "anonymous": false,
      "inputs": [
        {
          "indexed": true,
          "internalType": "address",
          "name": "tipper",
          "type": "address"
        },
        {
          "indexed": true,
          "internalType": "address",
          "name": "streamer",
          "type": "address"
        },
        {
          "indexed": false,
          "internalType": "uint256",
          "name": "amount",
          "type": "uint256"
        },
        {
          "indexed": false,
          "internalType": "string",
          "name": "message",
          "type": "string"
        },
        {
          "indexed": false,
          "internalType": "string",
          "name": "streamId",
          "type": "string"
        },
        {
          "indexed": false,
          "internalType": "uint256",
          "name": "tipIndex",
          "type": "uint256"
        }
      ],
      "name": "TipSent",
      "type": "event"
    },
    {
      "anonymous": false,
      "inputs": [
        {
          "indexed": false,
          "internalType": "address",
          "name": "account",
          "type": "address"
        }
      ],
      "name": "Unpaused",
      "type": "event"
    },
    {
      "inputs": [],
      "name": "MAX_FEE_PERCENT",
      "outputs": [
        {
          "internalType": "uint256",
          "name": "",
          "type": "uint256"
        }
      ],
      "stateMutability": "view",
      "type": "function"
    },
    {
      "inputs": [],
      "name": "emergencyWithdraw",
      "outputs": [],
      "stateMutability": "nonpayable",
      "type": "function"
    },
    {
      "inputs": [
        {
          "internalType": "uint256",
          "name": "count",
          "type": "uint256"
        }
      ],
      "name": "getRecentTips",
      "outputs": [
        {
          "components": [
            {
              "internalType": "address",
              "name": "tipper",
              "type": "address"
            },
            {
              "internalType": "address",
              "name": "streamer",
              "type": "address"
            },
            {
              "internalType": "uint256",
              "name": "amount",
              "type": "uint256"
            },
            {
              "internalType": "string",
              "name": "message",
              "type": "string"
            },
            {
              "internalType": "uint256",
              "name": "timestamp",
              "type": "uint256"
            },
            {
              "internalType": "string",
              "name": "streamId",
              "type": "string"
            }
          ],
          "internalType": "struct StreamTipping.Tip[]",
          "name": "",
          "type": "tuple[]"
        }
      ],
      "stateMutability": "view",
      "type": "function"
    },
    {
      "inputs": [
        {
          "internalType": "string",
          "name": "streamId",
          "type": "string"
        }
      ],
      "name": "getStreamTotal",
      "outputs": [
        {
          "internalType": "uint256",
          "name": "",
          "type": "uint256"
        }
      ],
      "stateMutability": "view",
      "type": "function"
    },
    {
      "inputs": [
        {
          "internalType": "address",
          "name": "streamer",
          "type": "address"
        }
      ],
      "name": "getStreamerEarnings",
      "outputs": [
        {
          "internalType": "uint256",
          "name": "",
          "type": "uint256"
        }
      ],
      "stateMutability": "view",
      "type": "function"
    },
    {
      "inputs": [
        {
          "internalType": "address",
          "name": "streamer",
          "type": "address"
        }
      ],
      "name": "getStreamerStats",
      "outputs": [
        {
          "internalType": "uint256",
          "name": "totalReceived",
          "type": "uint256"
        },
        {
          "internalType": "uint256",
          "name": "tipCount",
          "type": "uint256"
        },
        {
          "internalType": "uint256",
          "name": "lastTipTime",
          "type": "uint256"
        }
      ],
      "stateMutability": "view",
      "type": "function"
    },
    {
      "inputs": [
        {
          "internalType": "uint256",
          "name": "index",
          "type": "uint256"
        }
      ],
      "name": "getTip",
      "outputs": [
        {
          "internalType": "address",
          "name": "tipper",
          "type": "address"
        },
        {
          "internalType": "address",
          "name": "streamer",
          "type": "address"
        },
        {
          "internalType": "uint256",
          "name": "amount",
          "type": "uint256"
        },
        {
          "internalType": "string",
          "name": "message",
          "type": "string"
        },
        {
          "internalType": "uint256",
          "name": "timestamp",
          "type": "uint256"
        },
        {
          "internalType": "string",
          "name": "streamId",
          "type": "string"
        }
      ],
      "stateMutability": "view",
      "type": "function"
    },
    {
      "inputs": [],
      "name": "getTipsCount",
      "outputs": [
        {
          "internalType": "uint256",
          "name": "",
          "type": "uint256"
        }
      ],
      "stateMutability": "view",
      "type": "function"
    },
    {
      "inputs": [],
      "name": "owner",
      "outputs": [
        {
          "internalType": "address",
          "name": "",
          "type": "address"
        }
      ],
      "stateMutability": "view",
      "type": "function"
    },
    {
      "inputs": [],
      "name": "pause",
      "outputs": [],
      "stateMutability": "nonpayable",
      "type": "function"
    },
    {
      "inputs": [],
      "name": "paused",
      "outputs": [
        {
          "internalType": "bool",
          "name": "",
          "type": "bool"
        }
      ],
      "stateMutability": "view",
      "type": "function"
    },
    {
      "inputs": [],
      "name": "platformFeePercent",
      "outputs": [
        {
          "internalType": "uint256",
          "name": "",
          "type": "uint256"
        }
      ],
      "stateMutability": "view",
      "type": "function"
    },
    {
      "inputs": [],
      "name": "renounceOwnership",
      "outputs": [],
      "stateMutability": "nonpayable",
      "type": "function"
    },
    {
      "inputs": [
        {
          "internalType": "address",
          "name": "streamer",
          "type": "address"
        },
        {
          "internalType": "string",
          "name": "message",
          "type": "string"
        },
        {
          "internalType": "string",
          "name": "streamId",
          "type": "string"
        }
      ],
      "name": "sendTip",
      "outputs": [],
      "stateMutability": "payable",
      "type": "function"
    },
    {
      "inputs": [
        {
          "internalType": "uint256",
          "name": "newFeePercent",
          "type": "uint256"
        }
      ],
      "name": "setPlatformFee",
      "outputs": [],
      "stateMutability": "nonpayable",
      "type": "function"
    },
    {
      "inputs": [
        {
          "internalType": "string",
          "name": "",
          "type": "string"
        }
      ],
      "name": "streamTotals",
      "outputs": [
        {
          "internalType": "uint256",
          "name": "",
          "type": "uint256"
        }
      ],
      "stateMutability": "view",
      "type": "function"
    },
    {
      "inputs": [
        {
          "internalType": "address",
          "name": "",
          "type": "address"
        }
      ],
      "name": "streamerEarnings",
      "outputs": [
        {
          "internalType": "uint256",
          "name": "",
          "type": "uint256"
        }
      ],
      "stateMutability": "view",
      "type": "function"
    },
    {
      "inputs": [
        {
          "internalType": "address",
          "name": "",
          "type": "address"
        }
      ],
      "name": "streamerStats",
      "outputs": [
        {
          "internalType": "uint256",
          "name": "totalReceived",
          "type": "uint256"
        },
        {
          "internalType": "uint256",
          "name": "tipCount",
          "type": "uint256"
        },
        {
          "internalType": "uint256",
          "name": "lastTipTime",
          "type": "uint256"
        }
      ],
      "stateMutability": "view",
      "type": "function"
    },
    {
      "inputs": [
        {
          "internalType": "uint256",
          "name": "",
          "type": "uint256"
        }
      ],
      "name": "tips",
      "outputs": [
        {
          "internalType": "address",
          "name": "tipper",
          "type": "address"
        },
        {
          "internalType": "address",
          "name": "streamer",
          "type": "address"
        },
        {
          "internalType": "uint256",
          "name": "amount",
          "type": "uint256"
        },
        {
          "internalType": "string",
          "name": "message",
          "type": "string"
        },
        {
          "internalType": "uint256",
          "name": "timestamp",
          "type": "uint256"
        },
        {
          "internalType": "string",
          "name": "streamId",
          "type": "string"
        }
      ],
      "stateMutability": "view",
      "type": "function"
    },
    {
      "inputs": [],
      "name": "totalPlatformFees",
      "outputs": [
        {
          "internalType": "uint256",
          "name": "",
          "type": "uint256"
        }
      ],
      "stateMutability": "view",
      "type": "function"
    },
    {
      "inputs": [
        {
          "internalType": "address",
          "name": "newOwner",
          "type": "address"
        }
      ],
      "name": "transferOwnership",
      "outputs": [],
      "stateMutability": "nonpayable",
      "type": "function"
    },
    {
      "inputs": [],
      "name": "unpause",
      "outputs": [],
      "stateMutability": "nonpayable",
      "type": "function"
    },
    {
      "inputs": [],
      "name": "withdrawEarnings",
      "outputs": [],
      "stateMutability": "nonpayable",
      "type": "function"
    },
    {
      "inputs": [],
      "name": "withdrawPlatformFees",
      "outputs": [],
      "stateMutability": "nonpayable",
      "type": "function"
    }
  ],
  "bytecode": "0x608060405260fa60065534801561001557600080fd5b50600160005561002433610036565b6001805460ff60a01b19169055610088565b600180546001600160a01b038381166001600160a01b0319831681179093556040519116919082907f8be0079c531659141344cd1fd0a4f28419497f9722a3daafe3b4186f6b6457e090600090a35050565b611c0a806100976000396000f3fe60806040526004361061014b5760003560e01c806386fb40d2116100b6578063a5c68c591161006f578063a5c68c591461043a578063b73c6ce91461045a578063d0b7830b1461046f578063d3631fa514610484578063db2e21bc1461049a578063f2fde38b146104af57600080fd5b806386fb40d2146103645780638955a212146103845780638c639a85146103ba5780638da5cb5b146103d0578063a0d1fe42146103f8578063a12247b01461042557600080fd5b80633f4ba83a116101085780633f4ba83a146102b35780635b703f5c146102c85780635c975abb146102fa57806367d8174014610324578063715018a61461033a5780638456cb591461034f57600080fd5b80630161b9d714610150578063122fd6b11461019057806312e8e2c3146101e757806314b892b3146102095780632c2dbf5c1461021c5780633d56b1b61461027b575b600080fd5b34801561015c57600080fd5b5061017d61016b366004611691565b60026020526000908152604090205481565b6040519081526020015b60405180910390f35b34801561019c57600080fd5b506101cc6101ab366004611691565b60036020526000908152604090208054600182015460029092015490919083565b60408051938452602084019290925290820152606001610187565b3480156101f357600080fd5b506102076102023660046116b3565b6104cf565b005b61020761021736600461176f565b610558565b34801561022857600080fd5b506101cc610237366004611691565b6001600160a01b0316600090815260036020908152604091829020825160608101845281548082526001830154938201849052600290920154930183905292909190565b34801561028757600080fd5b5061017d6102963660046117e3565b805160208183018101805160048252928201919093012091525481565b3480156102bf57600080fd5b50610207610983565b3480156102d457600080fd5b506102e86102e33660046116b3565b610995565b60405161018796959493929190611870565b34801561030657600080fd5b50600154600160a01b900460ff166040519015158152602001610187565b34801561033057600080fd5b5061017d6103e881565b34801561034657600080fd5b50610207610bb4565b34801561035b57600080fd5b50610207610bc6565b34801561037057600080fd5b5061017d61037f3660046117e3565b610bd6565b34801561039057600080fd5b5061017d61039f366004611691565b6001600160a01b031660009081526002602052604090205490565b3480156103c657600080fd5b5061017d60065481565b3480156103dc57600080fd5b506001546040516001600160a01b039091168152602001610187565b34801561040457600080fd5b506104186104133660046116b3565b610bfe565b60405161018791906118c8565b34801561043157600080fd5b5060055461017d565b34801561044657600080fd5b506102e86104553660046116b3565b610e94565b34801561046657600080fd5b50610207610ffc565b34801561047b57600080fd5b5061020761113d565b34801561049057600080fd5b5061017d60075481565b3480156104a657600080fd5b50610207611275565b3480156104bb57600080fd5b506102076104ca366004611691565b61137a565b6104d76113f3565b6103e881111561051d5760405162461bcd60e51b815260206004820152600c60248201526b08ccaca40e8dede40d0d2ced60a31b60448201526064015b60405180910390fd5b60068190556040518181527f45610d581145924dd7090a5017e5f2b1d6f42213bb2e95707ff86846bbfcb1ca9060200160405180910390a150565b61056061144d565b6105686114a6565b600034116105c25760405162461bcd60e51b815260206004820152602160248201527f54697020616d6f756e74206d7573742062652067726561746572207468616e206044820152600360fc1b6064820152608401610514565b6001600160a01b0383166106185760405162461bcd60e51b815260206004820152601860248201527f496e76616c69642073747265616d6572206164647265737300000000000000006044820152606401610514565b336001600160a01b038416036106665760405162461bcd60e51b815260206004820152601360248201527221b0b73737ba103a34b8103cb7bab939b2b63360691b6044820152606401610514565b60008151116106ac5760405162461bcd60e51b815260206004820152601260248201527114dd1c99585b481251081c995c5d5a5c995960721b6044820152606401610514565b6006543490600090612710906106c2908461199f565b6106cc91906119bc565b905060006106da82846119de565b6001600160a01b0387166000908152600260205260408120805492935083929091906107079084906119f1565b90915550506001600160a01b038616600090815260036020526040812080548392906107349084906119f1565b90915550506001600160a01b038616600090815260036020526040812060019081018054919290916107679084906119f1565b90915550506001600160a01b038616600090815260036020526040908190204260029091015551819060049061079e908790611a04565b908152602001604051809103902060008282546107bb91906119f1565b9250508190555081600760008282546107d491906119f1565b90915550506040805160c0810182523381526001600160a01b03888116602083019081529282018481526060830189815242608085015260a0840189905260058054600181018255600091909152845160069091027f036b6384b5eca791c62761152d0c79bb0604c104a5fb6f4eb0703f3154bb3db0810180549286166001600160a01b031993841617815596517f036b6384b5eca791c62761152d0c79bb0604c104a5fb6f4eb0703f3154bb3db1820180549190961692169190911790935590517f036b6384b5eca791c62761152d0c79bb0604c104a5fb6f4eb0703f3154bb3db2830155519192917f036b6384b5eca791c62761152d0c79bb0604c104a5fb6f4eb0703f3154bb3db3909101906108ed9082611aa8565b506080820151600482015560a0820151600582019061090c9082611aa8565b505050856001600160a01b0316336001600160a01b03167fd437f933387ae3ef2204a5334ba28481d6c1cb2df84074379d6ffcc9d6c7704e838888600160058054905061095991906119de565b6040516109699493929190611b68565b60405180910390a350505061097e6001600055565b505050565b61098b6113f3565b6109936114f3565b565b600080600060606000606060058054905087106109f45760405162461bcd60e51b815260206004820152601760248201527f54697020696e646578206f7574206f6620626f756e64730000000000000000006044820152606401610514565b600060058881548110610a0957610a09611ba5565b60009182526020918290206040805160c081018252600690930290910180546001600160a01b03908116845260018201541693830193909352600283015490820152600382018054919291606084019190610a6390611a20565b80601f0160208091040260200160405190810160405280929190818152602001828054610a8f90611a20565b8015610adc5780601f10610ab157610100808354040283529160200191610adc565b820191906000526020600020905b815481529060010190602001808311610abf57829003601f168201915b5050505050815260200160048201548152602001600582018054610aff90611a20565b80601f0160208091040260200160405190810160405280929190818152602001828054610b2b90611a20565b8015610b785780601f10610b4d57610100808354040283529160200191610b78565b820191906000526020600020905b815481529060010190602001808311610b5b57829003601f168201915b5050509190925250508151602083015160408401516060850151608086015160a090960151939e929d50909b5099509297509550909350505050565b610bbc6113f3565b6109936000611548565b610bce6113f3565b61099361159a565b6000600482604051610be89190611a04565b9081526020016040518091039020549050919050565b6005546060906000819003610c46576040805160008082526020820190925290610c3e565b610c2b61162d565b815260200190600190039081610c235790505b509392505050565b6000818411610c555783610c57565b815b905060008167ffffffffffffffff811115610c7457610c746116cc565b604051908082528060200260200182016040528015610cad57816020015b610c9a61162d565b815260200190600190039081610c925790505b50905060005b82811015610e8b57600581610cc96001876119de565b610cd391906119de565b81548110610ce357610ce3611ba5565b60009182526020918290206040805160c081018252600690930290910180546001600160a01b03908116845260018201541693830193909352600283015490820152600382018054919291606084019190610d3d90611a20565b80601f0160208091040260200160405190810160405280929190818152602001828054610d6990611a20565b8015610db65780601f10610d8b57610100808354040283529160200191610db6565b820191906000526020600020905b815481529060010190602001808311610d9957829003601f168201915b5050505050815260200160048201548152602001600582018054610dd990611a20565b80601f0160208091040260200160405190810160405280929190818152602001828054610e0590611a20565b8015610e525780601f10610e2757610100808354040283529160200191610e52565b820191906000526020600020905b815481529060010190602001808311610e3557829003601f168201915b505050505081525050828281518110610e6d57610e6d611ba5565b60200260200101819052508080610e8390611bbb565b915050610cb3565b50949350505050565b60058181548110610ea457600080fd5b600091825260209091206006909102018054600182015460028301546003840180546001600160a01b039485169650929093169390929091610ee590611a20565b80601f0160208091040260200160405190810160405280929190818152602001828054610f1190611a20565b8015610f5e5780601f10610f3357610100808354040283529160200191610f5e565b820191906000526020600020905b815481529060010190602001808311610f4157829003601f168201915b505050505090806004015490806005018054610f7990611a20565b80601f0160208091040260200160405190810160405280929190818152602001828054610fa590611a20565b8015610ff25780601f10610fc757610100808354040283529160200191610ff2565b820191906000526020600020905b815481529060010190602001808311610fd557829003601f168201915b5050505050905086565b61100461144d565b33600090815260026020526040902054806110615760405162461bcd60e51b815260206004820152601760248201527f4e6f206561726e696e677320746f2077697468647261770000000000000000006044820152606401610514565b336000818152600260205260408082208290555190919083908381818185875af1925050503d80600081146110b2576040519150601f19603f3d011682016040523d82523d6000602084013e6110b7565b606091505b50509050806110fc5760405162461bcd60e51b815260206004820152601160248201527015da5d1a191c985dd85b0819985a5b1959607a1b6044820152606401610514565b60405182815233907f48dc35af7b45e2a81fffad55f6e2fafacdb1d3d0d50d24ebdc16324f5ba757f19060200160405180910390a250506109936001600055565b6111456113f3565b600754806111955760405162461bcd60e51b815260206004820152601c60248201527f4e6f20706c6174666f726d206665657320746f207769746864726177000000006044820152606401610514565b600060078190556001546040516001600160a01b039091169083908381818185875af1925050503d80600081146111e8576040519150601f19603f3d011682016040523d82523d6000602084013e6111ed565b606091505b505090508061123e5760405162461bcd60e51b815260206004820152601e60248201527f506c6174666f726d20666565207769746864726177616c206661696c656400006044820152606401610514565b6040518281527f9870c8023baa016ac002ddfa7cdad341155acddddee3032c07d4baa4947ae6439060200160405180910390a15050565b61127d6113f3565b47806112c25760405162461bcd60e51b81526020600482015260146024820152734e6f2066756e647320746f20776974686472617760601b6044820152606401610514565b60006112d66001546001600160a01b031690565b6001600160a01b03168260405160006040518083038185875af1925050503d8060008114611320576040519150601f19603f3d011682016040523d82523d6000602084013e611325565b606091505b50509050806113765760405162461bcd60e51b815260206004820152601b60248201527f456d657267656e6379207769746864726177616c206661696c656400000000006044820152606401610514565b5050565b6113826113f3565b6001600160a01b0381166113e75760405162461bcd60e51b815260206004820152602660248201527f4f776e61626c653a206e6577206f776e657220697320746865207a65726f206160448201526564647265737360d01b6064820152608401610514565b6113f081611548565b50565b6001546001600160a01b031633146109935760405162461bcd60e51b815260206004820181905260248201527f4f776e61626c653a2063616c6c6572206973206e6f7420746865206f776e65726044820152606401610514565b60026000540361149f5760405162461bcd60e51b815260206004820152601f60248201527f5265656e7472616e637947756172643a207265656e7472616e742063616c6c006044820152606401610514565b6002600055565b600154600160a01b900460ff16156109935760405162461bcd60e51b815260206004820152601060248201526f14185d5cd8589b194e881c185d5cd95960821b6044820152606401610514565b6114fb6115dd565b6001805460ff60a01b191690557f5db9ee0a495bf2e6ff9c91a7834c1ba4fdd244a5e8aa4e537bd38aeae4b073aa335b6040516001600160a01b03909116815260200160405180910390a1565b600180546001600160a01b038381166001600160a01b0319831681179093556040519116919082907f8be0079c531659141344cd1fd0a4f28419497f9722a3daafe3b4186f6b6457e090600090a35050565b6115a26114a6565b6001805460ff60a01b1916600160a01b1790557f62e78cea01bee320cd4e420270b5ea74000d11b0c9f74754ebdbfc544b05a25861152b3390565b600154600160a01b900460ff166109935760405162461bcd60e51b815260206004820152601460248201527314185d5cd8589b194e881b9bdd081c185d5cd95960621b6044820152606401610514565b6040518060c0016040528060006001600160a01b0316815260200160006001600160a01b03168152602001600081526020016060815260200160008152602001606081525090565b80356001600160a01b038116811461168c57600080fd5b919050565b6000602082840312156116a357600080fd5b6116ac82611675565b9392505050565b6000602082840312156116c557600080fd5b5035919050565b634e487b7160e01b600052604160045260246000fd5b600082601f8301126116f357600080fd5b813567ffffffffffffffff8082111561170e5761170e6116cc565b604051601f8301601f19908116603f01168101908282118183101715611736576117366116cc565b8160405283815286602085880101111561174f57600080fd5b836020870160208301376000602085830101528094505050505092915050565b60008060006060848603121561178457600080fd5b61178d84611675565b9250602084013567ffffffffffffffff808211156117aa57600080fd5b6117b6878388016116e2565b935060408601359150808211156117cc57600080fd5b506117d9868287016116e2565b9150509250925092565b6000602082840312156117f557600080fd5b813567ffffffffffffffff81111561180c57600080fd5b611818848285016116e2565b949350505050565b60005b8381101561183b578181015183820152602001611823565b50506000910152565b6000815180845261185c816020860160208601611820565b601f01601f19169290920160200192915050565b6001600160a01b038781168252861660208201526040810185905260c0606082018190526000906118a390830186611844565b84608084015282810360a08401526118bb8185611844565b9998505050505050505050565b60006020808301818452808551808352604092508286019150828160051b87010184880160005b8381101561197b57888303603f19018552815180516001600160a01b039081168552888201511688850152868101518785015260608082015160c0828701819052919061193e83880182611844565b92505050608080830151818701525060a080830151925085820381870152506119678183611844565b9689019694505050908601906001016118ef565b509098975050505050505050565b634e487b7160e01b600052601160045260246000fd5b80820281158282048414176119b6576119b6611989565b92915050565b6000826119d957634e487b7160e01b600052601260045260246000fd5b500490565b818103818111156119b6576119b6611989565b808201808211156119b6576119b6611989565b60008251611a16818460208701611820565b9190910192915050565b600181811c90821680611a3457607f821691505b602082108103611a5457634e487b7160e01b600052602260045260246000fd5b50919050565b601f82111561097e57600081815260208120601f850160051c81016020861015611a815750805b601f850160051c820191505b81811015611aa057828155600101611a8d565b505050505050565b815167ffffffffffffffff811115611ac257611ac26116cc565b611ad681611ad08454611a20565b84611a5a565b602080601f831160018114611b0b5760008415611af35750858301515b600019600386901b1c1916600185901b178555611aa0565b600085815260208120601f198616915b82811015611b3a57888601518255948401946001909101908401611b1b565b5085821015611b585787850151600019600388901b60f8161c191681555b5050505050600190811b01905550565b848152608060208201526000611b816080830186611844565b8281036040840152611b938186611844565b91505082606083015295945050505050565b634e487b7160e01b600052603260045260246000fd5b600060018201611bcd57611bcd611989565b506001019056fea264697066735822122087db16abcb8543d6f056e49178e10231c85874952cc671c55b9f6ea3c6cf825664736f6c63430008130033",
  "linkReferences": {},
  "deployedLinkReferences": {}
}