{
  "_format": "hh-sol-artifact-1",
  "contractName": "Adjudicator",
  "sourceName": "src/contracts/Adjudicator.sol",
  "abi": [
    {
      "inputs": [
        {
          "components": [
            {
              "internalType": "address[]",
              "name": "participants",
              "type": "address[]"
            },
            {
              "internalType": "address",
              "name": "adjudicator",
              "type": "address"
            },
            {
              "internalType": "uint256",
              "name": "challenge",
              "type": "uint256"
            },
            {
              "internalType": "uint256",
              "name": "nonce",
              "type": "uint256"
            }
          ],
          "internalType": "struct Channel",
          "name": "channel",
          "type": "tuple"
        },
        {
          "components": [
            {
              "internalType": "enum StateIntent",
              "name": "intent",
              "type": "uint8"
            },
            {
              "internalType": "uint256",
              "name": "version",
              "type": "uint256"
            },
            {
              "internalType": "bytes",
              "name": "data",
              "type": "bytes"
            },
            {
              "components": [
                {
                  "internalType": "address",
                  "name": "destination",
                  "type": "address"
                },
                {
                  "internalType": "address",
                  "name": "token",
                  "type": "address"
                },
                {
                  "internalType": "uint256",
                  "name": "amount",
                  "type": "uint256"
                }
              ],
              "internalType": "struct Allocation[]",
              "name": "allocations",
              "type": "tuple[]"
            },
            {
              "internalType": "bytes[]",
              "name": "sigs",
              "type": "bytes[]"
            }
          ],
          "internalType": "struct State",
          "name": "candidate",
          "type": "tuple"
        },
        {
          "components": [
            {
              "internalType": "enum StateIntent",
              "name": "intent",
              "type": "uint8"
            },
            {
              "internalType": "uint256",
              "name": "version",
              "type": "uint256"
            },
            {
              "internalType": "bytes",
              "name": "data",
              "type": "bytes"
            },
            {
              "components": [
                {
                  "internalType": "address",
                  "name": "destination",
                  "type": "address"
                },
                {
                  "internalType": "address",
                  "name": "token",
                  "type": "address"
                },
                {
                  "internalType": "uint256",
                  "name": "amount",
                  "type": "uint256"
                }
              ],
              "internalType": "struct Allocation[]",
              "name": "allocations",
              "type": "tuple[]"
            },
            {
              "internalType": "bytes[]",
              "name": "sigs",
              "type": "bytes[]"
            }
          ],
          "internalType": "struct State[]",
          "name": "proofs",
          "type": "tuple[]"
        }
      ],
      "name": "adjudicate",
      "outputs": [
        {
          "internalType": "bool",
          "name": "",
          "type": "bool"
        }
      ],
      "stateMutability": "pure",
      "type": "function"
    },
    {
      "inputs": [
        {
          "components": [
            {
              "internalType": "enum StateIntent",
              "name": "intent",
              "type": "uint8"
            },
            {
              "internalType": "uint256",
              "name": "version",
              "type": "uint256"
            },
            {
              "internalType": "bytes",
              "name": "data",
              "type": "bytes"
            },
            {
              "components": [
                {
                  "internalType": "address",
                  "name": "destination",
                  "type": "address"
                },
                {
                  "internalType": "address",
                  "name": "token",
                  "type": "address"
                },
                {
                  "internalType": "uint256",
                  "name": "amount",
                  "type": "uint256"
                }
              ],
              "internalType": "struct Allocation[]",
              "name": "allocations",
              "type": "tuple[]"
            },
            {
              "internalType": "bytes[]",
              "name": "sigs",
              "type": "bytes[]"
            }
          ],
          "internalType": "struct State",
          "name": "candidate",
          "type": "tuple"
        },
        {
          "components": [
            {
              "internalType": "enum StateIntent",
              "name": "intent",
              "type": "uint8"
            },
            {
              "internalType": "uint256",
              "name": "version",
              "type": "uint256"
            },
            {
              "internalType": "bytes",
              "name": "data",
              "type": "bytes"
            },
            {
              "components": [
                {
                  "internalType": "address",
                  "name": "destination",
                  "type": "address"
                },
                {
                  "internalType": "address",
                  "name": "token",
                  "type": "address"
                },
                {
                  "internalType": "uint256",
                  "name": "amount",
                  "type": "uint256"
                }
              ],
              "internalType": "struct Allocation[]",
              "name": "allocations",
              "type": "tuple[]"
            },
            {
              "internalType": "bytes[]",
              "name": "sigs",
              "type": "bytes[]"
            }
          ],
          "internalType": "struct State",
          "name": "previous",
          "type": "tuple"
        }
      ],
      "name": "compare",
      "outputs": [
        {
          "internalType": "int8",
          "name": "",
          "type": "int8"
        }
      ],
      "stateMutability": "pure",
      "type": "function"
    }
  ],
  "bytecode": "0x6080604052348015600f57600080fd5b5061075d8061001f6000396000f3fe608060405234801561001057600080fd5b50600436106100365760003560e01c806306b4a5be1461003b5780637f7d6ab514610063575b600080fd5b61004e61004936600461055c565b610089565b60405190151581526020015b60405180910390f35b6100766100713660046106aa565b610146565b60405160009190910b815260200161005a565b60008260600151516002146100a05750600061013f565b6000835160038111156100b5576100b5610711565b036100c6575060208201511561013f565b6001835160038111156100db576100db610711565b036100ed57506020820151151561013f565b60028351600381111561010257610102610711565b0361011457506020820151151561013f565b60038351600381111561012957610129610711565b0361013b57506020820151151561013f565b5060005b9392505050565b60008160200151836020015111156101605750600161017c565b81602001518360200151036101775750600061017c565b506000195b92915050565b634e487b7160e01b600052604160045260246000fd5b604051606081016001600160401b03811182821017156101ba576101ba610182565b60405290565b60405160a081016001600160401b03811182821017156101ba576101ba610182565b604051608081016001600160401b03811182821017156101ba576101ba610182565b604051601f8201601f191681016001600160401b038111828210171561022c5761022c610182565b604052919050565b60006001600160401b0382111561024d5761024d610182565b5060051b60200190565b80356001600160a01b038116811461026e57600080fd5b919050565b80356004811061026e57600080fd5b600082601f83011261029357600080fd5b81356001600160401b038111156102ac576102ac610182565b6102bf601f8201601f1916602001610204565b8181528460208386010111156102d457600080fd5b816020850160208301376000918101602001919091529392505050565b600082601f83011261030257600080fd5b813561031561031082610234565b610204565b8082825260208201915060206060840286010192508583111561033757600080fd5b602085015b83811015610396576060818803121561035457600080fd5b61035c610198565b61036582610257565b815261037360208301610257565b60208281019190915260408381013590830152908452929092019160600161033c565b5095945050505050565b600082601f8301126103b157600080fd5b81356103bf61031082610234565b8082825260208201915060208360051b8601019250858311156103e157600080fd5b602085015b838110156103965780356001600160401b0381111561040457600080fd5b610413886020838a0101610282565b845250602092830192016103e6565b600060a0828403121561043457600080fd5b61043c6101c0565b905061044782610273565b81526020828101359082015260408201356001600160401b0381111561046c57600080fd5b61047884828501610282565b60408301525060608201356001600160401b0381111561049757600080fd5b6104a3848285016102f1565b60608301525060808201356001600160401b038111156104c257600080fd5b6104ce848285016103a0565b60808301525092915050565b600082601f8301126104eb57600080fd5b81356104f961031082610234565b8082825260208201915060208360051b86010192508583111561051b57600080fd5b602085015b838110156103965780356001600160401b0381111561053e57600080fd5b61054d886020838a0101610422565b84525060209283019201610520565b60008060006060848603121561057157600080fd5b83356001600160401b0381111561058757600080fd5b84016080818703121561059957600080fd5b6105a16101e2565b81356001600160401b038111156105b757600080fd5b8201601f810188136105c857600080fd5b80356105d661031082610234565b8082825260208201915060208360051b85010192508a8311156105f857600080fd5b6020840193505b828410156106215761061084610257565b8252602093840193909101906105ff565b84525061063391505060208301610257565b602082810191909152604083810135908301526060928301359282019290925293508401356001600160401b0381111561066c57600080fd5b61067886828701610422565b92505060408401356001600160401b0381111561069457600080fd5b6106a0868287016104da565b9150509250925092565b600080604083850312156106bd57600080fd5b82356001600160401b038111156106d357600080fd5b6106df85828601610422565b92505060208301356001600160401b038111156106fb57600080fd5b61070785828601610422565b9150509250929050565b634e487b7160e01b600052602160045260246000fdfea2646970667358221220700417dba93e822c5d0204dc860ef540c8ed78cf73946657c60e066442c0317164736f6c634300081a0033",
  "linkReferences": {},
  "deployedLinkReferences": {}
}