{
  "_format": "hh-sol-artifact-1",
  "contractName": "SimplePostRegistry",
  "sourceName": "contracts/SimplePostRegistry.sol",
  "abi": [
    {
      "inputs": [],
      "stateMutability": "nonpayable",
      "type": "constructor"
    },
    {
      "anonymous": false,
      "inputs": [
        {
          "indexed": true,
          "internalType": "uint256",
          "name": "postId",
          "type": "uint256"
        },
        {
          "indexed": true,
          "internalType": "address",
          "name": "author",
          "type": "address"
        },
        {
          "indexed": false,
          "internalType": "string",
          "name": "content",
          "type": "string"
        }
      ],
      "name": "PostCreated",
      "type": "event"
    },
    {
      "anonymous": false,
      "inputs": [
        {
          "indexed": true,
          "internalType": "uint256",
          "name": "postId",
          "type": "uint256"
        },
        {
          "indexed": true,
          "internalType": "address",
          "name": "liker",
          "type": "address"
        }
      ],
      "name": "PostLiked",
      "type": "event"
    },
    {
      "inputs": [
        {
          "internalType": "string",
          "name": "_content",
          "type": "string"
        },
        {
          "internalType": "string",
          "name": "_mediaIpfs",
          "type": "string"
        },
        {
          "internalType": "string",
          "name": "_gameCategory",
          "type": "string"
        }
      ],
      "name": "createPost",
      "outputs": [],
      "stateMutability": "payable",
      "type": "function"
    },
    {
      "inputs": [
        {
          "internalType": "uint256",
          "name": "_postId",
          "type": "uint256"
        }
      ],
      "name": "getPost",
      "outputs": [
        {
          "components": [
            {
              "internalType": "uint256",
              "name": "id",
              "type": "uint256"
            },
            {
              "internalType": "address",
              "name": "author",
              "type": "address"
            },
            {
              "internalType": "string",
              "name": "content",
              "type": "string"
            },
            {
              "internalType": "string",
              "name": "mediaIpfs",
              "type": "string"
            },
            {
              "internalType": "string",
              "name": "gameCategory",
              "type": "string"
            },
            {
              "internalType": "uint256",
              "name": "timestamp",
              "type": "uint256"
            },
            {
              "internalType": "bool",
              "name": "isDeleted",
              "type": "bool"
            },
            {
              "internalType": "uint256",
              "name": "likesCount",
              "type": "uint256"
            },
            {
              "internalType": "uint256",
              "name": "commentsCount",
              "type": "uint256"
            }
          ],
          "internalType": "struct SimplePostRegistry.Post",
          "name": "",
          "type": "tuple"
        }
      ],
      "stateMutability": "view",
      "type": "function"
    },
    {
      "inputs": [
        {
          "internalType": "uint256",
          "name": "_count",
          "type": "uint256"
        }
      ],
      "name": "getRecentPosts",
      "outputs": [
        {
          "internalType": "uint256[]",
          "name": "",
          "type": "uint256[]"
        }
      ],
      "stateMutability": "view",
      "type": "function"
    },
    {
      "inputs": [],
      "name": "getTotalPosts",
      "outputs": [
        {
          "internalType": "uint256",
          "name": "",
          "type": "uint256"
        }
      ],
      "stateMutability": "view",
      "type": "function"
    },
    {
      "inputs": [
        {
          "internalType": "address",
          "name": "_user",
          "type": "address"
        }
      ],
      "name": "getUserPosts",
      "outputs": [
        {
          "internalType": "uint256[]",
          "name": "",
          "type": "uint256[]"
        }
      ],
      "stateMutability": "view",
      "type": "function"
    },
    {
      "inputs": [
        {
          "internalType": "uint256",
          "name": "_postId",
          "type": "uint256"
        },
        {
          "internalType": "address",
          "name": "_user",
          "type": "address"
        }
      ],
      "name": "hasUserLikedPost",
      "outputs": [
        {
          "internalType": "bool",
          "name": "",
          "type": "bool"
        }
      ],
      "stateMutability": "view",
      "type": "function"
    },
    {
      "inputs": [],
      "name": "owner",
      "outputs": [
        {
          "internalType": "address",
          "name": "",
          "type": "address"
        }
      ],
      "stateMutability": "view",
      "type": "function"
    },
    {
      "inputs": [],
      "name": "postFee",
      "outputs": [
        {
          "internalType": "uint256",
          "name": "",
          "type": "uint256"
        }
      ],
      "stateMutability": "view",
      "type": "function"
    },
    {
      "inputs": [
        {
          "internalType": "uint256",
          "name": "",
          "type": "uint256"
        },
        {
          "internalType": "address",
          "name": "",
          "type": "address"
        }
      ],
      "name": "postLikes",
      "outputs": [
        {
          "internalType": "bool",
          "name": "",
          "type": "bool"
        }
      ],
      "stateMutability": "view",
      "type": "function"
    },
    {
      "inputs": [
        {
          "internalType": "uint256",
          "name": "",
          "type": "uint256"
        }
      ],
      "name": "posts",
      "outputs": [
        {
          "internalType": "uint256",
          "name": "id",
          "type": "uint256"
        },
        {
          "internalType": "address",
          "name": "author",
          "type": "address"
        },
        {
          "internalType": "string",
          "name": "content",
          "type": "string"
        },
        {
          "internalType": "string",
          "name": "mediaIpfs",
          "type": "string"
        },
        {
          "internalType": "string",
          "name": "gameCategory",
          "type": "string"
        },
        {
          "internalType": "uint256",
          "name": "timestamp",
          "type": "uint256"
        },
        {
          "internalType": "bool",
          "name": "isDeleted",
          "type": "bool"
        },
        {
          "internalType": "uint256",
          "name": "likesCount",
          "type": "uint256"
        },
        {
          "internalType": "uint256",
          "name": "commentsCount",
          "type": "uint256"
        }
      ],
      "stateMutability": "view",
      "type": "function"
    },
    {
      "inputs": [
        {
          "internalType": "uint256",
          "name": "_newFee",
          "type": "uint256"
        }
      ],
      "name": "setPostFee",
      "outputs": [],
      "stateMutability": "nonpayable",
      "type": "function"
    },
    {
      "inputs": [
        {
          "internalType": "uint256",
          "name": "_postId",
          "type": "uint256"
        }
      ],
      "name": "toggleLike",
      "outputs": [],
      "stateMutability": "nonpayable",
      "type": "function"
    },
    {
      "inputs": [
        {
          "internalType": "address",
          "name": "",
          "type": "address"
        },
        {
          "internalType": "uint256",
          "name": "",
          "type": "uint256"
        }
      ],
      "name": "userPosts",
      "outputs": [
        {
          "internalType": "uint256",
          "name": "",
          "type": "uint256"
        }
      ],
      "stateMutability": "view",
      "type": "function"
    },
    {
      "inputs": [],
      "name": "withdraw",
      "outputs": [],
      "stateMutability": "nonpayable",
      "type": "function"
    }
  ],
  "bytecode": "0x6080604052600060035566038d7ea4c6800060045534801561002057600080fd5b50600580546001600160a01b03191633179055611500806100426000396000f3fe6080604052600436106100dd5760003560e01c80638da5cb5b1161007f578063ca1f0cad11610059578063ca1f0cad14610268578063e8a4a1eb146102b3578063f2a43db8146102c6578063fcf7becf1461030c57600080fd5b80638da5cb5b146101e35780639a2194a91461021b578063c66a7ca71461024857600080fd5b806340731c24116100bb57806340731c241461015757806354398d18146101845780635fe226b4146101a45780638064d149146101c357600080fd5b80630b1e7f83146100e257806326eb4ca8146101205780633ccfd60b14610142575b600080fd5b3480156100ee57600080fd5b506101026100fd366004610f31565b610322565b60405161011799989796959493929190610f90565b60405180910390f35b34801561012c57600080fd5b5061014061013b366004610f31565b610510565b005b34801561014e57600080fd5b50610140610548565b34801561016357600080fd5b50610177610172366004610f31565b610652565b604051610117919061100d565b34801561019057600080fd5b5061014061019f366004610f31565b61091f565b3480156101b057600080fd5b506003545b604051908152602001610117565b3480156101cf57600080fd5b506101b56101de3660046110ea565b610aa0565b3480156101ef57600080fd5b50600554610203906001600160a01b031681565b6040516001600160a01b039091168152602001610117565b34801561022757600080fd5b5061023b610236366004611114565b610ad1565b6040516101179190611136565b34801561025457600080fd5b5061023b610263366004610f31565b610b3d565b34801561027457600080fd5b506102a361028336600461117a565b600160209081526000928352604080842090915290825290205460ff1681565b6040519015158152602001610117565b6101406102c1366004611249565b610ce4565b3480156102d257600080fd5b506102a36102e136600461117a565b60009182526001602090815260408084206001600160a01b0393909316845291905290205460ff1690565b34801561031857600080fd5b506101b560045481565b60006020819052908152604090208054600182015460028301805492936001600160a01b0390921692610354906112d1565b80601f0160208091040260200160405190810160405280929190818152602001828054610380906112d1565b80156103cd5780601f106103a2576101008083540402835291602001916103cd565b820191906000526020600020905b8154815290600101906020018083116103b057829003601f168201915b5050505050908060030180546103e2906112d1565b80601f016020809104026020016040519081016040528092919081815260200182805461040e906112d1565b801561045b5780601f106104305761010080835404028352916020019161045b565b820191906000526020600020905b81548152906001019060200180831161043e57829003601f168201915b505050505090806004018054610470906112d1565b80601f016020809104026020016040519081016040528092919081815260200182805461049c906112d1565b80156104e95780601f106104be576101008083540402835291602001916104e9565b820191906000526020600020905b8154815290600101906020018083116104cc57829003601f168201915b505050506005830154600684015460078501546008909501549394919360ff909116925089565b6005546001600160a01b031633146105435760405162461bcd60e51b815260040161053a9061130b565b60405180910390fd5b600455565b6005546001600160a01b031633146105725760405162461bcd60e51b815260040161053a9061130b565b47806105b75760405162461bcd60e51b81526020600482015260146024820152734e6f2066756e647320746f20776974686472617760601b604482015260640161053a565b6005546040516000916001600160a01b03169083908381818185875af1925050503d8060008114610604576040519150601f19603f3d011682016040523d82523d6000602084013e610609565b606091505b505090508061064e5760405162461bcd60e51b815260206004820152601160248201527015da5d1a191c985dd85b0819985a5b1959607a1b604482015260640161053a565b5050565b6106ac6040518061012001604052806000815260200160006001600160a01b031681526020016060815260200160608152602001606081526020016000815260200160001515815260200160008152602001600081525090565b6000821180156106be57506003548211155b6106fc5760405162461bcd60e51b815260206004820152600f60248201526e125b9d985b1a59081c1bdcdd081251608a1b604482015260640161053a565b600082815260208181526040918290208251610120810184528154815260018201546001600160a01b0316928101929092526002810180549293919291840191610745906112d1565b80601f0160208091040260200160405190810160405280929190818152602001828054610771906112d1565b80156107be5780601f10610793576101008083540402835291602001916107be565b820191906000526020600020905b8154815290600101906020018083116107a157829003601f168201915b505050505081526020016003820180546107d7906112d1565b80601f0160208091040260200160405190810160405280929190818152602001828054610803906112d1565b80156108505780601f1061082557610100808354040283529160200191610850565b820191906000526020600020905b81548152906001019060200180831161083357829003601f168201915b50505050508152602001600482018054610869906112d1565b80601f0160208091040260200160405190810160405280929190818152602001828054610895906112d1565b80156108e25780601f106108b7576101008083540402835291602001916108e2565b820191906000526020600020905b8154815290600101906020018083116108c557829003601f168201915b505050918352505060058201546020820152600682015460ff16151560408201526007820154606082015260089091015460809091015292915050565b60008111801561093157506003548111155b61096f5760405162461bcd60e51b815260206004820152600f60248201526e125b9d985b1a59081c1bdcdd081251608a1b604482015260640161053a565b60008181526020819052604090206006015460ff16156109c95760405162461bcd60e51b8152602060048201526015602482015274141bdcdd081a185cc81899595b8819195b195d1959605a1b604482015260640161053a565b600081815260016020908152604080832033845290915290205460ff1615610a2e5760008181526001602090815260408083203384528252808320805460ff19169055838352908290528120600701805491610a2483611362565b9190505550610a70565b60008181526001602081815260408084203385528252808420805460ff19169093179092558383528290528120600701805491610a6a83611379565b91905055505b604051339082907fcf765d6f163c9b0d832e2a94f4c8e9bffd32a2c3ca5fdbb8cc67b5fe1441f41390600090a350565b60026020528160005260406000208181548110610abc57600080fd5b90600052602060002001600091509150505481565b6001600160a01b038116600090815260026020908152604091829020805483518184028101840190945280845260609392830182828015610b3157602002820191906000526020600020905b815481526020019060010190808311610b1d575b50505050509050919050565b6003546060906000819003610b62575050604080516000815260208101909152919050565b6000818411610b715783610b73565b815b905060008167ffffffffffffffff811115610b9057610b906111a6565b604051908082528060200260200182016040528015610bb9578160200160208202803683370190505b5090506000835b60018110158015610bd057508382105b15610c2c5760008181526020819052604090206006015460ff16610c1a5780838381518110610c0157610c01611392565b602090810291909101015281610c1681611379565b9250505b80610c2481611362565b915050610bc0565b5082811015610cdb5760008167ffffffffffffffff811115610c5057610c506111a6565b604051908082528060200260200182016040528015610c79578160200160208202803683370190505b50905060005b82811015610cd057838181518110610c9957610c99611392565b6020026020010151828281518110610cb357610cb3611392565b602090810291909101015280610cc881611379565b915050610c7f565b509695505050505050565b50949350505050565b6000835111610d355760405162461bcd60e51b815260206004820152601760248201527f436f6e74656e742063616e6e6f7420626520656d707479000000000000000000604482015260640161053a565b6107d083511115610d7b5760405162461bcd60e51b815260206004820152601060248201526f436f6e74656e7420746f6f206c6f6e6760801b604482015260640161053a565b600454341015610dc45760405162461bcd60e51b8152602060048201526014602482015273125b9cdd59999a58da595b9d081c185e5b595b9d60621b604482015260640161053a565b60038054906000610dd483611379565b9091555050600354604080516101208101825282815233602080830191825282840188815260608401889052608084018790524260a0850152600060c0850181905260e085018190526101008501819052868152918290529390208251815590516001820180546001600160a01b0319166001600160a01b0390921691909117905591519091906002820190610e6a90826113f7565b5060608201516003820190610e7f90826113f7565b5060808201516004820190610e9490826113f7565b5060a0820151600582015560c082015160068201805460ff191691151591909117905560e0820151600782015561010090910151600890910155336000818152600260209081526040808320805460018101825590845291909220018390555182907f8e40a51278abe2f4b410c0a96ff0bdd024b22666ca334062bf72afd596984bd690610f239088906114b7565b60405180910390a350505050565b600060208284031215610f4357600080fd5b5035919050565b6000815180845260005b81811015610f7057602081850181015186830182015201610f54565b506000602082860101526020601f19601f83011685010191505092915050565b8981526001600160a01b038916602082015261012060408201819052600090610fbb8382018b610f4a565b90508281036060840152610fcf818a610f4a565b90508281036080840152610fe38189610f4a565b60a0840197909752505092151560c084015260e08301919091526101009091015295945050505050565b60208152815160208201526000602083015161103460408401826001600160a01b03169052565b506040830151610120806060850152611051610140850183610f4a565b91506060850151601f198086850301608087015261106f8483610f4a565b935060808701519150808685030160a08701525061108d8382610f4a565b92505060a085015160c085015260c08501516110ad60e086018215159052565b5060e085015161010085810191909152909401519390920192909252919050565b80356001600160a01b03811681146110e557600080fd5b919050565b600080604083850312156110fd57600080fd5b611106836110ce565b946020939093013593505050565b60006020828403121561112657600080fd5b61112f826110ce565b9392505050565b6020808252825182820181905260009190848201906040850190845b8181101561116e57835183529284019291840191600101611152565b50909695505050505050565b6000806040838503121561118d57600080fd5b8235915061119d602084016110ce565b90509250929050565b634e487b7160e01b600052604160045260246000fd5b600082601f8301126111cd57600080fd5b813567ffffffffffffffff808211156111e8576111e86111a6565b604051601f8301601f19908116603f01168101908282118183101715611210576112106111a6565b8160405283815286602085880101111561122957600080fd5b836020870160208301376000602085830101528094505050505092915050565b60008060006060848603121561125e57600080fd5b833567ffffffffffffffff8082111561127657600080fd5b611282878388016111bc565b9450602086013591508082111561129857600080fd5b6112a4878388016111bc565b935060408601359150808211156112ba57600080fd5b506112c7868287016111bc565b9150509250925092565b600181811c908216806112e557607f821691505b60208210810361130557634e487b7160e01b600052602260045260246000fd5b50919050565b60208082526021908201527f4f6e6c79206f776e65722063616e2063616c6c20746869732066756e6374696f6040820152603760f91b606082015260800190565b634e487b7160e01b600052601160045260246000fd5b6000816113715761137161134c565b506000190190565b60006001820161138b5761138b61134c565b5060010190565b634e487b7160e01b600052603260045260246000fd5b601f8211156113f257600081815260208120601f850160051c810160208610156113cf5750805b601f850160051c820191505b818110156113ee578281556001016113db565b5050505b505050565b815167ffffffffffffffff811115611411576114116111a6565b6114258161141f84546112d1565b846113a8565b602080601f83116001811461145a57600084156114425750858301515b600019600386901b1c1916600185901b1785556113ee565b600085815260208120601f198616915b828110156114895788860151825594840194600190910190840161146a565b50858210156114a75787850151600019600388901b60f8161c191681555b5050505050600190811b01905550565b60208152600061112f6020830184610f4a56fea264697066735822122083940b3b0925124738368f813bbde446c4de8fb848cf206032730db4a88eb52464736f6c63430008130033",
  "linkReferences": {},
  "deployedLinkReferences": {}
}