{
  "_format": "hh-sol-artifact-1",
  "contractName": "BaseStateChannel",
  "sourceName": "src/contracts/BaseStateChannel.sol",
  "abi": [
    {
      "inputs": [
        {
          "internalType": "address",
          "name": "_token",
          "type": "address"
        }
      ],
      "stateMutability": "nonpayable",
      "type": "constructor"
    },
    {
      "anonymous": false,
      "inputs": [
        {
          "indexed": true,
          "internalType": "bytes32",
          "name": "channelId",
          "type": "bytes32"
        },
        {
          "indexed": false,
          "internalType": "uint256",
          "name": "deadline",
          "type": "uint256"
        }
      ],
      "name": "ChannelChallenged",
      "type": "event"
    },
    {
      "anonymous": false,
      "inputs": [
        {
          "indexed": true,
          "internalType": "bytes32",
          "name": "channelId",
          "type": "bytes32"
        },
        {
          "indexed": false,
          "internalType": "uint256",
          "name": "totalTipped",
          "type": "uint256"
        },
        {
          "indexed": true,
          "internalType": "address",
          "name": "viewer",
          "type": "address"
        },
        {
          "indexed": true,
          "internalType": "address",
          "name": "streamer",
          "type": "address"
        }
      ],
      "name": "ChannelClosed",
      "type": "event"
    },
    {
      "anonymous": false,
      "inputs": [
        {
          "indexed": true,
          "internalType": "bytes32",
          "name": "channelId",
          "type": "bytes32"
        },
        {
          "indexed": true,
          "internalType": "address",
          "name": "viewer",
          "type": "address"
        },
        {
          "indexed": true,
          "internalType": "address",
          "name": "streamer",
          "type": "address"
        },
        {
          "indexed": false,
          "internalType": "uint256",
          "name": "deposit",
          "type": "uint256"
        }
      ],
      "name": "ChannelOpened",
      "type": "event"
    },
    {
      "anonymous": false,
      "inputs": [
        {
          "indexed": true,
          "internalType": "bytes32",
          "name": "channelId",
          "type": "bytes32"
        },
        {
          "indexed": false,
          "internalType": "uint256",
          "name": "viewerAmount",
          "type": "uint256"
        },
        {
          "indexed": false,
          "internalType": "uint256",
          "name": "streamerAmount",
          "type": "uint256"
        }
      ],
      "name": "ChannelSettled",
      "type": "event"
    },
    {
      "anonymous": false,
      "inputs": [
        {
          "indexed": true,
          "internalType": "bytes32",
          "name": "channelId",
          "type": "bytes32"
        },
        {
          "indexed": true,
          "internalType": "address",
          "name": "viewer",
          "type": "address"
        },
        {
          "indexed": true,
          "internalType": "address",
          "name": "streamer",
          "type": "address"
        },
        {
          "indexed": false,
          "internalType": "uint256",
          "name": "amount",
          "type": "uint256"
        },
        {
          "indexed": false,
          "internalType": "uint256",
          "name": "totalTipped",
          "type": "uint256"
        }
      ],
      "name": "InstantTip",
      "type": "event"
    },
    {
      "inputs": [],
      "name": "CHALLENGE_PERIOD",
      "outputs": [
        {
          "internalType": "uint256",
          "name": "",
          "type": "uint256"
        }
      ],
      "stateMutability": "view",
      "type": "function"
    },
    {
      "inputs": [],
      "name": "MIN_DEPOSIT",
      "outputs": [
        {
          "internalType": "uint256",
          "name": "",
          "type": "uint256"
        }
      ],
      "stateMutability": "view",
      "type": "function"
    },
    {
      "inputs": [
        {
          "internalType": "bytes32",
          "name": "channelId",
          "type": "bytes32"
        },
        {
          "internalType": "uint256",
          "name": "totalTipped",
          "type": "uint256"
        },
        {
          "internalType": "uint256",
          "name": "nonce",
          "type": "uint256"
        },
        {
          "internalType": "bytes",
          "name": "signature",
          "type": "bytes"
        }
      ],
      "name": "challengeChannel",
      "outputs": [],
      "stateMutability": "nonpayable",
      "type": "function"
    },
    {
      "inputs": [
        {
          "internalType": "bytes32",
          "name": "",
          "type": "bytes32"
        }
      ],
      "name": "challengeDeadlines",
      "outputs": [
        {
          "internalType": "uint256",
          "name": "",
          "type": "uint256"
        }
      ],
      "stateMutability": "view",
      "type": "function"
    },
    {
      "inputs": [
        {
          "internalType": "bytes32",
          "name": "",
          "type": "bytes32"
        }
      ],
      "name": "channels",
      "outputs": [
        {
          "internalType": "address",
          "name": "viewer",
          "type": "address"
        },
        {
          "internalType": "address",
          "name": "streamer",
          "type": "address"
        },
        {
          "internalType": "uint256",
          "name": "deposit",
          "type": "uint256"
        },
        {
          "internalType": "uint256",
          "name": "totalTipped",
          "type": "uint256"
        },
        {
          "internalType": "uint256",
          "name": "nonce",
          "type": "uint256"
        },
        {
          "internalType": "uint256",
          "name": "timeout",
          "type": "uint256"
        },
        {
          "internalType": "bool",
          "name": "isActive",
          "type": "bool"
        },
        {
          "internalType": "bool",
          "name": "disputed",
          "type": "bool"
        }
      ],
      "stateMutability": "view",
      "type": "function"
    },
    {
      "inputs": [
        {
          "internalType": "bytes32",
          "name": "channelId",
          "type": "bytes32"
        },
        {
          "internalType": "uint256",
          "name": "totalTipped",
          "type": "uint256"
        },
        {
          "internalType": "uint256",
          "name": "nonce",
          "type": "uint256"
        },
        {
          "internalType": "bytes",
          "name": "viewerSignature",
          "type": "bytes"
        },
        {
          "internalType": "bytes",
          "name": "streamerSignature",
          "type": "bytes"
        }
      ],
      "name": "closeChannel",
      "outputs": [],
      "stateMutability": "nonpayable",
      "type": "function"
    },
    {
      "inputs": [
        {
          "internalType": "bytes32",
          "name": "channelId",
          "type": "bytes32"
        }
      ],
      "name": "forceCloseChannel",
      "outputs": [],
      "stateMutability": "nonpayable",
      "type": "function"
    },
    {
      "inputs": [
        {
          "internalType": "bytes32",
          "name": "channelId",
          "type": "bytes32"
        }
      ],
      "name": "getChannel",
      "outputs": [
        {
          "components": [
            {
              "internalType": "address",
              "name": "viewer",
              "type": "address"
            },
            {
              "internalType": "address",
              "name": "streamer",
              "type": "address"
            },
            {
              "internalType": "uint256",
              "name": "deposit",
              "type": "uint256"
            },
            {
              "internalType": "uint256",
              "name": "totalTipped",
              "type": "uint256"
            },
            {
              "internalType": "uint256",
              "name": "nonce",
              "type": "uint256"
            },
            {
              "internalType": "uint256",
              "name": "timeout",
              "type": "uint256"
            },
            {
              "internalType": "bool",
              "name": "isActive",
              "type": "bool"
            },
            {
              "internalType": "bool",
              "name": "disputed",
              "type": "bool"
            }
          ],
          "internalType": "struct BaseStateChannel.Channel",
          "name": "",
          "type": "tuple"
        }
      ],
      "stateMutability": "view",
      "type": "function"
    },
    {
      "inputs": [
        {
          "internalType": "bytes32",
          "name": "channelId",
          "type": "bytes32"
        }
      ],
      "name": "getChannelBalance",
      "outputs": [
        {
          "internalType": "uint256",
          "name": "",
          "type": "uint256"
        }
      ],
      "stateMutability": "view",
      "type": "function"
    },
    {
      "inputs": [
        {
          "internalType": "address",
          "name": "viewer",
          "type": "address"
        },
        {
          "internalType": "address",
          "name": "streamer",
          "type": "address"
        }
      ],
      "name": "getChannelId",
      "outputs": [
        {
          "internalType": "bytes32",
          "name": "",
          "type": "bytes32"
        }
      ],
      "stateMutability": "view",
      "type": "function"
    },
    {
      "inputs": [
        {
          "internalType": "bytes32",
          "name": "channelId",
          "type": "bytes32"
        }
      ],
      "name": "isChannelActive",
      "outputs": [
        {
          "internalType": "bool",
          "name": "",
          "type": "bool"
        }
      ],
      "stateMutability": "view",
      "type": "function"
    },
    {
      "inputs": [
        {
          "internalType": "address",
          "name": "streamer",
          "type": "address"
        },
        {
          "internalType": "uint256",
          "name": "deposit",
          "type": "uint256"
        }
      ],
      "name": "openChannel",
      "outputs": [],
      "stateMutability": "nonpayable",
      "type": "function"
    },
    {
      "inputs": [
        {
          "internalType": "bytes32",
          "name": "channelId",
          "type": "bytes32"
        }
      ],
      "name": "settleChannel",
      "outputs": [],
      "stateMutability": "nonpayable",
      "type": "function"
    },
    {
      "inputs": [
        {
          "internalType": "bytes32",
          "name": "channelId",
          "type": "bytes32"
        },
        {
          "internalType": "uint256",
          "name": "tipAmount",
          "type": "uint256"
        },
        {
          "internalType": "uint256",
          "name": "newTotal",
          "type": "uint256"
        },
        {
          "internalType": "uint256",
          "name": "nonce",
          "type": "uint256"
        },
        {
          "internalType": "bytes",
          "name": "signature",
          "type": "bytes"
        }
      ],
      "name": "submitInstantTip",
      "outputs": [],
      "stateMutability": "nonpayable",
      "type": "function"
    },
    {
      "inputs": [],
      "name": "token",
      "outputs": [
        {
          "internalType": "contract IERC20",
          "name": "",
          "type": "address"
        }
      ],
      "stateMutability": "view",
      "type": "function"
    }
  ],
  "bytecode": "0x60a060405234801561001057600080fd5b50604051611faf380380611faf83398101604081905261002f9161009f565b60016000556001600160a01b03811661008e5760405162461bcd60e51b815260206004820152601560248201527f496e76616c696420746f6b656e20616464726573730000000000000000000000604482015260640160405180910390fd5b6001600160a01b03166080526100cf565b6000602082840312156100b157600080fd5b81516001600160a01b03811681146100c857600080fd5b9392505050565b608051611e9b610114600039600081816103900152818161084801528181610a720152818161111d0152818161115c0152818161134a01526113890152611e9b6000f3fe608060405234801561001057600080fd5b50600436106100f55760003560e01c8063831c2b8211610097578063e1e158a511610066578063e1e158a51461034b578063fa8f6f8d14610355578063fc0c546a1461038b578063fd3d3199146103ca57600080fd5b8063831c2b821461022f578063a3eb3d6d1461030f578063c3a079ed14610322578063d09ff3ea1461032b57600080fd5b806324f453d1116100d357806324f453d114610148578063394b4d291461015b5780637a7ebd7b1461016e5780637b0aed3d1461021c57600080fd5b806303a918fa146100fa578063093c4ee61461010f5780631b7afb3e14610135575b600080fd5b61010d610108366004611acb565b6103dd565b005b61012261011d366004611b25565b61068a565b6040519081526020015b60405180910390f35b61010d610143366004611b25565b610733565b61010d610156366004611b5a565b610908565b61010d610169366004611b84565b610c24565b6101d261017c366004611b25565b600160208190526000918252604090912080549181015460028201546003830154600484015460058501546006909501546001600160a01b03968716969094169492939192909160ff8082169161010090041688565b604080516001600160a01b03998a168152989097166020890152958701949094526060860192909252608085015260a0840152151560c0830152151560e08201526101000161012c565b61012261022a366004611be8565b610e7a565b61030261023d366004611b25565b6040805161010081018252600080825260208201819052918101829052606081018290526080810182905260a0810182905260c0810182905260e0810191909152506000908152600160208181526040928390208351610100808201865282546001600160a01b03908116835294830154909416928101929092526002810154938201939093526003830154606082015260048301546080820152600583015460a082015260069092015460ff808216151560c085015291900416151560e082015290565b60405161012c9190611c1b565b61010d61031d366004611c90565b610ecb565b610122610e1081565b610122610339366004611b25565b60026020526000908152604090205481565b610122620f424081565b61037b610363366004611b25565b60009081526001602052604090206006015460ff1690565b604051901515815260200161012c565b6103b27f000000000000000000000000000000000000000000000000000000000000000081565b6040516001600160a01b03909116815260200161012c565b61010d6103d8366004611b25565b611224565b6000848152600160205260409020600681015460ff166104185760405162461bcd60e51b815260040161040f90611cfd565b60405180910390fd5b80546001600160a01b031633148061043c575060018101546001600160a01b031633145b6104795760405162461bcd60e51b815260206004820152600e60248201526d139bdd08185d5d1a1bdc9a5e995960921b604482015260640161040f565b80600201548411156104c25760405162461bcd60e51b8152602060048201526012602482015271125b9d985b1a59081d1a5c08185b5bdd5b9d60721b604482015260640161040f565b806004015483116104e55760405162461bcd60e51b815260040161040f90611d29565b6000858585306040516020016104fe9493929190611d50565b60405160208183030381529060405280519060200120905060008160405160200161055591907f19457468657265756d205369676e6564204d6573736167653a0a3332000000008152601c810191909152603c0190565b60408051601f1981840301815291905280516020909101209050600061057b828661144b565b84549091506000906001600160a01b031633146105a25784546001600160a01b03166105b1565b60018501546001600160a01b03165b9050806001600160a01b0316826001600160a01b0316146106085760405162461bcd60e51b8152602060048201526011602482015270496e76616c6964207369676e617475726560781b604482015260640161040f565b600385018890556004850187905560068501805461ff001916610100179055610633610e1042611d94565b60008a81526002602052604090819020829055518a917f8680a0872428bf837700aa6e5878127ff3c3dab274fe451a13b36fad1dbb22e39161067791815260200190565b60405180910390a2505050505050505050565b60008181526001602081815260408084208151610100808201845282546001600160a01b03908116835295830154909516938101939093526002810154918301919091526003810154606083015260048101546080830152600581015460a08301526006015460ff808216151560c084018190529390910416151560e0820152906107185750600092915050565b8060600151816040015161072c9190611da7565b9392505050565b61073b61146f565b6000818152600160205260409020600681015460ff1661076d5760405162461bcd60e51b815260040161040f90611cfd565b80546001600160a01b0316331480610791575060018101546001600160a01b031633145b6107ce5760405162461bcd60e51b815260206004820152600e60248201526d139bdd08185d5d1a1bdc9a5e995960921b604482015260640161040f565b610e1081600501546107e09190611d94565b42116108275760405162461bcd60e51b815260206004820152601660248201527510d85b9b9bdd08199bdc98d94818db1bdcd9481e595d60521b604482015260640161040f565b60068101805460ff1916905560028101548154610871906001600160a01b037f000000000000000000000000000000000000000000000000000000000000000081169116836114c8565b60018201548254604051600081526001600160a01b03928316929091169085907f7d5d585c9cf488645232e8fd996232d93aa0ee8b482e706cba6ac844d2eccc999060200160405180910390a4604080518281526000602082015284917ff94fb5c0628a82dc90648e8dc5e983f632633b0d26603d64e8cc042ca0790aa4910160405180910390a250506109056001600055565b50565b61091061146f565b6001600160a01b0382166109665760405162461bcd60e51b815260206004820152601860248201527f496e76616c69642073747265616d657220616464726573730000000000000000604482015260640161040f565b336001600160a01b038316036109b45760405162461bcd60e51b815260206004820152601360248201527221b0b73737ba103a34b8103cb7bab939b2b63360691b604482015260640161040f565b620f42408110156109fb5760405162461bcd60e51b815260206004820152601160248201527011195c1bdcda5d081d1bdbc81cdb585b1b607a1b604482015260640161040f565b6000610a073384610e7a565b60008181526001602052604090206006015490915060ff1615610a655760405162461bcd60e51b81526020600482015260166024820152754368616e6e656c20616c72656164792065786973747360501b604482015260640161040f565b610a9a6001600160a01b037f000000000000000000000000000000000000000000000000000000000000000016333085611530565b604051806101000160405280336001600160a01b03168152602001846001600160a01b03168152602001838152602001600081526020016000815260200160008152602001600115158152602001600015158152506001600083815260200190815260200160002060008201518160000160006101000a8154816001600160a01b0302191690836001600160a01b0316021790555060208201518160010160006101000a8154816001600160a01b0302191690836001600160a01b0316021790555060408201518160020155606082015181600301556080820151816004015560a0820151816005015560c08201518160060160006101000a81548160ff02191690831515021790555060e08201518160060160016101000a81548160ff021916908315150217905550905050826001600160a01b0316336001600160a01b0316827f448d27f1fe12f92a2070111296e68fd6ef0a01c0e05bf5819eda0dbcf267bf3d85604051610c0d91815260200190565b60405180910390a450610c206001600055565b5050565b6000858152600160205260409020600681015460ff16610c565760405162461bcd60e51b815260040161040f90611cfd565b80546001600160a01b03163314610ca55760405162461bcd60e51b815260206004820152601360248201527204f6e6c79207669657765722063616e2074697606c1b604482015260640161040f565b8060020154841115610cee5760405162461bcd60e51b8152602060048201526012602482015271496e73756666696369656e742066756e647360701b604482015260640161040f565b80600401548311610d115760405162461bcd60e51b815260040161040f90611d29565b600086858530604051602001610d2a9493929190611d50565b604051602081830303815290604052805190602001209050600081604051602001610d8191907f19457468657265756d205369676e6564204d6573736167653a0a3332000000008152601c810191909152603c0190565b60408051601f19818403018152919052805160209091012090506000610da7828661144b565b60018501549091506001600160a01b03808316911614610e095760405162461bcd60e51b815260206004820152601a60248201527f496e76616c69642073747265616d6572207369676e6174757265000000000000604482015260640161040f565b8360040154861115610e1d57600484018690555b60018401548454604080518b8152602081018b90526001600160a01b0393841693909216918c917f50fc07245aa6ea5f439e9a194b735c4c82089ab1e3fed71ab1c28f2c6152f09b910160405180910390a4505050505050505050565b6040516bffffffffffffffffffffffff19606084811b8216602084015283901b1660348201524660488201526000906068016040516020818303038152906040528051906020012090505b92915050565b610ed361146f565b6000858152600160205260409020600681015460ff16610f055760405162461bcd60e51b815260040161040f90611cfd565b8060020154851115610f4e5760405162461bcd60e51b8152602060048201526012602482015271125b9d985b1a59081d1a5c08185b5bdd5b9d60721b604482015260640161040f565b80600401548411610f715760405162461bcd60e51b815260040161040f90611d29565b600086868630604051602001610f8a9493929190611d50565b604051602081830303815290604052805190602001209050600081604051602001610fe191907f19457468657265756d205369676e6564204d6573736167653a0a3332000000008152601c810191909152603c0190565b60408051601f19818403018152919052805160209091012090506000611007828761144b565b90506000611015838761144b565b85549091506001600160a01b038381169116146110745760405162461bcd60e51b815260206004820152601860248201527f496e76616c696420766965776572207369676e61747572650000000000000000604482015260640161040f565b60018501546001600160a01b038281169116146110d35760405162461bcd60e51b815260206004820152601a60248201527f496e76616c69642073747265616d6572207369676e6174757265000000000000604482015260640161040f565b600385018990556004850188905560068501805460ff1916905560028501548990600090611102908390611da7565b90508115611146576001870154611146906001600160a01b037f000000000000000000000000000000000000000000000000000000000000000081169116846114c8565b8015611185578654611185906001600160a01b037f000000000000000000000000000000000000000000000000000000000000000081169116836114c8565b600187015487546040518d81526001600160a01b0392831692909116908e907f7d5d585c9cf488645232e8fd996232d93aa0ee8b482e706cba6ac844d2eccc999060200160405180910390a460408051828152602081018490528d917ff94fb5c0628a82dc90648e8dc5e983f632633b0d26603d64e8cc042ca0790aa4910160405180910390a25050505050505061121d6001600055565b5050505050565b61122c61146f565b6000818152600160205260409020600681015460ff1661125e5760405162461bcd60e51b815260040161040f90611cfd565b6006810154610100900460ff166112ae5760405162461bcd60e51b815260206004820152601460248201527310da185b9b995b081b9bdd08191a5cdc1d5d195960621b604482015260640161040f565b600082815260026020526040902054421161130b5760405162461bcd60e51b815260206004820152601960248201527f4368616c6c656e676520706572696f64206e6f74206f76657200000000000000604482015260640161040f565b60068101805460ff191690556003810154600282015460009061132f908390611da7565b90508115611373576001830154611373906001600160a01b037f000000000000000000000000000000000000000000000000000000000000000081169116846114c8565b80156113b25782546113b2906001600160a01b037f000000000000000000000000000000000000000000000000000000000000000081169116836114c8565b6001830154835460038501546040519081526001600160a01b03928316929091169086907f7d5d585c9cf488645232e8fd996232d93aa0ee8b482e706cba6ac844d2eccc999060200160405180910390a4604080518281526020810184905285917ff94fb5c0628a82dc90648e8dc5e983f632633b0d26603d64e8cc042ca0790aa4910160405180910390a25050506109056001600055565b600080600061145a858561156e565b91509150611467816115b3565b509392505050565b6002600054036114c15760405162461bcd60e51b815260206004820152601f60248201527f5265656e7472616e637947756172643a207265656e7472616e742063616c6c00604482015260640161040f565b6002600055565b6040516001600160a01b03831660248201526044810182905261152b90849063a9059cbb60e01b906064015b60408051601f198184030181529190526020810180516001600160e01b03166001600160e01b0319909316929092179091526116fd565b505050565b6040516001600160a01b03808516602483015283166044820152606481018290526115689085906323b872dd60e01b906084016114f4565b50505050565b60008082516041036115a45760208301516040840151606085015160001a611598878285856117d2565b945094505050506115ac565b506000905060025b9250929050565b60008160048111156115c7576115c7611dba565b036115cf5750565b60018160048111156115e3576115e3611dba565b036116305760405162461bcd60e51b815260206004820152601860248201527f45434453413a20696e76616c6964207369676e61747572650000000000000000604482015260640161040f565b600281600481111561164457611644611dba565b036116915760405162461bcd60e51b815260206004820152601f60248201527f45434453413a20696e76616c6964207369676e6174757265206c656e67746800604482015260640161040f565b60038160048111156116a5576116a5611dba565b036109055760405162461bcd60e51b815260206004820152602260248201527f45434453413a20696e76616c6964207369676e6174757265202773272076616c604482015261756560f01b606482015260840161040f565b6000611752826040518060400160405280602081526020017f5361666545524332303a206c6f772d6c6576656c2063616c6c206661696c6564815250856001600160a01b03166118969092919063ffffffff16565b90508051600014806117735750808060200190518101906117739190611dd0565b61152b5760405162461bcd60e51b815260206004820152602a60248201527f5361666545524332303a204552433230206f7065726174696f6e20646964206e6044820152691bdd081cdd58d8d9595960b21b606482015260840161040f565b6000807f7fffffffffffffffffffffffffffffff5d576e7357a4501ddfe92f46681b20a0831115611809575060009050600361188d565b6040805160008082526020820180845289905260ff881692820192909252606081018690526080810185905260019060a0016020604051602081039080840390855afa15801561185d573d6000803e3d6000fd5b5050604051601f1901519150506001600160a01b0381166118865760006001925092505061188d565b9150600090505b94509492505050565b60606118a584846000856118ad565b949350505050565b60608247101561190e5760405162461bcd60e51b815260206004820152602660248201527f416464726573733a20696e73756666696369656e742062616c616e636520666f6044820152651c8818d85b1b60d21b606482015260840161040f565b600080866001600160a01b0316858760405161192a9190611e16565b60006040518083038185875af1925050503d8060008114611967576040519150601f19603f3d011682016040523d82523d6000602084013e61196c565b606091505b509150915061197d87838387611988565b979650505050505050565b606083156119f75782516000036119f0576001600160a01b0385163b6119f05760405162461bcd60e51b815260206004820152601d60248201527f416464726573733a2063616c6c20746f206e6f6e2d636f6e7472616374000000604482015260640161040f565b50816118a5565b6118a58383815115611a0c5781518083602001fd5b8060405162461bcd60e51b815260040161040f9190611e32565b634e487b7160e01b600052604160045260246000fd5b600082601f830112611a4d57600080fd5b813567ffffffffffffffff811115611a6757611a67611a26565b604051601f8201601f19908116603f0116810167ffffffffffffffff81118282101715611a9657611a96611a26565b604052818152838201602001851015611aae57600080fd5b816020850160208301376000918101602001919091529392505050565b60008060008060808587031215611ae157600080fd5b843593506020850135925060408501359150606085013567ffffffffffffffff811115611b0d57600080fd5b611b1987828801611a3c565b91505092959194509250565b600060208284031215611b3757600080fd5b5035919050565b80356001600160a01b0381168114611b5557600080fd5b919050565b60008060408385031215611b6d57600080fd5b611b7683611b3e565b946020939093013593505050565b600080600080600060a08688031215611b9c57600080fd5b85359450602086013593506040860135925060608601359150608086013567ffffffffffffffff811115611bcf57600080fd5b611bdb88828901611a3c565b9150509295509295909350565b60008060408385031215611bfb57600080fd5b611c0483611b3e565b9150611c1260208401611b3e565b90509250929050565b60006101008201905060018060a01b03835116825260018060a01b03602084015116602083015260408301516040830152606083015160608301526080830151608083015260a083015160a083015260c0830151151560c083015260e0830151611c8960e084018215159052565b5092915050565b600080600080600060a08688031215611ca857600080fd5b853594506020860135935060408601359250606086013567ffffffffffffffff811115611cd457600080fd5b611ce088828901611a3c565b925050608086013567ffffffffffffffff811115611bcf57600080fd5b6020808252601290820152714368616e6e656c206e6f742061637469766560701b604082015260600190565b6020808252600d908201526c496e76616c6964206e6f6e636560981b604082015260600190565b93845260208401929092526040830152606090811b6bffffffffffffffffffffffff19169082015260740190565b634e487b7160e01b600052601160045260246000fd5b80820180821115610ec557610ec5611d7e565b81810381811115610ec557610ec5611d7e565b634e487b7160e01b600052602160045260246000fd5b600060208284031215611de257600080fd5b8151801515811461072c57600080fd5b60005b83811015611e0d578181015183820152602001611df5565b50506000910152565b60008251611e28818460208701611df2565b9190910192915050565b6020815260008251806020840152611e51816040850160208701611df2565b601f01601f1916919091016040019291505056fea26469706673582212200acac1064ceb873da38066255cca69366da891017824ed313078244a949dc93964736f6c634300081a0033",
  "linkReferences": {},
  "deployedLinkReferences": {}
}