{
  "_format": "hh-sol-artifact-1",
  "contractName": "Utils",
  "sourceName": "src/contracts/Utils.sol",
  "abi": [
    {
      "inputs": [],
      "name": "STATE_TYPEHASH",
      "outputs": [
        {
          "internalType": "bytes32",
          "name": "",
          "type": "bytes32"
        }
      ],
      "stateMutability": "view",
      "type": "function"
    }
  ],
  "bytecode": "0x60a66037600b82828239805160001a607314602a57634e487b7160e01b600052600060045260246000fd5b30600052607381538281f3fe730000000000000000000000000000000000000000301460806040526004361060335760003560e01c8063928d506f146038575b600080fd5b605e7f2a51b8306d5b6936cb406ee39f2dc7867102751c451387984969f746441921cc81565b60405190815260200160405180910390f3fea2646970667358221220ffe5ca8d75795096e3341b6e27d88b596b5400e105123f2c62aa742cbb8ec9f864736f6c634300081a0033",
  "linkReferences": {},
  "deployedLinkReferences": {}
}