{
  "_format": "hh-sol-artifact-1",
  "contractName": "Custody",
  "sourceName": "src/contracts/Custody.sol",
  "abi": [
    {
      "inputs": [],
      "stateMutability": "nonpayable",
      "type": "constructor"
    },
    {
      "inputs": [],
      "name": "ChallengeNotExpired",
      "type": "error"
    },
    {
      "inputs": [],
      "name": "ChannelNotFinal",
      "type": "error"
    },
    {
      "inputs": [
        {
          "internalType": "bytes32",
          "name": "channelId",
          "type": "bytes32"
        }
      ],
      "name": "ChannelNotFound",
      "type": "error"
    },
    {
      "inputs": [],
      "name": "DepositAlreadyFulfilled",
      "type": "error"
    },
    {
      "inputs": [
        {
          "internalType": "uint256",
          "name": "expectedFulfilled",
          "type": "uint256"
        },
        {
          "internalType": "uint256",
          "name": "actualFulfilled",
          "type": "uint256"
        }
      ],
      "name": "DepositsNotFulfilled",
      "type": "error"
    },
    {
      "inputs": [
        {
          "internalType": "uint256",
          "name": "available",
          "type": "uint256"
        },
        {
          "internalType": "uint256",
          "name": "required",
          "type": "uint256"
        }
      ],
      "name": "InsufficientBalance",
      "type": "error"
    },
    {
      "inputs": [],
      "name": "InvalidAdjudicator",
      "type": "error"
    },
    {
      "inputs": [],
      "name": "InvalidAllocations",
      "type": "error"
    },
    {
      "inputs": [],
      "name": "InvalidAmount",
      "type": "error"
    },
    {
      "inputs": [],
      "name": "InvalidChallengePeriod",
      "type": "error"
    },
    {
      "inputs": [],
      "name": "InvalidChallengerSignature",
      "type": "error"
    },
    {
      "inputs": [],
      "name": "InvalidParticipant",
      "type": "error"
    },
    {
      "inputs": [],
      "name": "InvalidShortString",
      "type": "error"
    },
    {
      "inputs": [],
      "name": "InvalidState",
      "type": "error"
    },
    {
      "inputs": [],
      "name": "InvalidStateSignatures",
      "type": "error"
    },
    {
      "inputs": [],
      "name": "InvalidStatus",
      "type": "error"
    },
    {
      "inputs": [],
      "name": "InvalidValue",
      "type": "error"
    },
    {
      "inputs": [
        {
          "internalType": "string",
          "name": "str",
          "type": "string"
        }
      ],
      "name": "StringTooLong",
      "type": "error"
    },
    {
      "inputs": [
        {
          "internalType": "address",
          "name": "token",
          "type": "address"
        },
        {
          "internalType": "address",
          "name": "to",
          "type": "address"
        },
        {
          "internalType": "uint256",
          "name": "amount",
          "type": "uint256"
        }
      ],
      "name": "TransferFailed",
      "type": "error"
    },
    {
      "anonymous": false,
      "inputs": [
        {
          "indexed": true,
          "internalType": "bytes32",
          "name": "channelId",
          "type": "bytes32"
        },
        {
          "components": [
            {
              "internalType": "enum StateIntent",
              "name": "intent",
              "type": "uint8"
            },
            {
              "internalType": "uint256",
              "name": "version",
              "type": "uint256"
            },
            {
              "internalType": "bytes",
              "name": "data",
              "type": "bytes"
            },
            {
              "components": [
                {
                  "internalType": "address",
                  "name": "destination",
                  "type": "address"
                },
                {
                  "internalType": "address",
                  "name": "token",
                  "type": "address"
                },
                {
                  "internalType": "uint256",
                  "name": "amount",
                  "type": "uint256"
                }
              ],
              "internalType": "struct Allocation[]",
              "name": "allocations",
              "type": "tuple[]"
            },
            {
              "internalType": "bytes[]",
              "name": "sigs",
              "type": "bytes[]"
            }
          ],
          "indexed": false,
          "internalType": "struct State",
          "name": "challengeState",
          "type": "tuple"
        },
        {
          "indexed": false,
          "internalType": "uint256",
          "name": "challengeExpiry",
          "type": "uint256"
        }
      ],
      "name": "Challenged",
      "type": "event"
    },
    {
      "anonymous": false,
      "inputs": [
        {
          "indexed": true,
          "internalType": "bytes32",
          "name": "channelId",
          "type": "bytes32"
        },
        {
          "components": [
            {
              "internalType": "enum StateIntent",
              "name": "intent",
              "type": "uint8"
            },
            {
              "internalType": "uint256",
              "name": "version",
              "type": "uint256"
            },
            {
              "internalType": "bytes",
              "name": "data",
              "type": "bytes"
            },
            {
              "components": [
                {
                  "internalType": "address",
                  "name": "destination",
                  "type": "address"
                },
                {
                  "internalType": "address",
                  "name": "token",
                  "type": "address"
                },
                {
                  "internalType": "uint256",
                  "name": "amount",
                  "type": "uint256"
                }
              ],
              "internalType": "struct Allocation[]",
              "name": "allocations",
              "type": "tuple[]"
            },
            {
              "internalType": "bytes[]",
              "name": "sigs",
              "type": "bytes[]"
            }
          ],
          "indexed": false,
          "internalType": "struct State",
          "name": "newState",
          "type": "tuple"
        }
      ],
      "name": "Checkpointed",
      "type": "event"
    },
    {
      "anonymous": false,
      "inputs": [
        {
          "indexed": true,
          "internalType": "bytes32",
          "name": "channelId",
          "type": "bytes32"
        },
        {
          "components": [
            {
              "internalType": "enum StateIntent",
              "name": "intent",
              "type": "uint8"
            },
            {
              "internalType": "uint256",
              "name": "version",
              "type": "uint256"
            },
            {
              "internalType": "bytes",
              "name": "data",
              "type": "bytes"
            },
            {
              "components": [
                {
                  "internalType": "address",
                  "name": "destination",
                  "type": "address"
                },
                {
                  "internalType": "address",
                  "name": "token",
                  "type": "address"
                },
                {
                  "internalType": "uint256",
                  "name": "amount",
                  "type": "uint256"
                }
              ],
              "internalType": "struct Allocation[]",
              "name": "allocations",
              "type": "tuple[]"
            },
            {
              "internalType": "bytes[]",
              "name": "sigs",
              "type": "bytes[]"
            }
          ],
          "indexed": false,
          "internalType": "struct State",
          "name": "finalState",
          "type": "tuple"
        }
      ],
      "name": "Closed",
      "type": "event"
    },
    {
      "anonymous": false,
      "inputs": [
        {
          "indexed": true,
          "internalType": "bytes32",
          "name": "channelId",
          "type": "bytes32"
        },
        {
          "indexed": true,
          "internalType": "address",
          "name": "creator",
          "type": "address"
        },
        {
          "components": [
            {
              "internalType": "address[]",
              "name": "participants",
              "type": "address[]"
            },
            {
              "internalType": "address",
              "name": "adjudicator",
              "type": "address"
            },
            {
              "internalType": "uint256",
              "name": "challenge",
              "type": "uint256"
            },
            {
              "internalType": "uint256",
              "name": "nonce",
              "type": "uint256"
            }
          ],
          "indexed": false,
          "internalType": "struct Channel",
          "name": "channel",
          "type": "tuple"
        },
        {
          "components": [
            {
              "internalType": "enum StateIntent",
              "name": "intent",
              "type": "uint8"
            },
            {
              "internalType": "uint256",
              "name": "version",
              "type": "uint256"
            },
            {
              "internalType": "bytes",
              "name": "data",
              "type": "bytes"
            },
            {
              "components": [
                {
                  "internalType": "address",
                  "name": "destination",
                  "type": "address"
                },
                {
                  "internalType": "address",
                  "name": "token",
                  "type": "address"
                },
                {
                  "internalType": "uint256",
                  "name": "amount",
                  "type": "uint256"
                }
              ],
              "internalType": "struct Allocation[]",
              "name": "allocations",
              "type": "tuple[]"
            },
            {
              "internalType": "bytes[]",
              "name": "sigs",
              "type": "bytes[]"
            }
          ],
          "indexed": false,
          "internalType": "struct State",
          "name": "initialState",
          "type": "tuple"
        }
      ],
      "name": "Created",
      "type": "event"
    },
    {
      "anonymous": false,
      "inputs": [
        {
          "indexed": true,
          "internalType": "address",
          "name": "account",
          "type": "address"
        },
        {
          "indexed": true,
          "internalType": "address",
          "name": "token",
          "type": "address"
        },
        {
          "indexed": false,
          "internalType": "uint256",
          "name": "amount",
          "type": "uint256"
        }
      ],
      "name": "Deposited",
      "type": "event"
    },
    {
      "anonymous": false,
      "inputs": [],
      "name": "EIP712DomainChanged",
      "type": "event"
    },
    {
      "anonymous": false,
      "inputs": [
        {
          "indexed": true,
          "internalType": "bytes32",
          "name": "channelId",
          "type": "bytes32"
        },
        {
          "indexed": true,
          "internalType": "uint256",
          "name": "participantIndex",
          "type": "uint256"
        }
      ],
      "name": "Joined",
      "type": "event"
    },
    {
      "anonymous": false,
      "inputs": [
        {
          "indexed": true,
          "internalType": "bytes32",
          "name": "channelId",
          "type": "bytes32"
        }
      ],
      "name": "Opened",
      "type": "event"
    },
    {
      "anonymous": false,
      "inputs": [
        {
          "indexed": true,
          "internalType": "bytes32",
          "name": "channelId",
          "type": "bytes32"
        },
        {
          "indexed": false,
          "internalType": "int256[]",
          "name": "resizeAmounts",
          "type": "int256[]"
        }
      ],
      "name": "Resized",
      "type": "event"
    },
    {
      "anonymous": false,
      "inputs": [
        {
          "indexed": true,
          "internalType": "address",
          "name": "account",
          "type": "address"
        },
        {
          "indexed": true,
          "internalType": "address",
          "name": "token",
          "type": "address"
        },
        {
          "indexed": false,
          "internalType": "uint256",
          "name": "amount",
          "type": "uint256"
        }
      ],
      "name": "Withdrawn",
      "type": "event"
    },
    {
      "inputs": [],
      "name": "CHALLENGE_STATE_TYPEHASH",
      "outputs": [
        {
          "internalType": "bytes32",
          "name": "",
          "type": "bytes32"
        }
      ],
      "stateMutability": "view",
      "type": "function"
    },
    {
      "inputs": [],
      "name": "MIN_CHALLENGE_PERIOD",
      "outputs": [
        {
          "internalType": "uint256",
          "name": "",
          "type": "uint256"
        }
      ],
      "stateMutability": "view",
      "type": "function"
    },
    {
      "inputs": [
        {
          "internalType": "bytes32",
          "name": "channelId",
          "type": "bytes32"
        },
        {
          "components": [
            {
              "internalType": "enum StateIntent",
              "name": "intent",
              "type": "uint8"
            },
            {
              "internalType": "uint256",
              "name": "version",
              "type": "uint256"
            },
            {
              "internalType": "bytes",
              "name": "data",
              "type": "bytes"
            },
            {
              "components": [
                {
                  "internalType": "address",
                  "name": "destination",
                  "type": "address"
                },
                {
                  "internalType": "address",
                  "name": "token",
                  "type": "address"
                },
                {
                  "internalType": "uint256",
                  "name": "amount",
                  "type": "uint256"
                }
              ],
              "internalType": "struct Allocation[]",
              "name": "allocations",
              "type": "tuple[]"
            },
            {
              "internalType": "bytes[]",
              "name": "sigs",
              "type": "bytes[]"
            }
          ],
          "internalType": "struct State",
          "name": "candidate",
          "type": "tuple"
        },
        {
          "components": [
            {
              "internalType": "enum StateIntent",
              "name": "intent",
              "type": "uint8"
            },
            {
              "internalType": "uint256",
              "name": "version",
              "type": "uint256"
            },
            {
              "internalType": "bytes",
              "name": "data",
              "type": "bytes"
            },
            {
              "components": [
                {
                  "internalType": "address",
                  "name": "destination",
                  "type": "address"
                },
                {
                  "internalType": "address",
                  "name": "token",
                  "type": "address"
                },
                {
                  "internalType": "uint256",
                  "name": "amount",
                  "type": "uint256"
                }
              ],
              "internalType": "struct Allocation[]",
              "name": "allocations",
              "type": "tuple[]"
            },
            {
              "internalType": "bytes[]",
              "name": "sigs",
              "type": "bytes[]"
            }
          ],
          "internalType": "struct State[]",
          "name": "proofs",
          "type": "tuple[]"
        },
        {
          "internalType": "bytes",
          "name": "challengerSig",
          "type": "bytes"
        }
      ],
      "name": "challenge",
      "outputs": [],
      "stateMutability": "nonpayable",
      "type": "function"
    },
    {
      "inputs": [
        {
          "internalType": "bytes32",
          "name": "channelId",
          "type": "bytes32"
        },
        {
          "components": [
            {
              "internalType": "enum StateIntent",
              "name": "intent",
              "type": "uint8"
            },
            {
              "internalType": "uint256",
              "name": "version",
              "type": "uint256"
            },
            {
              "internalType": "bytes",
              "name": "data",
              "type": "bytes"
            },
            {
              "components": [
                {
                  "internalType": "address",
                  "name": "destination",
                  "type": "address"
                },
                {
                  "internalType": "address",
                  "name": "token",
                  "type": "address"
                },
                {
                  "internalType": "uint256",
                  "name": "amount",
                  "type": "uint256"
                }
              ],
              "internalType": "struct Allocation[]",
              "name": "allocations",
              "type": "tuple[]"
            },
            {
              "internalType": "bytes[]",
              "name": "sigs",
              "type": "bytes[]"
            }
          ],
          "internalType": "struct State",
          "name": "candidate",
          "type": "tuple"
        },
        {
          "components": [
            {
              "internalType": "enum StateIntent",
              "name": "intent",
              "type": "uint8"
            },
            {
              "internalType": "uint256",
              "name": "version",
              "type": "uint256"
            },
            {
              "internalType": "bytes",
              "name": "data",
              "type": "bytes"
            },
            {
              "components": [
                {
                  "internalType": "address",
                  "name": "destination",
                  "type": "address"
                },
                {
                  "internalType": "address",
                  "name": "token",
                  "type": "address"
                },
                {
                  "internalType": "uint256",
                  "name": "amount",
                  "type": "uint256"
                }
              ],
              "internalType": "struct Allocation[]",
              "name": "allocations",
              "type": "tuple[]"
            },
            {
              "internalType": "bytes[]",
              "name": "sigs",
              "type": "bytes[]"
            }
          ],
          "internalType": "struct State[]",
          "name": "proofs",
          "type": "tuple[]"
        }
      ],
      "name": "checkpoint",
      "outputs": [],
      "stateMutability": "nonpayable",
      "type": "function"
    },
    {
      "inputs": [
        {
          "internalType": "bytes32",
          "name": "channelId",
          "type": "bytes32"
        },
        {
          "components": [
            {
              "internalType": "enum StateIntent",
              "name": "intent",
              "type": "uint8"
            },
            {
              "internalType": "uint256",
              "name": "version",
              "type": "uint256"
            },
            {
              "internalType": "bytes",
              "name": "data",
              "type": "bytes"
            },
            {
              "components": [
                {
                  "internalType": "address",
                  "name": "destination",
                  "type": "address"
                },
                {
                  "internalType": "address",
                  "name": "token",
                  "type": "address"
                },
                {
                  "internalType": "uint256",
                  "name": "amount",
                  "type": "uint256"
                }
              ],
              "internalType": "struct Allocation[]",
              "name": "allocations",
              "type": "tuple[]"
            },
            {
              "internalType": "bytes[]",
              "name": "sigs",
              "type": "bytes[]"
            }
          ],
          "internalType": "struct State",
          "name": "candidate",
          "type": "tuple"
        },
        {
          "components": [
            {
              "internalType": "enum StateIntent",
              "name": "intent",
              "type": "uint8"
            },
            {
              "internalType": "uint256",
              "name": "version",
              "type": "uint256"
            },
            {
              "internalType": "bytes",
              "name": "data",
              "type": "bytes"
            },
            {
              "components": [
                {
                  "internalType": "address",
                  "name": "destination",
                  "type": "address"
                },
                {
                  "internalType": "address",
                  "name": "token",
                  "type": "address"
                },
                {
                  "internalType": "uint256",
                  "name": "amount",
                  "type": "uint256"
                }
              ],
              "internalType": "struct Allocation[]",
              "name": "allocations",
              "type": "tuple[]"
            },
            {
              "internalType": "bytes[]",
              "name": "sigs",
              "type": "bytes[]"
            }
          ],
          "internalType": "struct State[]",
          "name": "",
          "type": "tuple[]"
        }
      ],
      "name": "close",
      "outputs": [],
      "stateMutability": "nonpayable",
      "type": "function"
    },
    {
      "inputs": [
        {
          "components": [
            {
              "internalType": "address[]",
              "name": "participants",
              "type": "address[]"
            },
            {
              "internalType": "address",
              "name": "adjudicator",
              "type": "address"
            },
            {
              "internalType": "uint256",
              "name": "challenge",
              "type": "uint256"
            },
            {
              "internalType": "uint256",
              "name": "nonce",
              "type": "uint256"
            }
          ],
          "internalType": "struct Channel",
          "name": "ch",
          "type": "tuple"
        },
        {
          "components": [
            {
              "internalType": "enum StateIntent",
              "name": "intent",
              "type": "uint8"
            },
            {
              "internalType": "uint256",
              "name": "version",
              "type": "uint256"
            },
            {
              "internalType": "bytes",
              "name": "data",
              "type": "bytes"
            },
            {
              "components": [
                {
                  "internalType": "address",
                  "name": "destination",
                  "type": "address"
                },
                {
                  "internalType": "address",
                  "name": "token",
                  "type": "address"
                },
                {
                  "internalType": "uint256",
                  "name": "amount",
                  "type": "uint256"
                }
              ],
              "internalType": "struct Allocation[]",
              "name": "allocations",
              "type": "tuple[]"
            },
            {
              "internalType": "bytes[]",
              "name": "sigs",
              "type": "bytes[]"
            }
          ],
          "internalType": "struct State",
          "name": "initial",
          "type": "tuple"
        }
      ],
      "name": "create",
      "outputs": [
        {
          "internalType": "bytes32",
          "name": "channelId",
          "type": "bytes32"
        }
      ],
      "stateMutability": "nonpayable",
      "type": "function"
    },
    {
      "inputs": [
        {
          "internalType": "address",
          "name": "account",
          "type": "address"
        },
        {
          "internalType": "address",
          "name": "token",
          "type": "address"
        },
        {
          "internalType": "uint256",
          "name": "amount",
          "type": "uint256"
        }
      ],
      "name": "deposit",
      "outputs": [],
      "stateMutability": "payable",
      "type": "function"
    },
    {
      "inputs": [
        {
          "internalType": "address",
          "name": "token",
          "type": "address"
        },
        {
          "internalType": "uint256",
          "name": "amount",
          "type": "uint256"
        },
        {
          "components": [
            {
              "internalType": "address[]",
              "name": "participants",
              "type": "address[]"
            },
            {
              "internalType": "address",
              "name": "adjudicator",
              "type": "address"
            },
            {
              "internalType": "uint256",
              "name": "challenge",
              "type": "uint256"
            },
            {
              "internalType": "uint256",
              "name": "nonce",
              "type": "uint256"
            }
          ],
          "internalType": "struct Channel",
          "name": "ch",
          "type": "tuple"
        },
        {
          "components": [
            {
              "internalType": "enum StateIntent",
              "name": "intent",
              "type": "uint8"
            },
            {
              "internalType": "uint256",
              "name": "version",
              "type": "uint256"
            },
            {
              "internalType": "bytes",
              "name": "data",
              "type": "bytes"
            },
            {
              "components": [
                {
                  "internalType": "address",
                  "name": "destination",
                  "type": "address"
                },
                {
                  "internalType": "address",
                  "name": "token",
                  "type": "address"
                },
                {
                  "internalType": "uint256",
                  "name": "amount",
                  "type": "uint256"
                }
              ],
              "internalType": "struct Allocation[]",
              "name": "allocations",
              "type": "tuple[]"
            },
            {
              "internalType": "bytes[]",
              "name": "sigs",
              "type": "bytes[]"
            }
          ],
          "internalType": "struct State",
          "name": "initial",
          "type": "tuple"
        }
      ],
      "name": "depositAndCreate",
      "outputs": [
        {
          "internalType": "bytes32",
          "name": "",
          "type": "bytes32"
        }
      ],
      "stateMutability": "payable",
      "type": "function"
    },
    {
      "inputs": [],
      "name": "eip712Domain",
      "outputs": [
        {
          "internalType": "bytes1",
          "name": "fields",
          "type": "bytes1"
        },
        {
          "internalType": "string",
          "name": "name",
          "type": "string"
        },
        {
          "internalType": "string",
          "name": "version",
          "type": "string"
        },
        {
          "internalType": "uint256",
          "name": "chainId",
          "type": "uint256"
        },
        {
          "internalType": "address",
          "name": "verifyingContract",
          "type": "address"
        },
        {
          "internalType": "bytes32",
          "name": "salt",
          "type": "bytes32"
        },
        {
          "internalType": "uint256[]",
          "name": "extensions",
          "type": "uint256[]"
        }
      ],
      "stateMutability": "view",
      "type": "function"
    },
    {
      "inputs": [
        {
          "internalType": "address[]",
          "name": "accounts",
          "type": "address[]"
        },
        {
          "internalType": "address[]",
          "name": "tokens",
          "type": "address[]"
        }
      ],
      "name": "getAccountsBalances",
      "outputs": [
        {
          "internalType": "uint256[][]",
          "name": "",
          "type": "uint256[][]"
        }
      ],
      "stateMutability": "view",
      "type": "function"
    },
    {
      "inputs": [
        {
          "internalType": "bytes32",
          "name": "channelId",
          "type": "bytes32"
        },
        {
          "internalType": "address[]",
          "name": "tokens",
          "type": "address[]"
        }
      ],
      "name": "getChannelBalances",
      "outputs": [
        {
          "internalType": "uint256[]",
          "name": "balances",
          "type": "uint256[]"
        }
      ],
      "stateMutability": "view",
      "type": "function"
    },
    {
      "inputs": [
        {
          "internalType": "bytes32",
          "name": "channelId",
          "type": "bytes32"
        }
      ],
      "name": "getChannelData",
      "outputs": [
        {
          "components": [
            {
              "internalType": "address[]",
              "name": "participants",
              "type": "address[]"
            },
            {
              "internalType": "address",
              "name": "adjudicator",
              "type": "address"
            },
            {
              "internalType": "uint256",
              "name": "challenge",
              "type": "uint256"
            },
            {
              "internalType": "uint256",
              "name": "nonce",
              "type": "uint256"
            }
          ],
          "internalType": "struct Channel",
          "name": "channel",
          "type": "tuple"
        },
        {
          "internalType": "enum ChannelStatus",
          "name": "status",
          "type": "uint8"
        },
        {
          "internalType": "address[]",
          "name": "wallets",
          "type": "address[]"
        },
        {
          "internalType": "uint256",
          "name": "challengeExpiry",
          "type": "uint256"
        },
        {
          "components": [
            {
              "internalType": "enum StateIntent",
              "name": "intent",
              "type": "uint8"
            },
            {
              "internalType": "uint256",
              "name": "version",
              "type": "uint256"
            },
            {
              "internalType": "bytes",
              "name": "data",
              "type": "bytes"
            },
            {
              "components": [
                {
                  "internalType": "address",
                  "name": "destination",
                  "type": "address"
                },
                {
                  "internalType": "address",
                  "name": "token",
                  "type": "address"
                },
                {
                  "internalType": "uint256",
                  "name": "amount",
                  "type": "uint256"
                }
              ],
              "internalType": "struct Allocation[]",
              "name": "allocations",
              "type": "tuple[]"
            },
            {
              "internalType": "bytes[]",
              "name": "sigs",
              "type": "bytes[]"
            }
          ],
          "internalType": "struct State",
          "name": "lastValidState",
          "type": "tuple"
        }
      ],
      "stateMutability": "view",
      "type": "function"
    },
    {
      "inputs": [
        {
          "internalType": "address[]",
          "name": "accounts",
          "type": "address[]"
        }
      ],
      "name": "getOpenChannels",
      "outputs": [
        {
          "internalType": "bytes32[][]",
          "name": "",
          "type": "bytes32[][]"
        }
      ],
      "stateMutability": "view",
      "type": "function"
    },
    {
      "inputs": [
        {
          "internalType": "bytes32",
          "name": "channelId",
          "type": "bytes32"
        },
        {
          "internalType": "uint256",
          "name": "index",
          "type": "uint256"
        },
        {
          "internalType": "bytes",
          "name": "sig",
          "type": "bytes"
        }
      ],
      "name": "join",
      "outputs": [
        {
          "internalType": "bytes32",
          "name": "",
          "type": "bytes32"
        }
      ],
      "stateMutability": "nonpayable",
      "type": "function"
    },
    {
      "inputs": [
        {
          "internalType": "bytes32",
          "name": "channelId",
          "type": "bytes32"
        },
        {
          "components": [
            {
              "internalType": "enum StateIntent",
              "name": "intent",
              "type": "uint8"
            },
            {
              "internalType": "uint256",
              "name": "version",
              "type": "uint256"
            },
            {
              "internalType": "bytes",
              "name": "data",
              "type": "bytes"
            },
            {
              "components": [
                {
                  "internalType": "address",
                  "name": "destination",
                  "type": "address"
                },
                {
                  "internalType": "address",
                  "name": "token",
                  "type": "address"
                },
                {
                  "internalType": "uint256",
                  "name": "amount",
                  "type": "uint256"
                }
              ],
              "internalType": "struct Allocation[]",
              "name": "allocations",
              "type": "tuple[]"
            },
            {
              "internalType": "bytes[]",
              "name": "sigs",
              "type": "bytes[]"
            }
          ],
          "internalType": "struct State",
          "name": "candidate",
          "type": "tuple"
        },
        {
          "components": [
            {
              "internalType": "enum StateIntent",
              "name": "intent",
              "type": "uint8"
            },
            {
              "internalType": "uint256",
              "name": "version",
              "type": "uint256"
            },
            {
              "internalType": "bytes",
              "name": "data",
              "type": "bytes"
            },
            {
              "components": [
                {
                  "internalType": "address",
                  "name": "destination",
                  "type": "address"
                },
                {
                  "internalType": "address",
                  "name": "token",
                  "type": "address"
                },
                {
                  "internalType": "uint256",
                  "name": "amount",
                  "type": "uint256"
                }
              ],
              "internalType": "struct Allocation[]",
              "name": "allocations",
              "type": "tuple[]"
            },
            {
              "internalType": "bytes[]",
              "name": "sigs",
              "type": "bytes[]"
            }
          ],
          "internalType": "struct State[]",
          "name": "proofs",
          "type": "tuple[]"
        }
      ],
      "name": "resize",
      "outputs": [],
      "stateMutability": "nonpayable",
      "type": "function"
    },
    {
      "inputs": [
        {
          "internalType": "address",
          "name": "token",
          "type": "address"
        },
        {
          "internalType": "uint256",
          "name": "amount",
          "type": "uint256"
        }
      ],
      "name": "withdraw",
      "outputs": [],
      "stateMutability": "nonpayable",
      "type": "function"
    }
  ],
  "bytecode": "0x61016060405234801561001157600080fd5b5060408051808201825260118152704e6974726f6c6974653a437573746f647960781b602080830191909152825180840190935260058352640302e332e360dc1b908301529061006282600061010c565b6101205261007181600161010c565b61014052815160208084019190912060e052815190820120610100524660a0526100fe60e05161010051604080517f8b73c3c69bb8fe3d512ecc4cf759cc79239f7b179b0ffacaa9a75d522b39400f60208201529081019290925260608201524660808201523060a082015260009060c00160405160208183030381529060405280519060200120905090565b60805250503060c052610355565b6000602083511015610128576101218361013f565b9050610139565b816101338482610225565b5060ff90505b92915050565b600080829050601f81511115610173578260405163305a27a960e01b815260040161016a91906102e3565b60405180910390fd5b805161017e82610331565b179392505050565b634e487b7160e01b600052604160045260246000fd5b600181811c908216806101b057607f821691505b6020821081036101d057634e487b7160e01b600052602260045260246000fd5b50919050565b601f82111561022057806000526020600020601f840160051c810160208510156101fd5750805b601f840160051c820191505b8181101561021d5760008155600101610209565b50505b505050565b81516001600160401b0381111561023e5761023e610186565b6102528161024c845461019c565b846101d6565b6020601f821160018114610286576000831561026e5750848201515b600019600385901b1c1916600184901b17845561021d565b600084815260208120601f198516915b828110156102b65787850151825560209485019460019092019101610296565b50848210156102d45786840151600019600387901b60f8161c191681555b50505050600190811b01905550565b602081526000825180602084015260005b8181101561031157602081860181015160408684010152016102f4565b506000604082850101526040601f19601f83011684010191505092915050565b805160208083015191908110156101d05760001960209190910360031b1b16919050565b60805160a05160c05160e0516101005161012051610140516178d96103af600039600061259001526000612566015260006150b10152600061508901526000614fe40152600061500e0152600061503801526178d96000f3fe6080604052600436106100f35760003560e01c806384b0196e1161008a578063d710e92f11610059578063d710e92f1461029f578063e617208c146102cc578063ecf668fd146102fd578063f3fef3a31461031d57600080fd5b806384b0196e14610203578063984d14f81461022b578063a1e5f0231461025f578063bab3290a1461027f57600080fd5b806351d11651116100c657806351d11651146101905780635a9eb80e146101a35780637f9ebbd7146101d05780638340f549146101f057600080fd5b80631474e410146100f8578063156ed7e91461011a578063183b4998146101435780632f33c4d614610163575b600080fd5b34801561010457600080fd5b506101186101133660046160d0565b61033d565b005b34801561012657600080fd5b50610130610e1081565b6040519081526020015b60405180910390f35b34801561014f57600080fd5b5061011861015e366004616177565b611867565b34801561016f57600080fd5b5061018361017e3660046161ea565b611dae565b60405161013a9190616241565b61013061019e366004616307565b611f60565b3480156101af57600080fd5b506101c36101be366004616491565b611f80565b60405161013a9190616513565b3480156101dc57600080fd5b506101186101eb366004616177565b612052565b6101186101fe366004616526565b612433565b34801561020f57600080fd5b50610218612558565b60405161013a97969594939291906165b7565b34801561023757600080fd5b506101307f74875af04779d70f933aef147d5751a32a32b3fa275f5022499f396ea394cf5381565b34801561026b57600080fd5b5061013061027a366004616627565b6125e0565b34801561028b57600080fd5b5061013061029a366004616684565b612dfe565b3480156102ab57600080fd5b506102bf6102ba3660046166ca565b6136cb565b60405161013a91906166fe565b3480156102d857600080fd5b506102ec6102e7366004616781565b613798565b60405161013a959493929190616953565b34801561030957600080fd5b50610118610318366004616177565b613b89565b34801561032957600080fd5b506101186103383660046169a8565b61432d565b60008681526002602052604081209060048083015460ff16908111156103655761036561681c565b0361038b576040516379c1d89f60e11b8152600481018890526024015b60405180910390fd5b600360048083015460ff16908111156103a6576103a661681c565b14806103c8575060048181015460ff16818111156103c6576103c661681c565b145b156103e6576040516307a92f1960e51b815260040160405180910390fd5b60036103f560208801886169e3565b60038111156104065761040661681c565b036104245760405163baf3f0f760e01b815260040160405180910390fd5b6104c38761043188616bc2565b83546040805160208084028201810190925282815291869183018282801561048257602002820191906000526020600020905b81546001600160a01b03168152600190910190602001808311610464575b505050505086868080601f01602080910402602001604051908101604052809392919081815260200183838082843760009201919091525061440b92505050565b601081015460ff16600160048084015460ff16908111156104e6576104e661681c565b03610831576107346104f788616bc2565b6040805160a08101909152601085018054829060ff16600381111561051e5761051e61681c565b600381111561052f5761052f61681c565b81526020016001820154815260200160028201805461054d90616c78565b80601f016020809104026020016040519081016040528092919081815260200182805461057990616c78565b80156105c65780601f1061059b576101008083540402835291602001916105c6565b820191906000526020600020905b8154815290600101906020018083116105a957829003601f168201915b5050505050815260200160038201805480602002602001604051908101604052809291908181526020016000905b8282101561064e576000848152602090819020604080516060810182526003860290920180546001600160a01b039081168452600180830154909116848601526002909101549183019190915290835290920191016105f4565b50505050815260200160048201805480602002602001604051908101604052809291908181526020016000905b8282101561072757838290600052602060002001805461069a90616c78565b80601f01602080910402602001604051908101604052809291908181526020018280546106c690616c78565b80156107135780601f106106e857610100808354040283529160200191610713565b820191906000526020600020905b8154815290600101906020018083116106f657829003601f168201915b50505050508152602001906001019061067b565b5050505081525050614575565b6107515760405163baf3f0f760e01b815260040160405180910390fd5b6107b88861076260608a018a616cac565b808060200260200160405190810160405280939291908181526020016000905b828210156107ae5761079f60608302860136819003810190616cf4565b81526020019060010190610782565b5050505050614733565b877f44c1980976c3af1eb75b2a3b7d8c7e01f69168c0fe45dd229faf143233722e1788426040516107ea929190616f57565b60405180910390a2877fd3fa0f35ad809781b5c95d9f324b2621475e3d03254a60808cf804b663a70496886040516108229190616f79565b60405180910390a2505061185f565b60008160038111156108455761084561681c565b03610dbd57600061085960208901896169e3565b600381111561086a5761086a61681c565b03610acd57610aab61087b88616bc2565b6040805160a08101909152601085018054829060ff1660038111156108a2576108a261681c565b60038111156108b3576108b361681c565b8152602001600182015481526020016002820180546108d190616c78565b80601f01602080910402602001604051908101604052809291908181526020018280546108fd90616c78565b801561094a5780601f1061091f5761010080835404028352916020019161094a565b820191906000526020600020905b81548152906001019060200180831161092d57829003601f168201915b5050505050815260200160038201805480602002602001604051908101604052809291908181526020016000905b828210156109d2576000848152602090819020604080516060810182526003860290920180546001600160a01b03908116845260018083015490911684860152600290910154918301919091529083529092019101610978565b50505050815260200160048201805480602002602001604051908101604052809291908181526020016000905b82821015610727578382906000526020600020018054610a1e90616c78565b80601f0160208091040260200160405190810160405280929190818152602001828054610a4a90616c78565b8015610a975780601f10610a6c57610100808354040283529160200191610a97565b820191906000526020600020905b815481529060010190602001808311610a7a57829003601f168201915b5050505050815260200190600101906109ff565b610ac85760405163baf3f0f760e01b815260040160405180910390fd5b6117e0565b6001820154610d25906001600160a01b0316610ae889616bc2565b6040805160a08101909152601086018054829060ff166003811115610b0f57610b0f61681c565b6003811115610b2057610b2061681c565b815260200160018201548152602001600282018054610b3e90616c78565b80601f0160208091040260200160405190810160405280929190818152602001828054610b6a90616c78565b8015610bb75780601f10610b8c57610100808354040283529160200191610bb7565b820191906000526020600020905b815481529060010190602001808311610b9a57829003601f168201915b5050505050815260200160038201805480602002602001604051908101604052809291908181526020016000905b82821015610c3f576000848152602090819020604080516060810182526003860290920180546001600160a01b03908116845260018083015490911684860152600290910154918301919091529083529092019101610be5565b50505050815260200160048201805480602002602001604051908101604052809291908181526020016000905b82821015610d18578382906000526020600020018054610c8b90616c78565b80601f0160208091040260200160405190810160405280929190818152602001828054610cb790616c78565b8015610d045780601f10610cd957610100808354040283529160200191610d04565b820191906000526020600020905b815481529060010190602001808311610ce757829003601f168201915b505050505081526020019060010190610c6c565b505050508152505061487f565b610d425760405163baf3f0f760e01b815260040160405180910390fd5b600182015460405163035a52df60e11b81526001600160a01b03909116906306b4a5be90610d7a9085908b908b908b90600401617006565b6020604051808303816000875af1158015610d99573d6000803e3d6000fd5b505050506040513d601f19601f82011682018060405250810190610aab91906170a7565b6001816003811115610dd157610dd161681c565b0361129f576001610de560208901896169e3565b6003811115610df657610df661681c565b14610e145760405163baf3f0f760e01b815260040160405180910390fd5b611050610e2088616bc2565b6040805160a08101909152601085018054829060ff166003811115610e4757610e4761681c565b6003811115610e5857610e5861681c565b815260200160018201548152602001600282018054610e7690616c78565b80601f0160208091040260200160405190810160405280929190818152602001828054610ea290616c78565b8015610eef5780601f10610ec457610100808354040283529160200191610eef565b820191906000526020600020905b815481529060010190602001808311610ed257829003601f168201915b5050505050815260200160038201805480602002602001604051908101604052809291908181526020016000905b82821015610f77576000848152602090819020604080516060810182526003860290920180546001600160a01b03908116845260018083015490911684860152600290910154918301919091529083529092019101610f1d565b50505050815260200160048201805480602002602001604051908101604052809291908181526020016000905b82821015610727578382906000526020600020018054610fc390616c78565b80601f0160208091040260200160405190810160405280929190818152602001828054610fef90616c78565b801561103c5780601f106110115761010080835404028352916020019161103c565b820191906000526020600020905b81548152906001019060200180831161101f57829003601f168201915b505050505081526020019060010190610fa4565b610ac8576001820154610d25906001600160a01b031661106f89616bc2565b6040805160a08101909152601086018054829060ff1660038111156110965761109661681c565b60038111156110a7576110a761681c565b8152602001600182015481526020016002820180546110c590616c78565b80601f01602080910402602001604051908101604052809291908181526020018280546110f190616c78565b801561113e5780601f106111135761010080835404028352916020019161113e565b820191906000526020600020905b81548152906001019060200180831161112157829003601f168201915b5050505050815260200160038201805480602002602001604051908101604052809291908181526020016000905b828210156111c6576000848152602090819020604080516060810182526003860290920180546001600160a01b0390811684526001808301549091168486015260029091015491830191909152908352909201910161116c565b50505050815260200160048201805480602002602001604051908101604052809291908181526020016000905b82821015610d1857838290600052602060002001805461121290616c78565b80601f016020809104026020016040519081016040528092919081815260200182805461123e90616c78565b801561128b5780601f106112605761010080835404028352916020019161128b565b820191906000526020600020905b81548152906001019060200180831161126e57829003601f168201915b5050505050815260200190600101906111f3565b60028160038111156112b3576112b361681c565b036117c75760006112c760208901896169e3565b60038111156112d8576112d861681c565b036112f65760405163baf3f0f760e01b815260040160405180910390fd5b600161130560208901896169e3565b60038111156113165761131661681c565b03611566576001820154610d25906001600160a01b031661133689616bc2565b6040805160a08101909152601086018054829060ff16600381111561135d5761135d61681c565b600381111561136e5761136e61681c565b81526020016001820154815260200160028201805461138c90616c78565b80601f01602080910402602001604051908101604052809291908181526020018280546113b890616c78565b80156114055780601f106113da57610100808354040283529160200191611405565b820191906000526020600020905b8154815290600101906020018083116113e857829003601f168201915b5050505050815260200160038201805480602002602001604051908101604052809291908181526020016000905b8282101561148d576000848152602090819020604080516060810182526003860290920180546001600160a01b03908116845260018083015490911684860152600290910154918301919091529083529092019101611433565b50505050815260200160048201805480602002602001604051908101604052809291908181526020016000905b82821015610d185783829060005260206000200180546114d990616c78565b80601f016020809104026020016040519081016040528092919081815260200182805461150590616c78565b80156115525780601f1061152757610100808354040283529160200191611552565b820191906000526020600020905b81548152906001019060200180831161153557829003601f168201915b5050505050815260200190600101906114ba565b600261157560208901896169e3565b60038111156115865761158661681c565b036117c757610aab61159788616bc2565b6040805160a08101909152601085018054829060ff1660038111156115be576115be61681c565b60038111156115cf576115cf61681c565b8152602001600182015481526020016002820180546115ed90616c78565b80601f016020809104026020016040519081016040528092919081815260200182805461161990616c78565b80156116665780601f1061163b57610100808354040283529160200191611666565b820191906000526020600020905b81548152906001019060200180831161164957829003601f168201915b5050505050815260200160038201805480602002602001604051908101604052809291908181526020016000905b828210156116ee576000848152602090819020604080516060810182526003860290920180546001600160a01b03908116845260018083015490911684860152600290910154918301919091529083529092019101611694565b50505050815260200160048201805480602002602001604051908101604052809291908181526020016000905b8282101561072757838290600052602060002001805461173a90616c78565b80601f016020809104026020016040519081016040528092919081815260200182805461176690616c78565b80156117b35780601f10611788576101008083540402835291602001916117b3565b820191906000526020600020905b81548152906001019060200180831161179657829003601f168201915b50505050508152602001906001019061171b565b60405163baf3f0f760e01b815260040160405180910390fd5b60028201546000906117f290426170df565b600f840181905590506118106010840161180b8a616bc2565b61490f565b60048301805460ff1916600317905560405189907f44c1980976c3af1eb75b2a3b7d8c7e01f69168c0fe45dd229faf143233722e1790611853908b908590616f57565b60405180910390a25050505b505050505050565b60008481526002602052604081209060048083015460ff169081111561188f5761188f61681c565b036118b0576040516379c1d89f60e11b815260048101869052602401610382565b600260048083015460ff16908111156118cb576118cb61681c565b146118e9576040516307a92f1960e51b815260040160405180910390fd5b600082900361190b5760405163baf3f0f760e01b815260040160405180910390fd5b600261191a60208601866169e3565b600381111561192b5761192b61681c565b146119495760405163baf3f0f760e01b815260040160405180910390fd5b60008383600081811061195e5761195e6170f2565b90506020028101906119709190617108565b61197990616bc2565b90508060200151600161198c91906170df565b8560200135146119af5760405163baf3f0f760e01b815260040160405180910390fd5b6119bc8160600151614a60565b611a226119cc6060870187616cac565b808060200260200160405190810160405280939291908181526020016000905b82821015611a1857611a0960608302860136819003810190616cf4565b815260200190600101906119ec565b5050505050614a60565b60408051835460a0602082028301810190935260808201818152611ac0938692849291849190840182828015611a8157602002820191906000526020600020905b81546001600160a01b03168152600190910190602001808311611a63575b505050918352505060018201546001600160a01b0316602082015260028201546040820152600390910154606090910152611abb87616bc2565b614af3565b611add5760405163773a750f60e01b815260040160405180910390fd5b6000611aec6040870187617128565b810190611af9919061716e565b9050611b6a8260600151878060600190611b139190616cac565b808060200260200160405190810160405280939291908181526020016000905b82821015611b5f57611b5060608302860136819003810190616cf4565b81526020019060010190611b33565b505050505083614b9f565b6000611b776001866171f9565b6001600160401b03811115611b8e57611b8e61638a565b604051908082528060200260200182016040528015611bf257816020015b611bdf6040805160a081019091528060008152602001600081526020016060815260200160608152602001606081525090565b815260200190600190039081611bac5790505b50905060015b85811015611c5c57868682818110611c1257611c126170f2565b9050602002810190611c249190617108565b611c2d90616bc2565b82611c396001846171f9565b81518110611c4957611c496170f2565b6020908102919091010152600101611bf8565b50600184015460405163035a52df60e11b81526001600160a01b03909116906306b4a5be90611c939087908790869060040161720c565b6020604051808303816000875af1158015611cb2573d6000803e3d6000fd5b505050506040513d601f19601f82011682018060405250810190611cd691906170a7565b611cf35760405163baf3f0f760e01b815260040160405180910390fd5b611d036010850161180b89616bc2565b611d6c888584611d1660608c018c616cac565b808060200260200160405190810160405280939291908181526020016000905b82821015611d6257611d5360608302860136819003810190616cf4565b81526020019060010190611d36565b5050505050614cc6565b877ff3b6c524f73df7344d9fcf2f960a57aba7fba7e292d8b79ed03d786f7b2b112f83604051611d9c9190617298565b60405180910390a25050505050505050565b60606000846001600160401b03811115611dca57611dca61638a565b604051908082528060200260200182016040528015611dfd57816020015b6060815260200190600190039081611de85790505b50905060005b85811015611f5457836001600160401b03811115611e2357611e2361638a565b604051908082528060200260200182016040528015611e4c578160200160208202803683370190505b50828281518110611e5f57611e5f6170f2565b602002602001018190525060005b84811015611f4b5760036000898985818110611e8b57611e8b6170f2565b9050602002016020810190611ea091906172db565b6001600160a01b03166001600160a01b031681526020019081526020016000206000016000878784818110611ed757611ed76170f2565b9050602002016020810190611eec91906172db565b6001600160a01b03166001600160a01b0316815260200190815260200160002054838381518110611f1f57611f1f6170f2565b60200260200101518281518110611f3857611f386170f2565b6020908102919091010152600101611e6d565b50600101611e03565b5090505b949350505050565b6000611f6d338686612433565b611f7783836125e0565b95945050505050565b606081516001600160401b03811115611f9b57611f9b61638a565b604051908082528060200260200182016040528015611fc4578160200160208202803683370190505b50905060005b825181101561204b57600260008581526020019081526020016000206015016000848381518110611ffd57611ffd6170f2565b60200260200101516001600160a01b03166001600160a01b0316815260200190815260200160002054828281518110612038576120386170f2565b6020908102919091010152600101611fca565b5092915050565b60008481526002602052604081209060048083015460ff169081111561207a5761207a61681c565b0361209b576040516379c1d89f60e11b815260048101869052602401610382565b600260048083015460ff16908111156120b6576120b661681c565b036122185760036120ca60208601866169e3565b60038111156120db576120db61681c565b146120f95760405163baf3f0f760e01b815260040160405180910390fd5b836020013560000361211e5760405163baf3f0f760e01b815260040160405180910390fd5b600261212d60808601866172f8565b90501461214d5760405163773a750f60e01b815260040160405180910390fd5b60408051825460a06020820283018101909352608082018181526121e69385928492918491908401828280156121ac57602002820191906000526020600020905b81546001600160a01b0316815260019091019060200180831161218e575b505050918352505060018201546001600160a01b0316602082015260028201546040820152600390910154606090910152611abb86616bc2565b6122035760405163773a750f60e01b815260040160405180910390fd5b6122136010820161180b86616bc2565b612366565b600360048083015460ff16908111156122335761223361681c565b0361234d5780600f015442101561221357600361225360208601866169e3565b60038111156122645761226461681c565b146122825760405163baf3f0f760e01b815260040160405180910390fd5b60408051825460a06020820283018101909352608082018181526123199385928492918491908401828280156121ac576020028201919060005260206000209081546001600160a01b0316815260019091019060200180831161218e57505050918352505060018201546001600160a01b0316602082015260028201546040820152600390910154606090910152611abb86616bc2565b6123365760405163773a750f60e01b815260040160405180910390fd5b6000600f8201556122136010820161180b86616bc2565b6040516307a92f1960e51b815260040160405180910390fd5b6123f48582601001600301805480602002602001604051908101604052809291908181526020016000905b828210156123eb576000848152602090819020604080516060810182526003860290920180546001600160a01b03908116845260018083015490911684860152600290910154918301919091529083529092019101612391565b50505050614733565b847fd3fa0f35ad809781b5c95d9f324b2621475e3d03254a60808cf804b663a70496856040516124249190616f79565b60405180910390a25050505050565b806000036124545760405163162908e360e11b815260040160405180910390fd5b6001600160a01b0382166124875780341461248257604051632a9ffab760e21b815260040160405180910390fd5b6124a6565b34156124a657604051632a9ffab760e21b815260040160405180910390fd5b6001600160a01b038084166000908152600360209081526040808320938616835292905290812080548392906124dd9084906170df565b90915550506001600160a01b03821615612506576125066001600160a01b038316333084614e91565b816001600160a01b0316836001600160a01b03167f8752a472e571a816aea92eec8dae9baf628e840f4929fbcc2d155e6233ff68a78360405161254b91815260200190565b60405180910390a3505050565b60006060808280808361258b7f000000000000000000000000000000000000000000000000000000000000000083614efc565b6125b67f00000000000000000000000000000000000000000000000000000000000000006001614efc565b60408051600080825260208201909252600f60f81b9b939a50919850469750309650945092509050565b600060026125ee84806172f8565b90501415806126355750600061260484806172f8565b6000818110612615576126156170f2565b905060200201602081019061262a91906172db565b6001600160a01b0316145b806126785750600061264784806172f8565b6001818110612658576126586170f2565b905060200201602081019061266d91906172db565b6001600160a01b0316145b806126f2575061268883806172f8565b6001818110612699576126996170f2565b90506020020160208101906126ae91906172db565b6001600160a01b03166126c184806172f8565b60008181106126d2576126d26170f2565b90506020020160208101906126e791906172db565b6001600160a01b0316145b15612710576040516350a2e21f60e11b815260040160405180910390fd5b600061272260408501602086016172db565b6001600160a01b0316036127495760405163754f386760e11b815260040160405180910390fd5b610e10836040013510156127705760405163b4e1243360e01b815260040160405180910390fd5b600061277f60208401846169e3565b60038111156127905761279061681c565b146127ae5760405163baf3f0f760e01b815260040160405180910390fd5b6020820135156127d15760405163baf3f0f760e01b815260040160405180910390fd5b6127e26127dd84617341565b614fa7565b905060008082815260026020526040902060049081015460ff169081111561280c5761280c61681c565b1461282a576040516307a92f1960e51b815260040160405180910390fd5b61283760808301836172f8565b159050806128535750600261284f60808401846172f8565b9050115b156128715760405163773a750f60e01b815260040160405180910390fd5b6129268161287d614fd7565b61288a60808601866172f8565b600081811061289b5761289b6170f2565b90506020028101906128ad9190617128565b8080601f0160208091040260200160405190810160405280939291908181526020018383808284376000920191909152506128ee92508991508190506172f8565b60008181106128ff576128ff6170f2565b905060200201602081019061291491906172db565b61291d87616bc2565b93929190615107565b6129435760405163773a750f60e01b815260040160405180910390fd5b60026129526060840184616cac565b905014612972576040516314b932c760e21b815260040160405180910390fd5b60008181526002602052604090203390848161298e82826173ed565b505060048101805460ff191660011790556005810180546001600160a01b0384166001600160a01b03199091161790556129ce6010820161180b86616bc2565b60005b6002811015612b265760006129e96060870187616cac565b838181106129f9576129f96170f2565b9050606002016020016020810190612a1191906172db565b90506000612a226060880188616cac565b84818110612a3257612a326170f2565b9050606002016040013590506040518060400160405280836001600160a01b0316815260200182815250846007018460028110612a7157612a716170f2565b6002020160008201518160000160006101000a8154816001600160a01b0302191690836001600160a01b0316021790555060208201518160010155905050604051806040016040528060006001600160a01b03168152602001600081525084600b018460028110612ae457612ae46170f2565b82516002919091029190910180546001600160a01b0319166001600160a01b039092169190911781556020909101516001918201559290920191506129d19050565b506040805180820190915260078201546001600160a01b0316808252600883015460208301819052600b840180546001600160a01b031916909217909155600c830155612bc38460036000612b7b8a806172f8565b6000818110612b8c57612b8c6170f2565b9050602002016020810190612ba191906172db565b6001600160a01b03168152602081019190915260400160002060010190615305565b50612bd8838583600001518460200151615311565b826001600160a01b0316847f2d7934d577a3a18f09a72e0a0b6ac57c9679ffe93abe332108919af68c29b6088888604051612c14929190617509565b60405180910390a36002612c2b60808701876172f8565b905003612df4576000612c3e87806172f8565b6001818110612c4f57612c4f6170f2565b9050602002016020810190612c6491906172db565b9050612ce385612c72614fd7565b612c7f60808a018a6172f8565b6001818110612c9057612c906170f2565b9050602002810190612ca29190617128565b8080601f01602080910402602001604051908101604052809392919081815260200183838082843760009201919091525087925061291d91508c9050616bc2565b612d005760405163773a750f60e01b815260040160405180910390fd5b60048301805460ff1916600217905560408051808201825260098501546001600160a01b03908116808352600a8701546020808501829052600d890180546001600160a01b03199081169094179055600e89019190915560068801805493871693909216831790915560009182526003905291909120612d839060010187615305565b50612d98828783600001518460200151615311565b60405160019087907fe8e915db7b3549b9e9e9b3e2ec2dc3edd1f76961504366998824836401f6846a90600090a360405186907fd087f17acc177540af5f382bc30c65363705b90855144d285a822536ee11fdd190600090a250505b5050505b92915050565b60008481526002602052604081208160048083015460ff1690811115612e2657612e2661681c565b03612e47576040516379c1d89f60e11b815260048101879052602401610382565b600160048083015460ff1690811115612e6257612e6261681c565b14612e80576040516307a92f1960e51b815260040160405180910390fd5b60018514612ea1576040516350a2e21f60e11b815260040160405180910390fd5b600e81015415612ec457604051631b13607960e01b815260040160405180910390fd5b61317586612ed0614fd7565b86868080601f016020809104026020016040519081016040528093929190818152602001838380828437600092019190915250508654879250600191508110612f1b57612f1b6170f2565b6000918252602090912001546040805160a081019091526010870180546001600160a01b0390931692829060ff166003811115612f5a57612f5a61681c565b6003811115612f6b57612f6b61681c565b815260200160018201548152602001600282018054612f8990616c78565b80601f0160208091040260200160405190810160405280929190818152602001828054612fb590616c78565b80156130025780601f10612fd757610100808354040283529160200191613002565b820191906000526020600020905b815481529060010190602001808311612fe557829003601f168201915b5050505050815260200160038201805480602002602001604051908101604052809291908181526020016000905b8282101561308a576000848152602090819020604080516060810182526003860290920180546001600160a01b03908116845260018083015490911684860152600290910154918301919091529083529092019101613030565b50505050815260200160048201805480602002602001604051908101604052809291908181526020016000905b828210156131635783829060005260206000200180546130d690616c78565b80601f016020809104026020016040519081016040528092919081815260200182805461310290616c78565b801561314f5780601f106131245761010080835404028352916020019161314f565b820191906000526020600020905b81548152906001019060200180831161313257829003601f168201915b5050505050815260200190600101906130b7565b50505091525090949392919050615107565b6131925760405163773a750f60e01b815260040160405180910390fd5b6040805160a081019091526010820180546000929190829060ff1660038111156131be576131be61681c565b60038111156131cf576131cf61681c565b8152602001600182015481526020016002820180546131ed90616c78565b80601f016020809104026020016040519081016040528092919081815260200182805461321990616c78565b80156132665780601f1061323b57610100808354040283529160200191613266565b820191906000526020600020905b81548152906001019060200180831161324957829003601f168201915b5050505050815260200160038201805480602002602001604051908101604052809291908181526020016000905b828210156132ee576000848152602090819020604080516060810182526003860290920180546001600160a01b03908116845260018083015490911684860152600290910154918301919091529083529092019101613294565b50505050815260200160048201805480602002602001604051908101604052809291908181526020016000905b828210156133c757838290600052602060002001805461333a90616c78565b80601f016020809104026020016040519081016040528092919081815260200182805461336690616c78565b80156133b35780601f10613388576101008083540402835291602001916133b3565b820191906000526020600020905b81548152906001019060200180831161339657829003601f168201915b50505050508152602001906001019061331b565b505050915250506040805160028082526060820190925291925060009190816020015b60608152602001906001900390816133ea5790505090508160800151600081518110613418576134186170f2565b602002602001015181600081518110613433576134336170f2565b602002602001018190525085858080601f016020809104026020016040519081016040528093929190818152602001838380828437600092019190915250508351849250600191508110613489576134896170f2565b60209081029190910101526080820181905260018301546001600160a01b03166306b4a5be8484600060405190808252806020026020018201604052801561351657816020015b6135036040805160a081019091528060008152602001600081526020016060815260200160608152602001606081525090565b8152602001906001900390816134d05790505b506040518463ffffffff1660e01b81526004016135359392919061720c565b6020604051808303816000875af1158015613554573d6000803e3d6000fd5b505050506040513d601f19601f8201168201806040525081019061357891906170a7565b6135955760405163baf3f0f760e01b815260040160405180910390fd5b6040805180820190915260098401546001600160a01b0316808252600a85015460208301819052600d860180546001600160a01b03199081169093179055600e860155600685018054339216821790556135f2601086018561490f565b60048501805460ff19166002179055845461364f908b9060039060009089906001908110613622576136226170f2565b60009182526020808320909101546001600160a01b03168352820192909252604001902060010190615305565b50613664818b84600001518560200151615311565b6040516001908b907fe8e915db7b3549b9e9e9b3e2ec2dc3edd1f76961504366998824836401f6846a90600090a36040518a907fd087f17acc177540af5f382bc30c65363705b90855144d285a822536ee11fdd190600090a2509798975050505050505050565b6060600082516001600160401b038111156136e8576136e861638a565b60405190808252806020026020018201604052801561371b57816020015b60608152602001906001900390816137065790505b50905060005b835181101561204b5761377360036000868481518110613743576137436170f2565b60200260200101516001600160a01b03166001600160a01b031681526020019081526020016000206001016153c6565b828281518110613785576137856170f2565b6020908102919091010152600101613721565b6137cc60405180608001604052806060815260200160006001600160a01b0316815260200160008152602001600081525090565b6000606060006138056040805160a081019091528060008152602001600081526020016060815260200160608152602001606081525090565b6000868152600260209081526040918290208251815460a093810282018401909452608081018481529193909284928492909184919084018282801561387457602002820191906000526020600020905b81546001600160a01b03168152600190910190602001808311613856575b505050918352505060018201546001600160a01b031660208201526002808301546040808401919091526003909301546060928301526004850154835182815292830190935292985060ff90911696509081602001602082028036833701905050935060005b600281101561393a578160050181600281106138f8576138f86170f2565b015485516001600160a01b039091169086908390811061391a5761391a6170f2565b6001600160a01b03909216602092830291909101909101526001016138da565b50600f8101546040805160a081019091526010830180549295509091829060ff16600381111561396c5761396c61681c565b600381111561397d5761397d61681c565b81526020016001820154815260200160028201805461399b90616c78565b80601f01602080910402602001604051908101604052809291908181526020018280546139c790616c78565b8015613a145780601f106139e957610100808354040283529160200191613a14565b820191906000526020600020905b8154815290600101906020018083116139f757829003601f168201915b5050505050815260200160038201805480602002602001604051908101604052809291908181526020016000905b82821015613a9c576000848152602090819020604080516060810182526003860290920180546001600160a01b03908116845260018083015490911684860152600290910154918301919091529083529092019101613a42565b50505050815260200160048201805480602002602001604051908101604052809291908181526020016000905b82821015613b75578382906000526020600020018054613ae890616c78565b80601f0160208091040260200160405190810160405280929190818152602001828054613b1490616c78565b8015613b615780601f10613b3657610100808354040283529160200191613b61565b820191906000526020600020905b815481529060010190602001808311613b4457829003601f168201915b505050505081526020019060010190613ac9565b505050508152505091505091939590929450565b60008481526002602052604081209060048083015460ff1690811115613bb157613bb161681c565b03613bd2576040516379c1d89f60e11b815260048101869052602401610382565b60048181015460ff1681811115613beb57613beb61681c565b03613c09576040516307a92f1960e51b815260040160405180910390fd5b6001613c1860208601866169e3565b6003811115613c2957613c2961681c565b14613c475760405163baf3f0f760e01b815260040160405180910390fd5b601081015460ff16600160048084015460ff1690811115613c6a57613c6a61681c565b03613c88576040516307a92f1960e51b815260040160405180910390fd5b600260048084015460ff1690811115613ca357613ca361681c565b03613fad576001820154613ef3906001600160a01b0316613cc387616bc2565b6040805160a08101909152601086018054829060ff166003811115613cea57613cea61681c565b6003811115613cfb57613cfb61681c565b815260200160018201548152602001600282018054613d1990616c78565b80601f0160208091040260200160405190810160405280929190818152602001828054613d4590616c78565b8015613d925780601f10613d6757610100808354040283529160200191613d92565b820191906000526020600020905b815481529060010190602001808311613d7557829003601f168201915b5050505050815260200160038201805480602002602001604051908101604052809291908181526020016000905b82821015613e1a576000848152602090819020604080516060810182526003860290920180546001600160a01b03908116845260018083015490911684860152600290910154918301919091529083529092019101613dc0565b50505050815260200160048201805480602002602001604051908101604052809291908181526020016000905b82821015610d18578382906000526020600020018054613e6690616c78565b80601f0160208091040260200160405190810160405280929190818152602001828054613e9290616c78565b8015613edf5780601f10613eb457610100808354040283529160200191613edf565b820191906000526020600020905b815481529060010190602001808311613ec257829003601f168201915b505050505081526020019060010190613e47565b613f105760405163baf3f0f760e01b815260040160405180910390fd5b600182015460405163035a52df60e11b81526001600160a01b03909116906306b4a5be90613f48908590899089908990600401617006565b6020604051808303816000875af1158015613f67573d6000803e3d6000fd5b505050506040513d601f19601f82011682018060405250810190613f8b91906170a7565b613fa85760405163baf3f0f760e01b815260040160405180910390fd5b6142ce565b600182015460405163035a52df60e11b81526001600160a01b03909116906306b4a5be90613fe5908590899089908990600401617006565b6020604051808303816000875af1158015614004573d6000803e3d6000fd5b505050506040513d601f19601f8201168201806040525081019061402891906170a7565b6140455760405163baf3f0f760e01b815260040160405180910390fd5b60018160038111156140595761405961681c565b036142c65760018201546142a9906001600160a01b031661407987616bc2565b6040805160a08101909152601086018054829060ff1660038111156140a0576140a061681c565b60038111156140b1576140b161681c565b8152602001600182015481526020016002820180546140cf90616c78565b80601f01602080910402602001604051908101604052809291908181526020018280546140fb90616c78565b80156141485780601f1061411d57610100808354040283529160200191614148565b820191906000526020600020905b81548152906001019060200180831161412b57829003601f168201915b5050505050815260200160038201805480602002602001604051908101604052809291908181526020016000905b828210156141d0576000848152602090819020604080516060810182526003860290920180546001600160a01b03908116845260018083015490911684860152600290910154918301919091529083529092019101614176565b50505050815260200160048201805480602002602001604051908101604052809291908181526020016000905b82821015610d1857838290600052602060002001805461421c90616c78565b80601f016020809104026020016040519081016040528092919081815260200182805461424890616c78565b80156142955780601f1061426a57610100808354040283529160200191614295565b820191906000526020600020905b81548152906001019060200180831161427857829003601f168201915b5050505050815260200190600101906141fd565b6142c65760405163baf3f0f760e01b815260040160405180910390fd5b6000600f8301555b60048201805460ff191660021790556142ed6010830161180b87616bc2565b857f8cade4fe25d72146dc0dbe08ea2712bdcca7e2c996e2dce1e69f20e30ee1c5c38660405161431d9190616f79565b60405180910390a2505050505050565b3360008181526003602090815260408083206001600160a01b038716845291829052909120548381101561437e5760405163cf47918160e01b81526004810182905260248101859052604401610382565b6001600160a01b038516600090815260208390526040812080548692906143a69084906171f9565b909155506143b790508584866153d3565b846001600160a01b0316836001600160a01b03167fd1c19fbcd4551a5edfb66d43d2e337c04837afda3482b42bdf569a8fccdae5fb866040516143fc91815260200190565b60405180910390a35050505050565b60006144178585615483565b60405160200161442791906175a9565b6040516020818303038152906040529050600061444482846154f3565b905060006144528385615507565b9050600061448a614461614fd7565b7f74875af04779d70f933aef147d5751a32a32b3fa275f5022499f396ea394cf538a8a89615542565b905060005b86518110156145555760008782815181106144ac576144ac6170f2565b60200260200101519050806001600160a01b03163b6000146144ef576144da8680519060200120888361563a565b156144ea5750505050505061456f565b61454c565b806001600160a01b0316856001600160a01b031614806145205750806001600160a01b0316846001600160a01b0316145b8061453c5750806001600160a01b0316836001600160a01b0316145b1561454c5750505050505061456f565b5060010161448f565b506040516330d227b760e11b815260040160405180910390fd5b50505050565b8051600090600381111561458b5761458b61681c565b8351600381111561459e5761459e61681c565b1415806145b357508160200151836020015114155b156145c057506000612df8565b816040015180519060200120836040015180519060200120146145e557506000612df8565b816060015151836060015151146145fe57506000612df8565b60005b8360600151518110156147295782606001518181518110614624576146246170f2565b6020026020010151600001516001600160a01b03168460600151828151811061464f5761464f6170f2565b6020026020010151600001516001600160a01b03161415806146c5575082606001518181518110614682576146826170f2565b6020026020010151602001516001600160a01b0316846060015182815181106146ad576146ad6170f2565b6020026020010151602001516001600160a01b031614155b806147125750826060015181815181106146e1576146e16170f2565b60200260200101516040015184606001518281518110614703576147036170f2565b60200260200101516040015114155b15614721576000915050612df8565b600101614601565b5060019392505050565b60008281526002602052604090206004808201805460ff1916909117905561475b83836156ca565b60005b60028110156147bc57815460009083908390811061477e5761477e6170f2565b60009182526020808320909101546001600160a01b0316808352600390915260409091209091506147b29060010186615723565b505060010161475e565b5060008381526002602052604081209081816147d88282615f05565b506001810180546001600160a01b0319169055600060028201819055600390910181905560048301805460ff19169055600583018190556006830155614822600783016000615f23565b614830600b83016000615f23565b6000600f830181905560108301805460ff19168155601184018290559061485a6012850182615f51565b614868600383016000615f8b565b614876600483016000615fac565b50505050505050565b604051637f7d6ab560e01b81526000906001600160a01b03851690637f7d6ab5906148b090869086906004016175d6565b602060405180830381865afa9250505080156148e9575060408051601f3d908101601f191682019092526148e6918101906175fb565b60015b6148ff5781602001518360200151119050614908565b600090810b1390505b9392505050565b80518254839060ff1916600183600381111561492d5761492d61681c565b02179055506020810151600183015560408101516002830190614950908261765e565b5061495f600383016000615f8b565b60005b8160600151518110156149f0578260030182606001518281518110614989576149896170f2565b602090810291909101810151825460018181018555600094855293839020825160039092020180546001600160a01b039283166001600160a01b03199182161782559383015181860180549190931694169390931790556040015160029091015501614962565b506149ff600483016000615fac565b60005b816080015151811015614a5b578260040182608001518281518110614a2957614a296170f2565b60209081029190910181015182546001810184556000938452919092200190614a52908261765e565b50600101614a02565b505050565b6002815114614a825760405163baf3f0f760e01b815260040160405180910390fd5b80600181518110614a9557614a956170f2565b6020026020010151602001516001600160a01b031681600081518110614abd57614abd6170f2565b6020026020010151602001516001600160a01b031614614af05760405163baf3f0f760e01b815260040160405180910390fd5b50565b6000600282608001515114614b0a57506000612df8565b6000614b1584614fa7565b905060005b6002811015614b9457614b7d82614b2f614fd7565b86608001518481518110614b4557614b456170f2565b602002602001015188600001518581518110614b6357614b636170f2565b60200260200101518861510790949392919063ffffffff16565b614b8c57600092505050612df8565b600101614b1a565b506001949350505050565b6002815114614bc15760405163baf3f0f760e01b815260040160405180910390fd5b600083600181518110614bd657614bd66170f2565b60200260200101516040015184600081518110614bf557614bf56170f2565b602002602001015160400151614c0b91906170df565b9050600082600181518110614c2257614c226170f2565b602002602001015183600081518110614c3d57614c3d6170f2565b6020026020010151614c4f919061771c565b9050600084600181518110614c6657614c666170f2565b60200260200101516040015185600081518110614c8557614c856170f2565b602002602001015160400151614c9b91906170df565b905080614ca8838561771c565b1461185f576040516314b932c760e21b815260040160405180910390fd5b60078301546001600160a01b031660005b6002811015614d58576000848281518110614cf457614cf46170f2565b60200260200101511315614d5057614d50856005018260028110614d1a57614d1a6170f2565b0160009054906101000a90046001600160a01b03168784878581518110614d4357614d436170f2565b6020026020010151615311565b600101614cd7565b5060005b6002811015614dfb576000848281518110614d7957614d796170f2565b60200260200101511215614df357614df3866040518060600160405280886005018560028110614dab57614dab6170f2565b01546001600160a01b039081168252861660208201528751604090910190889086908110614ddb57614ddb6170f2565b6020026020010151614dec90617744565b905261572f565b600101614d5c565b5060005b600281101561185f57828181518110614e1a57614e1a6170f2565b602002602001015160400151856007018260028110614e3b57614e3b6170f2565b6002020160010181905550828181518110614e5857614e586170f2565b60200260200101516040015185600b018260028110614e7957614e796170f2565b60020201600101819055508080600101915050614dff565b6040516001600160a01b038085166024830152831660448201526064810182905261456f9085906323b872dd60e01b906084015b60408051601f198184030181529190526020810180516001600160e01b03166001600160e01b0319909316929092179091526157f8565b606060ff8314614f1657614f0f836158cd565b9050612df8565b818054614f2290616c78565b80601f0160208091040260200160405190810160405280929190818152602001828054614f4e90616c78565b8015614f9b5780601f10614f7057610100808354040283529160200191614f9b565b820191906000526020600020905b815481529060010190602001808311614f7e57829003601f168201915b50505050509050612df8565b600081604051602001614fba9190617760565b604051602081830303815290604052805190602001209050919050565b6000306001600160a01b037f00000000000000000000000000000000000000000000000000000000000000001614801561503057507f000000000000000000000000000000000000000000000000000000000000000046145b1561505a57507f000000000000000000000000000000000000000000000000000000000000000090565b615102604080517f8b73c3c69bb8fe3d512ecc4cf759cc79239f7b179b0ffacaa9a75d522b39400f60208201527f0000000000000000000000000000000000000000000000000000000000000000918101919091527f000000000000000000000000000000000000000000000000000000000000000060608201524660808201523060a082015260009060c00160405160208183030381529060405280519060200120905090565b905090565b6000807f2a51b8306d5b6936cb406ee39f2dc7867102751c451387984969f746441921cc876000015160038111156151415761514161681c565b88602001518960400151805190602001208a606001516040516020016151679190617773565b604051602081830303815290604052805190602001206040516020016151b295949392919094855260ff93909316602085015260408401919091526060830152608082015260a00190565b604051602081830303815290604052805190602001209050600085826040516020016151f592919061190160f01b81526002810192909252602282015260420190565b6040516020818303038152906040528051906020012090506000846001600160a01b03163b11156152345761522b81868661563a565b92505050611f77565b6000615240828761590c565b9050846001600160a01b0316816001600160a01b0316036152675760019350505050611f77565b6000615273898b615483565b9050805181604051602001615289929190617786565b60408051601f19818403018152919052805160209091012092506152ad838861590c565b9150856001600160a01b0316826001600160a01b0316036152d5576001945050505050611f77565b8051602082012092506152e8838861590c565b6001600160a01b0387811691161494505050505095945050505050565b60006149088383615930565b801561456f576001600160a01b0380851660009081526003602090815260408083209386168352908390529020548281101561536a5760405163cf47918160e01b81526004810182905260248101849052604401610382565b61537483826171f9565b6001600160a01b0385166000818152602085815260408083209490945588825260028152838220928252601590920190915290812080548592906153b99084906170df565b9091555050505050505050565b606060006149088361597f565b6001600160a01b03831661546f576000826001600160a01b03168260405160006040518083038185875af1925050503d806000811461542e576040519150601f19603f3d011682016040523d82523d6000602084013e615433565b606091505b505090508061456f576040516317e3057d60e31b81526001600160a01b0380861660048301528416602482015260448101839052606401610382565b614a5b6001600160a01b03841683836159db565b6060828260000151600381111561549c5761549c61681c565b8360200151846040015185606001516040516020016154bb9190617773565b60408051601f19818403018152908290526154dc95949392916020016177d2565b604051602081830303815290604052905092915050565b81516020830120600090611f58818461590c565b60008083518460405160200161551e929190617786565b60408051601f1981840301815291905280516020909101209050611f58818461590c565b60008085858560000151600381111561555d5761555d61681c565b866020015187604001518051906020012088606001516040516020016155839190617773565b60408051601f1981840301815282825280516020918201209083019790975281019490945260ff9092166060840152608083015260a082015260c081019190915260e0016040516020818303038152906040528051906020012090506000878260405160200161560a92919061190160f01b81526002810192909252602282015260420190565b60408051601f198184030181529190528051602090910120905061562e818561590c565b98975050505050505050565b604051630b135d3f60e11b81526000906001600160a01b03831690631626ba7e9061566b9087908790600401617825565b602060405180830381865afa9250505080156156a4575060408051601f3d908101601f191682019092526156a19181019061783e565b60015b6156b057506000614908565b6001600160e01b031916630b135d3f60e11b149050614908565b60028151146156ec5760405163baf3f0f760e01b815260040160405180910390fd5b60005b6002811015614a5b5761571b8383838151811061570e5761570e6170f2565b602002602001015161572f565b6001016156ef565b60006149088383615a0b565b806040015160000361573f575050565b6000828152600260209081526040808320848301516001600160a01b031684526015810190925282205490918190036157785750505050565b60008360400151821161578b5781615791565b83604001515b905061579d81836171f9565b602080860180516001600160a01b0390811660009081526015880184526040808220959095558851821681526003845284812092519091168152915290812080548392906157ec9084906170df565b90915550505050505050565b600061584d826040518060400160405280602081526020017f5361666545524332303a206c6f772d6c6576656c2063616c6c206661696c6564815250856001600160a01b0316615afe9092919063ffffffff16565b905080516000148061586e57508080602001905181019061586e91906170a7565b614a5b5760405162461bcd60e51b815260206004820152602a60248201527f5361666545524332303a204552433230206f7065726174696f6e20646964206e6044820152691bdd081cdd58d8d9595960b21b6064820152608401610382565b606060006158da83615b0d565b604080516020808252818301909252919250600091906020820181803683375050509182525060208101929092525090565b600080600061591b8585615b35565b9150915061592881615b7a565b509392505050565b600081815260018301602052604081205461597757508154600181810184556000848152602080822090930184905584548482528286019093526040902091909155612df8565b506000612df8565b6060816000018054806020026020016040519081016040528092919081815260200182805480156159cf57602002820191906000526020600020905b8154815260200190600101908083116159bb575b50505050509050919050565b6040516001600160a01b038316602482015260448101829052614a5b90849063a9059cbb60e01b90606401614ec5565b60008181526001830160205260408120548015615af4576000615a2f6001836171f9565b8554909150600090615a43906001906171f9565b9050818114615aa8576000866000018281548110615a6357615a636170f2565b9060005260206000200154905080876000018481548110615a8657615a866170f2565b6000918252602080832090910192909255918252600188019052604090208390555b8554869080615ab957615ab9617868565b600190038181906000526020600020016000905590558560010160008681526020019081526020016000206000905560019350505050612df8565b6000915050612df8565b6060611f588484600085615cc4565b600060ff8216601f811115612df857604051632cd44ac360e21b815260040160405180910390fd5b6000808251604103615b6b5760208301516040840151606085015160001a615b5f87828585615d9f565b94509450505050615b73565b506000905060025b9250929050565b6000816004811115615b8e57615b8e61681c565b03615b965750565b6001816004811115615baa57615baa61681c565b03615bf75760405162461bcd60e51b815260206004820152601860248201527f45434453413a20696e76616c6964207369676e617475726500000000000000006044820152606401610382565b6002816004811115615c0b57615c0b61681c565b03615c585760405162461bcd60e51b815260206004820152601f60248201527f45434453413a20696e76616c6964207369676e6174757265206c656e677468006044820152606401610382565b6003816004811115615c6c57615c6c61681c565b03614af05760405162461bcd60e51b815260206004820152602260248201527f45434453413a20696e76616c6964207369676e6174757265202773272076616c604482015261756560f01b6064820152608401610382565b606082471015615d255760405162461bcd60e51b815260206004820152602660248201527f416464726573733a20696e73756666696369656e742062616c616e636520666f6044820152651c8818d85b1b60d21b6064820152608401610382565b600080866001600160a01b03168587604051615d41919061787e565b60006040518083038185875af1925050503d8060008114615d7e576040519150601f19603f3d011682016040523d82523d6000602084013e615d83565b606091505b5091509150615d9487838387615e63565b979650505050505050565b6000807f7fffffffffffffffffffffffffffffff5d576e7357a4501ddfe92f46681b20a0831115615dd65750600090506003615e5a565b6040805160008082526020820180845289905260ff881692820192909252606081018690526080810185905260019060a0016020604051602081039080840390855afa158015615e2a573d6000803e3d6000fd5b5050604051601f1901519150506001600160a01b038116615e5357600060019250925050615e5a565b9150600090505b94509492505050565b60608315615ed2578251600003615ecb576001600160a01b0385163b615ecb5760405162461bcd60e51b815260206004820152601d60248201527f416464726573733a2063616c6c20746f206e6f6e2d636f6e74726163740000006044820152606401610382565b5081611f58565b611f588383815115615ee75781518083602001fd5b8060405162461bcd60e51b81526004016103829190617890565b5050565b5080546000825590600052602060002090810190614af09190615fca565b5080546001600160a01b03199081168255600060018301819055600283018054909216909155600390910155565b508054615f5d90616c78565b6000825580601f10615f6d575050565b601f016020900490600052602060002090810190614af09190615fca565b5080546000825560030290600052602060002090810190614af09190615fe3565b5080546000825590600052602060002090810190614af09190616016565b5b80821115615fdf5760008155600101615fcb565b5090565b5b80821115615fdf5780546001600160a01b03199081168255600182018054909116905560006002820155600301615fe4565b80821115615fdf57600061602a8282615f51565b50600101616016565b600060a0828403121561604557600080fd5b50919050565b60008083601f84011261605d57600080fd5b5081356001600160401b0381111561607457600080fd5b6020830191508360208260051b8501011115615b7357600080fd5b60008083601f8401126160a157600080fd5b5081356001600160401b038111156160b857600080fd5b602083019150836020828501011115615b7357600080fd5b600080600080600080608087890312156160e957600080fd5b8635955060208701356001600160401b0381111561610657600080fd5b61611289828a01616033565b95505060408701356001600160401b0381111561612e57600080fd5b61613a89828a0161604b565b90955093505060608701356001600160401b0381111561615957600080fd5b61616589828a0161608f565b979a9699509497509295939492505050565b6000806000806060858703121561618d57600080fd5b8435935060208501356001600160401b038111156161aa57600080fd5b6161b687828801616033565b93505060408501356001600160401b038111156161d257600080fd5b6161de8782880161604b565b95989497509550505050565b6000806000806040858703121561620057600080fd5b84356001600160401b0381111561621657600080fd5b6162228782880161604b565b90955093505060208501356001600160401b038111156161d257600080fd5b6000602082016020835280845180835260408501915060408160051b86010192506020860160005b828110156162c457868503603f190184528151805180875260209182019187019060005b818110156162ab57835183526020938401939092019160010161628d565b5090965050506020938401939190910190600101616269565b50929695505050505050565b6001600160a01b0381168114614af057600080fd5b80356162f0816162d0565b919050565b60006080828403121561604557600080fd5b6000806000806080858703121561631d57600080fd5b8435616328816162d0565b93506020850135925060408501356001600160401b0381111561634a57600080fd5b616356878288016162f5565b92505060608501356001600160401b0381111561637257600080fd5b61637e87828801616033565b91505092959194509250565b634e487b7160e01b600052604160045260246000fd5b60405160a081016001600160401b03811182821017156163c2576163c261638a565b60405290565b604051601f8201601f191681016001600160401b03811182821017156163f0576163f061638a565b604052919050565b60006001600160401b038211156164115761641161638a565b5060051b60200190565b600082601f83011261642c57600080fd5b813561643f61643a826163f8565b6163c8565b8082825260208201915060208360051b86010192508583111561646157600080fd5b602085015b83811015616487578035616479816162d0565b835260209283019201616466565b5095945050505050565b600080604083850312156164a457600080fd5b8235915060208301356001600160401b038111156164c157600080fd5b6164cd8582860161641b565b9150509250929050565b600081518084526020840193506020830160005b828110156165095781518652602095860195909101906001016164eb565b5093949350505050565b60208152600061490860208301846164d7565b60008060006060848603121561653b57600080fd5b8335616546816162d0565b92506020840135616556816162d0565b929592945050506040919091013590565b60005b8381101561658257818101518382015260200161656a565b50506000910152565b600081518084526165a3816020860160208601616567565b601f01601f19169290920160200192915050565b60ff60f81b8816815260e0602082015260006165d660e083018961658b565b82810360408401526165e8818961658b565b606084018890526001600160a01b038716608085015260a0840186905283810360c0850152905061661981856164d7565b9a9950505050505050505050565b6000806040838503121561663a57600080fd5b82356001600160401b0381111561665057600080fd5b61665c858286016162f5565b92505060208301356001600160401b0381111561667857600080fd5b6164cd85828601616033565b6000806000806060858703121561669a57600080fd5b843593506020850135925060408501356001600160401b038111156166be57600080fd5b6161de8782880161608f565b6000602082840312156166dc57600080fd5b81356001600160401b038111156166f257600080fd5b611f588482850161641b565b6000602082016020835280845180835260408501915060408160051b86010192506020860160005b828110156162c457868503603f190184528151805180875260209182019187019060005b8181101561676857835183526020938401939092019160010161674a565b5090965050506020938401939190910190600101616726565b60006020828403121561679357600080fd5b5035919050565b600081518084526020840193506020830160005b828110156165095781516001600160a01b03168652602095860195909101906001016167ae565b60008151608084526167ea608085018261679a565b6020848101516001600160a01b0316908601526040808501519086015260609384015193909401929092525090919050565b634e487b7160e01b600052602160045260246000fd5b600481106168425761684261681c565b9052565b600081518084526020840193506020830160005b8281101561650957815180516001600160a01b03908116885260208083015190911681890152604091820151918801919091526060909601959091019060010161685a565b6168aa828251616832565b602081015160208301526000604082015160a060408501526168cf60a085018261658b565b9050606083015184820360608601526168e88282616846565b9150506080830151848203608086015281815180845260208401915060208160051b85010160208401935060005b8281101561694757601f1986830301845261693282865161658b565b60209586019594909401939150600101616916565b50979650505050505050565b60a08152600061696660a08301886167d5565b600587106169765761697661681c565b866020840152828103604084015261698e818761679a565b9050846060840152828103608084015261562e818561689f565b600080604083850312156169bb57600080fd5b82356169c6816162d0565b946020939093013593505050565b8035600481106162f057600080fd5b6000602082840312156169f557600080fd5b614908826169d4565b600082601f830112616a0f57600080fd5b81356001600160401b03811115616a2857616a2861638a565b616a3b601f8201601f19166020016163c8565b818152846020838601011115616a5057600080fd5b816020850160208301376000918101602001919091529392505050565b600060608284031215616a7f57600080fd5b604051606081016001600160401b0381118282101715616aa157616aa161638a565b6040529050808235616ab2816162d0565b81526020830135616ac2816162d0565b6020820152604092830135920191909152919050565b600082601f830112616ae957600080fd5b8135616af761643a826163f8565b80828252602082019150602060608402860101925085831115616b1957600080fd5b602085015b8381101561648757616b308782616a6d565b8352602090920191606001616b1e565b600082601f830112616b5157600080fd5b8135616b5f61643a826163f8565b8082825260208201915060208360051b860101925085831115616b8157600080fd5b602085015b838110156164875780356001600160401b03811115616ba457600080fd5b616bb3886020838a01016169fe565b84525060209283019201616b86565b600060a08236031215616bd457600080fd5b616bdc6163a0565b616be5836169d4565b81526020838101359082015260408301356001600160401b03811115616c0a57600080fd5b616c16368286016169fe565b60408301525060608301356001600160401b03811115616c3557600080fd5b616c4136828601616ad8565b60608301525060808301356001600160401b03811115616c6057600080fd5b616c6c36828601616b40565b60808301525092915050565b600181811c90821680616c8c57607f821691505b60208210810361604557634e487b7160e01b600052602260045260246000fd5b6000808335601e19843603018112616cc357600080fd5b8301803591506001600160401b03821115616cdd57600080fd5b6020019150606081023603821315615b7357600080fd5b600060608284031215616d0657600080fd5b6149088383616a6d565b6000808335601e19843603018112616d2757600080fd5b83016020810192503590506001600160401b03811115616d4657600080fd5b803603821315615b7357600080fd5b81835281816020850137506000828201602090810191909152601f909101601f19169091010190565b81835260208301925060008160005b84811015616509578135616da0816162d0565b6001600160a01b031686526020820135616db9816162d0565b6001600160a01b031660208701526040828101359087015260609586019590910190600101616d8d565b6000808335601e19843603018112616dfa57600080fd5b83016020810192503590506001600160401b03811115616e1957600080fd5b8060051b3603821315615b7357600080fd5b60008383855260208501945060208460051b8201018360005b86811015616e8257838303601f19018852616e5f8287616d10565b616e6a858284616d55565b60209a8b019a90955093909301925050600101616e44565b50909695505050505050565b616ea082616e9b836169d4565b616832565b602081810135908301526000616eb96040830183616d10565b60a06040860152616ece60a086018284616d55565b9150506060830135601e19843603018112616ee857600080fd5b83016020810190356001600160401b03811115616f0457600080fd5b606081023603821315616f1657600080fd5b8583036060870152616f29838284616d7e565b92505050616f3a6080840184616de3565b8583036080870152616f4d838284616e2b565b9695505050505050565b604081526000616f6a6040830185616e8e565b90508260208301529392505050565b6020815260006149086020830184616e8e565b60808083528154908301819052600082815260208120909160a0850190835b81811015616fd25783546001600160a01b0316835260019384019360209093019201616fab565b505060018401546001600160a01b031660208601526002840154604086015260039093015460609094019390935250919050565b6060815260006170196060830187616f8c565b828103602084015261702b8187616e8e565b83810360408501528481529050602080820190600586901b83010186600036829003609e19015b8882101561709757858403601f19018552823581811261707157600080fd5b61707d858c8301616e8e565b945050602083019250602085019450600182019150617052565b50919a9950505050505050505050565b6000602082840312156170b957600080fd5b8151801515811461490857600080fd5b634e487b7160e01b600052601160045260246000fd5b80820180821115612df857612df86170c9565b634e487b7160e01b600052603260045260246000fd5b60008235609e1983360301811261711e57600080fd5b9190910192915050565b6000808335601e1984360301811261713f57600080fd5b8301803591506001600160401b0382111561715957600080fd5b602001915036819003821315615b7357600080fd5b60006020828403121561718057600080fd5b81356001600160401b0381111561719657600080fd5b8201601f810184136171a757600080fd5b80356171b561643a826163f8565b8082825260208201915060208360051b8501019250868311156171d757600080fd5b6020840193505b82841015616f4d5783358252602093840193909101906171de565b81810381811115612df857612df86170c9565b60608152600061721f6060830186616f8c565b8281036020840152617231818661689f565b9050828103604084015280845180835260208301915060208160051b8401016020870160005b8381101561728957601f1986840301855261727383835161689f565b6020958601959093509190910190600101617257565b50909998505050505050505050565b602080825282518282018190526000918401906040840190835b818110156172d05783518352602093840193909201916001016172b2565b509095945050505050565b6000602082840312156172ed57600080fd5b8135614908816162d0565b6000808335601e1984360301811261730f57600080fd5b8301803591506001600160401b0382111561732957600080fd5b6020019150600581901b3603821315615b7357600080fd5b60006080823603121561735357600080fd5b604051608081016001600160401b03811182821017156173755761737561638a565b60405282356001600160401b0381111561738e57600080fd5b61739a3682860161641b565b82525060208301356173ab816162d0565b602082015260408381013590820152606092830135928101929092525090565b5b81811015615f0157600081556001016173cc565b60008135612df8816162d0565b8135601e1983360301811261740157600080fd5b820180356001600160401b0381111561741957600080fd5b6020820191508060051b360382131561743157600080fd5b6001600160401b038111156174485761744861638a565b680100000000000000008111156174615761746161638a565b825481845580821015617487578360005260206000206174858282018483016173cb565b505b5082600052602060002060005b828110156174ba5783356174a7816162d0565b8282015560209390930192600101617494565b505050506174f16174cd602084016173e0565b6001830180546001600160a01b0319166001600160a01b0392909216919091179055565b60408201356002820155606090910135600390910155565b60408152600060c0820161751d8586616de3565b60806040860152918290529060009060e085015b81831015617562578335617544816162d0565b6001600160a01b031681526020938401936001939093019201617531565b61756e602089016162e5565b6001600160a01b0381166060880152935060408801356080870152606088013560a087018190528682036020880152935061562e8188616e8e565b600082516175bb818460208701616567565b686368616c6c656e676560b81b920191825250600901919050565b6040815260006175e9604083018561689f565b8281036020840152611f77818561689f565b60006020828403121561760d57600080fd5b81518060000b811461490857600080fd5b601f821115614a5b57806000526020600020601f840160051c810160208510156176455750805b617657601f850160051c8301826173cb565b5050505050565b81516001600160401b038111156176775761767761638a565b61768b816176858454616c78565b8461761e565b6020601f8211600181146176bf57600083156176a75750848201515b600019600385901b1c1916600184901b178455617657565b600084815260208120601f198516915b828110156176ef57878501518255602094850194600190920191016176cf565b508482101561770d5786840151600019600387901b60f8161c191681555b50505050600190811b01905550565b808201828112600083128015821682158216171561773c5761773c6170c9565b505092915050565b6000600160ff1b8201617759576177596170c9565b5060000390565b60208152600061490860208301846167d5565b6020815260006149086020830184616846565b7f19457468657265756d205369676e6564204d6573736167653a0a000000000000815282601a820152600082516177c481603a850160208701616567565b91909101603a019392505050565b85815260ff60f81b8560f81b166020820152836021820152600083516177ff816041850160208801616567565b835190830190617816816041840160208801616567565b01604101979650505050505050565b828152604060208201526000611f58604083018461658b565b60006020828403121561785057600080fd5b81516001600160e01b03198116811461490857600080fd5b634e487b7160e01b600052603160045260246000fd5b6000825161711e818460208701616567565b602081526000614908602083018461658b56fea26469706673582212209488f147a278cbcea6aef16a70c6ec144589540db7ccaf63a553b161019c860064736f6c634300081a0033",
  "linkReferences": {},
  "deployedLinkReferences": {}
}