{
  "_format": "hh-sol-artifact-1",
  "contractName": "SkillRewards",
  "sourceName": "contracts/SkillRewards.sol",
  "abi": [
    {
      "inputs": [
        {
          "internalType": "address",
          "name": "_oracle",
          "type": "address"
        }
      ],
      "stateMutability": "nonpayable",
      "type": "constructor"
    },
    {
      "anonymous": false,
      "inputs": [
        {
          "indexed": true,
          "internalType": "bytes32",
          "name": "achievementKey",
          "type": "bytes32"
        },
        {
          "indexed": false,
          "internalType": "string",
          "name": "gameId",
          "type": "string"
        },
        {
          "indexed": false,
          "internalType": "string",
          "name": "achievementId",
          "type": "string"
        },
        {
          "indexed": false,
          "internalType": "uint256",
          "name": "rewardAmount",
          "type": "uint256"
        }
      ],
      "name": "AchievementAdded",
      "type": "event"
    },
    {
      "anonymous": false,
      "inputs": [
        {
          "indexed": true,
          "internalType": "address",
          "name": "user",
          "type": "address"
        },
        {
          "indexed": true,
          "internalType": "bytes32",
          "name": "achievementKey",
          "type": "bytes32"
        },
        {
          "indexed": false,
          "internalType": "string",
          "name": "gameId",
          "type": "string"
        },
        {
          "indexed": false,
          "internalType": "string",
          "name": "achievementId",
          "type": "string"
        },
        {
          "indexed": false,
          "internalType": "uint256",
          "name": "rewardAmount",
          "type": "uint256"
        },
        {
          "indexed": false,
          "internalType": "bytes32",
          "name": "proofHash",
          "type": "bytes32"
        }
      ],
      "name": "AchievementUnlocked",
      "type": "event"
    },
    {
      "anonymous": false,
      "inputs": [
        {
          "indexed": true,
          "internalType": "bytes32",
          "name": "achievementKey",
          "type": "bytes32"
        },
        {
          "indexed": false,
          "internalType": "uint256",
          "name": "newRewardAmount",
          "type": "uint256"
        },
        {
          "indexed": false,
          "internalType": "bool",
          "name": "isActive",
          "type": "bool"
        }
      ],
      "name": "AchievementUpdated",
      "type": "event"
    },
    {
      "anonymous": false,
      "inputs": [
        {
          "indexed": true,
          "internalType": "address",
          "name": "newOracle",
          "type": "address"
        }
      ],
      "name": "OracleUpdated",
      "type": "event"
    },
    {
      "anonymous": false,
      "inputs": [
        {
          "indexed": true,
          "internalType": "address",
          "name": "previousOwner",
          "type": "address"
        },
        {
          "indexed": true,
          "internalType": "address",
          "name": "newOwner",
          "type": "address"
        }
      ],
      "name": "OwnershipTransferred",
      "type": "event"
    },
    {
      "anonymous": false,
      "inputs": [
        {
          "indexed": false,
          "internalType": "address",
          "name": "account",
          "type": "address"
        }
      ],
      "name": "Paused",
      "type": "event"
    },
    {
      "anonymous": false,
      "inputs": [
        {
          "indexed": false,
          "internalType": "uint256",
          "name": "amount",
          "type": "uint256"
        }
      ],
      "name": "RewardsFunded",
      "type": "event"
    },
    {
      "anonymous": false,
      "inputs": [
        {
          "indexed": false,
          "internalType": "address",
          "name": "account",
          "type": "address"
        }
      ],
      "name": "Unpaused",
      "type": "event"
    },
    {
      "inputs": [
        {
          "internalType": "uint256",
          "name": "",
          "type": "uint256"
        }
      ],
      "name": "achievementKeys",
      "outputs": [
        {
          "internalType": "bytes32",
          "name": "",
          "type": "bytes32"
        }
      ],
      "stateMutability": "view",
      "type": "function"
    },
    {
      "inputs": [
        {
          "internalType": "bytes32",
          "name": "",
          "type": "bytes32"
        }
      ],
      "name": "achievements",
      "outputs": [
        {
          "internalType": "string",
          "name": "gameId",
          "type": "string"
        },
        {
          "internalType": "string",
          "name": "achievementId",
          "type": "string"
        },
        {
          "internalType": "uint256",
          "name": "rewardAmount",
          "type": "uint256"
        },
        {
          "internalType": "bool",
          "name": "isActive",
          "type": "bool"
        },
        {
          "internalType": "string",
          "name": "title",
          "type": "string"
        },
        {
          "internalType": "string",
          "name": "description",
          "type": "string"
        },
        {
          "internalType": "uint256",
          "name": "totalClaimed",
          "type": "uint256"
        },
        {
          "internalType": "uint256",
          "name": "claimCount",
          "type": "uint256"
        }
      ],
      "stateMutability": "view",
      "type": "function"
    },
    {
      "inputs": [
        {
          "internalType": "string",
          "name": "gameId",
          "type": "string"
        },
        {
          "internalType": "string",
          "name": "achievementId",
          "type": "string"
        },
        {
          "internalType": "uint256",
          "name": "rewardAmount",
          "type": "uint256"
        },
        {
          "internalType": "string",
          "name": "title",
          "type": "string"
        },
        {
          "internalType": "string",
          "name": "description",
          "type": "string"
        }
      ],
      "name": "addAchievement",
      "outputs": [],
      "stateMutability": "nonpayable",
      "type": "function"
    },
    {
      "inputs": [],
      "name": "emergencyWithdraw",
      "outputs": [],
      "stateMutability": "nonpayable",
      "type": "function"
    },
    {
      "inputs": [],
      "name": "fundRewards",
      "outputs": [],
      "stateMutability": "payable",
      "type": "function"
    },
    {
      "inputs": [
        {
          "internalType": "string",
          "name": "gameId",
          "type": "string"
        },
        {
          "internalType": "string",
          "name": "achievementId",
          "type": "string"
        }
      ],
      "name": "getAchievement",
      "outputs": [
        {
          "internalType": "uint256",
          "name": "rewardAmount",
          "type": "uint256"
        },
        {
          "internalType": "bool",
          "name": "isActive",
          "type": "bool"
        },
        {
          "internalType": "string",
          "name": "title",
          "type": "string"
        },
        {
          "internalType": "string",
          "name": "description",
          "type": "string"
        },
        {
          "internalType": "uint256",
          "name": "totalClaimed",
          "type": "uint256"
        },
        {
          "internalType": "uint256",
          "name": "claimCount",
          "type": "uint256"
        }
      ],
      "stateMutability": "view",
      "type": "function"
    },
    {
      "inputs": [],
      "name": "getAchievementCount",
      "outputs": [
        {
          "internalType": "uint256",
          "name": "",
          "type": "uint256"
        }
      ],
      "stateMutability": "view",
      "type": "function"
    },
    {
      "inputs": [],
      "name": "getAllAchievements",
      "outputs": [
        {
          "internalType": "bytes32[]",
          "name": "",
          "type": "bytes32[]"
        }
      ],
      "stateMutability": "view",
      "type": "function"
    },
    {
      "inputs": [],
      "name": "getContractBalance",
      "outputs": [
        {
          "internalType": "uint256",
          "name": "",
          "type": "uint256"
        }
      ],
      "stateMutability": "view",
      "type": "function"
    },
    {
      "inputs": [
        {
          "internalType": "address",
          "name": "user",
          "type": "address"
        },
        {
          "internalType": "string",
          "name": "gameId",
          "type": "string"
        },
        {
          "internalType": "string",
          "name": "achievementId",
          "type": "string"
        }
      ],
      "name": "getUserAchievement",
      "outputs": [
        {
          "internalType": "bool",
          "name": "claimed",
          "type": "bool"
        },
        {
          "internalType": "uint256",
          "name": "claimedAt",
          "type": "uint256"
        },
        {
          "internalType": "bytes32",
          "name": "proofHash",
          "type": "bytes32"
        }
      ],
      "stateMutability": "view",
      "type": "function"
    },
    {
      "inputs": [
        {
          "internalType": "address",
          "name": "user",
          "type": "address"
        }
      ],
      "name": "getUserStats",
      "outputs": [
        {
          "internalType": "uint256",
          "name": "totalRewards",
          "type": "uint256"
        },
        {
          "internalType": "uint256",
          "name": "achievementCount",
          "type": "uint256"
        }
      ],
      "stateMutability": "view",
      "type": "function"
    },
    {
      "inputs": [],
      "name": "oracle",
      "outputs": [
        {
          "internalType": "address",
          "name": "",
          "type": "address"
        }
      ],
      "stateMutability": "view",
      "type": "function"
    },
    {
      "inputs": [],
      "name": "owner",
      "outputs": [
        {
          "internalType": "address",
          "name": "",
          "type": "address"
        }
      ],
      "stateMutability": "view",
      "type": "function"
    },
    {
      "inputs": [],
      "name": "pause",
      "outputs": [],
      "stateMutability": "nonpayable",
      "type": "function"
    },
    {
      "inputs": [],
      "name": "paused",
      "outputs": [
        {
          "internalType": "bool",
          "name": "",
          "type": "bool"
        }
      ],
      "stateMutability": "view",
      "type": "function"
    },
    {
      "inputs": [],
      "name": "renounceOwnership",
      "outputs": [],
      "stateMutability": "nonpayable",
      "type": "function"
    },
    {
      "inputs": [
        {
          "internalType": "address",
          "name": "newOracle",
          "type": "address"
        }
      ],
      "name": "setOracle",
      "outputs": [],
      "stateMutability": "nonpayable",
      "type": "function"
    },
    {
      "inputs": [
        {
          "internalType": "address",
          "name": "newOwner",
          "type": "address"
        }
      ],
      "name": "transferOwnership",
      "outputs": [],
      "stateMutability": "nonpayable",
      "type": "function"
    },
    {
      "inputs": [],
      "name": "unpause",
      "outputs": [],
      "stateMutability": "nonpayable",
      "type": "function"
    },
    {
      "inputs": [
        {
          "internalType": "string",
          "name": "gameId",
          "type": "string"
        },
        {
          "internalType": "string",
          "name": "achievementId",
          "type": "string"
        },
        {
          "internalType": "uint256",
          "name": "newRewardAmount",
          "type": "uint256"
        },
        {
          "internalType": "bool",
          "name": "isActive",
          "type": "bool"
        }
      ],
      "name": "updateAchievement",
      "outputs": [],
      "stateMutability": "nonpayable",
      "type": "function"
    },
    {
      "inputs": [
        {
          "internalType": "address",
          "name": "",
          "type": "address"
        }
      ],
      "name": "userAchievementCount",
      "outputs": [
        {
          "internalType": "uint256",
          "name": "",
          "type": "uint256"
        }
      ],
      "stateMutability": "view",
      "type": "function"
    },
    {
      "inputs": [
        {
          "internalType": "address",
          "name": "",
          "type": "address"
        },
        {
          "internalType": "bytes32",
          "name": "",
          "type": "bytes32"
        }
      ],
      "name": "userAchievements",
      "outputs": [
        {
          "internalType": "bool",
          "name": "claimed",
          "type": "bool"
        },
        {
          "internalType": "uint256",
          "name": "claimedAt",
          "type": "uint256"
        },
        {
          "internalType": "bytes32",
          "name": "proofHash",
          "type": "bytes32"
        }
      ],
      "stateMutability": "view",
      "type": "function"
    },
    {
      "inputs": [
        {
          "internalType": "address",
          "name": "",
          "type": "address"
        }
      ],
      "name": "userTotalRewards",
      "outputs": [
        {
          "internalType": "uint256",
          "name": "",
          "type": "uint256"
        }
      ],
      "stateMutability": "view",
      "type": "function"
    },
    {
      "inputs": [
        {
          "internalType": "address",
          "name": "user",
          "type": "address"
        },
        {
          "internalType": "string",
          "name": "gameId",
          "type": "string"
        },
        {
          "internalType": "string",
          "name": "achievementId",
          "type": "string"
        },
        {
          "internalType": "bytes",
          "name": "proof",
          "type": "bytes"
        }
      ],
      "name": "verifyAchievement",
      "outputs": [],
      "stateMutability": "nonpayable",
      "type": "function"
    },
    {
      "inputs": [
        {
          "internalType": "uint256",
          "name": "amount",
          "type": "uint256"
        }
      ],
      "name": "withdrawFunds",
      "outputs": [],
      "stateMutability": "nonpayable",
      "type": "function"
    },
    {
      "stateMutability": "payable",
      "type": "receive"
    }
  ],
  "bytecode": "0x60806040523480156200001157600080fd5b506040516200230538038062002305833981016040819052620000349162000124565b60016000556200004433620000d2565b6001805460ff60a01b191690556001600160a01b038116620000ac5760405162461bcd60e51b815260206004820152601660248201527f496e76616c6964206f7261636c65206164647265737300000000000000000000604482015260640160405180910390fd5b600680546001600160a01b0319166001600160a01b039290921691909117905562000156565b600180546001600160a01b038381166001600160a01b0319831681179093556040519116919082907f8be0079c531659141344cd1fd0a4f28419497f9722a3daafe3b4186f6b6457e090600090a35050565b6000602082840312156200013757600080fd5b81516001600160a01b03811681146200014f57600080fd5b9392505050565b61219f80620001666000396000f3fe60806040526004361061016a5760003560e01c80636f9fb98a116100d15780638da5cb5b1161008a578063deb23a7411610064578063deb23a74146104ef578063f2fde38b1461050f578063f6a3f3cf1461052f578063ff18bf0b1461055c57600080fd5b80638da5cb5b146104a7578063d88f7f08146104c5578063db2e21bc146104da57600080fd5b80636f9fb98a146103f0578063715018a6146104035780637725a9fb146104185780637adbf9731461043a5780637dc0d1d01461045a5780638456cb591461049257600080fd5b80634e43603a116101235780634e43603a1461028057806356ca97d8146102d85780635c975abb14610315578063686cb41c1461033f5780636b03af841461038a5780636d1a4df6146103be57600080fd5b806303a38a34146101a95780630c0f2d30146101cb578063155dd5ee146101eb5780631fe73df71461020b578063291d61791461024b5780633f4ba83a1461026b57600080fd5b366101a4576040513481527fe42dde25409a3e8c7c119c1c722610d9e9bd96e73e3cead774863c9ffdd870d69060200160405180910390a1005b600080fd5b3480156101b557600080fd5b506101c96101c4366004611ae9565b610564565b005b3480156101d757600080fd5b506101c96101e6366004611b96565b610977565b3480156101f757600080fd5b506101c9610206366004611c4d565b610c4c565b34801561021757600080fd5b50610238610226366004611c66565b60056020526000908152604090205481565b6040519081526020015b60405180910390f35b34801561025757600080fd5b506101c9610266366004611c81565b610d97565b34801561027757600080fd5b506101c9610e9b565b34801561028c57600080fd5b506102c361029b366004611c66565b6001600160a01b03166000908152600460209081526040808320546005909252909120549091565b60408051928352602083019190915201610242565b3480156102e457600080fd5b506102f86102f3366004611d06565b610ead565b604080519315158452602084019290925290820152606001610242565b34801561032157600080fd5b50600154600160a01b900460ff166040519015158152602001610242565b34801561034b57600080fd5b506102f861035a366004611d7a565b600360209081526000928352604080842090915290825290208054600182015460029092015460ff909116919083565b34801561039657600080fd5b506103aa6103a5366004611c4d565b610f34565b604051610242989796959493929190611df4565b3480156103ca57600080fd5b506103de6103d9366004611e6a565b61119c565b60405161024296959493929190611ece565b3480156103fc57600080fd5b5047610238565b34801561040f57600080fd5b506101c96114a1565b34801561042457600080fd5b5061042d6114b3565b6040516102429190611f17565b34801561044657600080fd5b506101c9610455366004611c66565b61150b565b34801561046657600080fd5b5060065461047a906001600160a01b031681565b6040516001600160a01b039091168152602001610242565b34801561049e57600080fd5b506101c96115ac565b3480156104b357600080fd5b506001546001600160a01b031661047a565b3480156104d157600080fd5b50600754610238565b3480156104e657600080fd5b506101c96115bc565b3480156104fb57600080fd5b5061023861050a366004611c4d565b6116bd565b34801561051b57600080fd5b506101c961052a366004611c66565b6116de565b34801561053b57600080fd5b5061023861054a366004611c66565b60046020526000908152604090205481565b6101c9611757565b6006546001600160a01b031633146105ce5760405162461bcd60e51b815260206004820152602260248201527f4f6e6c79206f7261636c652063616e2063616c6c20746869732066756e63746960448201526137b760f11b60648201526084015b60405180910390fd5b6105d66117e5565b6105de61183e565b6001600160a01b03841661062b5760405162461bcd60e51b8152602060048201526014602482015273496e76616c69642075736572206164647265737360601b60448201526064016105c5565b60008383604051602001610640929190611f5b565b60408051601f19818403018152918152815160209283012060008181526002909352912060038101549192509060ff166106b55760405162461bcd60e51b8152602060048201526016602482015275416368696576656d656e74206e6f742061637469766560501b60448201526064016105c5565b6001600160a01b038616600090815260036020908152604080832085845290915290205460ff16156107295760405162461bcd60e51b815260206004820152601b60248201527f416368696576656d656e7420616c726561647920636c61696d6564000000000060448201526064016105c5565b806002015447101561077d5760405162461bcd60e51b815260206004820152601d60248201527f496e73756666696369656e7420636f6e74726163742062616c616e636500000060448201526064016105c5565b8251602080850191909120604080516060810182526001808252428286019081528284018581526001600160a01b038d166000908152600388528581208a82529097529386209251835460ff191690151517835551908201559051600291820155830154600684018054929391929091906107f9908490611f8a565b9250508190555060018260070160008282546108159190611f8a565b909155505060028201546001600160a01b03881660009081526004602052604081208054909190610847908490611f8a565b90915550506001600160a01b0387166000908152600560205260408120805460019290610875908490611f8a565b909155505060028201546040516000916001600160a01b038a16918381818185875af1925050503d80600081146108c8576040519150601f19603f3d011682016040523d82523d6000602084013e6108cd565b606091505b50509050806109175760405162461bcd60e51b815260206004820152601660248201527514995dd85c99081d1c985b9cd9995c8819985a5b195960521b60448201526064016105c5565b83886001600160a01b03167f80956180cf4e8960595311619391c8437444296265a0f92ca8195dc9c747c08b898987600201548760405161095b9493929190611fb1565b60405180910390a3505050506109716001600055565b50505050565b61097f61188b565b60008551116109c35760405162461bcd60e51b815260206004820152601060248201526f11d85b59481251081c995c5d5a5c995960821b60448201526064016105c5565b6000845111610a145760405162461bcd60e51b815260206004820152601760248201527f416368696576656d656e7420494420726571756972656400000000000000000060448201526064016105c5565b60008311610a705760405162461bcd60e51b8152602060048201526024808201527f52657761726420616d6f756e74206d75737420626520677265617465722074686044820152630616e20360e41b60648201526084016105c5565b60008585604051602001610a85929190611f5b565b60408051601f1981840301815291815281516020928301206000818152600290935291206003015490915060ff1615610b005760405162461bcd60e51b815260206004820152601a60248201527f416368696576656d656e7420616c72656164792065786973747300000000000060448201526064016105c5565b60408051610100810182528781526020808201889052818301879052600160608301526080820186905260a08201859052600060c0830181905260e0830181905284815260029091529190912081518190610b5b9082612073565b5060208201516001820190610b709082612073565b5060408201516002820155606082015160038201805460ff191691151591909117905560808201516004820190610ba79082612073565b5060a08201516005820190610bbc9082612073565b5060c0820151600682015560e09091015160079182015580546001810182556000919091527fa66cc928b5edb82af9bd49922954155ab7b0942694bea4ce44661d9a8736c6880181905560405181907f9c69319cc01337af888b8694675af6dbd68a4b87a8141a6daa8c624c35aa6cb490610c3c90899089908990612133565b60405180910390a2505050505050565b610c5461188b565b47811115610c9b5760405162461bcd60e51b8152602060048201526014602482015273496e73756666696369656e742062616c616e636560601b60448201526064016105c5565b60008111610ceb5760405162461bcd60e51b815260206004820152601d60248201527f416d6f756e74206d7573742062652067726561746572207468616e203000000060448201526064016105c5565b6000610cff6001546001600160a01b031690565b6001600160a01b03168260405160006040518083038185875af1925050503d8060008114610d49576040519150601f19603f3d011682016040523d82523d6000602084013e610d4e565b606091505b5050905080610d935760405162461bcd60e51b815260206004820152601160248201527015da5d1a191c985dd85b0819985a5b1959607a1b60448201526064016105c5565b5050565b610d9f61188b565b60008484604051602001610db4929190611f5b565b6040516020818303038152906040528051906020012090506000600260008381526020019081526020016000206002015411610e325760405162461bcd60e51b815260206004820152601a60248201527f416368696576656d656e7420646f6573206e6f7420657869737400000000000060448201526064016105c5565b6000818152600260208181526040928390209182018690556003909101805460ff191685151590811790915582518681529182015282917f7ce44b098e711c4390b79589285bc43f7e81e6799e69b8e515c07949b5ae6e32910160405180910390a25050505050565b610ea361188b565b610eab6118e5565b565b6000806000808585604051602001610ec6929190611f5b565b60408051808303601f1901815282825280516020918201206001600160a01b039a909a166000908152600382528281209a815299815298819020606083018252805460ff16151580845260018201549a84018b90526002909101549290910182905298909650945050505050565b600260205260009081526040902080548190610f4f90611fea565b80601f0160208091040260200160405190810160405280929190818152602001828054610f7b90611fea565b8015610fc85780601f10610f9d57610100808354040283529160200191610fc8565b820191906000526020600020905b815481529060010190602001808311610fab57829003601f168201915b505050505090806001018054610fdd90611fea565b80601f016020809104026020016040519081016040528092919081815260200182805461100990611fea565b80156110565780601f1061102b57610100808354040283529160200191611056565b820191906000526020600020905b81548152906001019060200180831161103957829003601f168201915b50505050600283015460038401546004850180549495929460ff90921693509061107f90611fea565b80601f01602080910402602001604051908101604052809291908181526020018280546110ab90611fea565b80156110f85780601f106110cd576101008083540402835291602001916110f8565b820191906000526020600020905b8154815290600101906020018083116110db57829003601f168201915b50505050509080600501805461110d90611fea565b80601f016020809104026020016040519081016040528092919081815260200182805461113990611fea565b80156111865780601f1061115b57610100808354040283529160200191611186565b820191906000526020600020905b81548152906001019060200180831161116957829003601f168201915b5050505050908060060154908060070154905088565b600080606080600080600088886040516020016111ba929190611f5b565b6040516020818303038152906040528051906020012090506000600260008381526020019081526020016000206040518061010001604052908160008201805461120390611fea565b80601f016020809104026020016040519081016040528092919081815260200182805461122f90611fea565b801561127c5780601f106112515761010080835404028352916020019161127c565b820191906000526020600020905b81548152906001019060200180831161125f57829003601f168201915b5050505050815260200160018201805461129590611fea565b80601f01602080910402602001604051908101604052809291908181526020018280546112c190611fea565b801561130e5780601f106112e35761010080835404028352916020019161130e565b820191906000526020600020905b8154815290600101906020018083116112f157829003601f168201915b505050918352505060028201546020820152600382015460ff161515604082015260048201805460609092019161134490611fea565b80601f016020809104026020016040519081016040528092919081815260200182805461137090611fea565b80156113bd5780601f10611392576101008083540402835291602001916113bd565b820191906000526020600020905b8154815290600101906020018083116113a057829003601f168201915b505050505081526020016005820180546113d690611fea565b80601f016020809104026020016040519081016040528092919081815260200182805461140290611fea565b801561144f5780601f106114245761010080835404028352916020019161144f565b820191906000526020600020905b81548152906001019060200180831161143257829003601f168201915b5050509183525050600682015460208201526007909101546040918201528101516060820151608083015160a084015160c085015160e090950151939f929e50909c509a509198509650945050505050565b6114a961188b565b610eab6000611935565b6060600780548060200260200160405190810160405280929190818152602001828054801561150157602002820191906000526020600020905b8154815260200190600101908083116114ed575b5050505050905090565b61151361188b565b6001600160a01b0381166115625760405162461bcd60e51b8152602060048201526016602482015275496e76616c6964206f7261636c65206164647265737360501b60448201526064016105c5565b600680546001600160a01b0319166001600160a01b0383169081179091556040517f3df77beb5db05fcdd70a30fc8adf3f83f9501b68579455adbd100b818094039490600090a250565b6115b461188b565b610eab611987565b6115c461188b565b47806116095760405162461bcd60e51b81526020600482015260146024820152734e6f2066756e647320746f20776974686472617760601b60448201526064016105c5565b600061161d6001546001600160a01b031690565b6001600160a01b03168260405160006040518083038185875af1925050503d8060008114611667576040519150601f19603f3d011682016040523d82523d6000602084013e61166c565b606091505b5050905080610d935760405162461bcd60e51b815260206004820152601b60248201527f456d657267656e6379207769746864726177616c206661696c6564000000000060448201526064016105c5565b600781815481106116cd57600080fd5b600091825260209091200154905081565b6116e661188b565b6001600160a01b03811661174b5760405162461bcd60e51b815260206004820152602660248201527f4f776e61626c653a206e6577206f776e657220697320746865207a65726f206160448201526564647265737360d01b60648201526084016105c5565b61175481611935565b50565b61175f61188b565b600034116117af5760405162461bcd60e51b815260206004820152601d60248201527f4d7573742073656e642045544820746f2066756e64207265776172647300000060448201526064016105c5565b6040513481527fe42dde25409a3e8c7c119c1c722610d9e9bd96e73e3cead774863c9ffdd870d6906020015b60405180910390a1565b6002600054036118375760405162461bcd60e51b815260206004820152601f60248201527f5265656e7472616e637947756172643a207265656e7472616e742063616c6c0060448201526064016105c5565b6002600055565b600154600160a01b900460ff1615610eab5760405162461bcd60e51b815260206004820152601060248201526f14185d5cd8589b194e881c185d5cd95960821b60448201526064016105c5565b6001546001600160a01b03163314610eab5760405162461bcd60e51b815260206004820181905260248201527f4f776e61626c653a2063616c6c6572206973206e6f7420746865206f776e657260448201526064016105c5565b6118ed6119ca565b6001805460ff60a01b191690557f5db9ee0a495bf2e6ff9c91a7834c1ba4fdd244a5e8aa4e537bd38aeae4b073aa335b6040516001600160a01b0390911681526020016117db565b600180546001600160a01b038381166001600160a01b0319831681179093556040519116919082907f8be0079c531659141344cd1fd0a4f28419497f9722a3daafe3b4186f6b6457e090600090a35050565b61198f61183e565b6001805460ff60a01b1916600160a01b1790557f62e78cea01bee320cd4e420270b5ea74000d11b0c9f74754ebdbfc544b05a25861191d3390565b600154600160a01b900460ff16610eab5760405162461bcd60e51b815260206004820152601460248201527314185d5cd8589b194e881b9bdd081c185d5cd95960621b60448201526064016105c5565b80356001600160a01b0381168114611a3157600080fd5b919050565b634e487b7160e01b600052604160045260246000fd5b600067ffffffffffffffff80841115611a6757611a67611a36565b604051601f8501601f19908116603f01168101908282118183101715611a8f57611a8f611a36565b81604052809350858152868686011115611aa857600080fd5b858560208301376000602087830101525050509392505050565b600082601f830112611ad357600080fd5b611ae283833560208501611a4c565b9392505050565b60008060008060808587031215611aff57600080fd5b611b0885611a1a565b9350602085013567ffffffffffffffff80821115611b2557600080fd5b611b3188838901611ac2565b94506040870135915080821115611b4757600080fd5b611b5388838901611ac2565b93506060870135915080821115611b6957600080fd5b508501601f81018713611b7b57600080fd5b611b8a87823560208401611a4c565b91505092959194509250565b600080600080600060a08688031215611bae57600080fd5b853567ffffffffffffffff80821115611bc657600080fd5b611bd289838a01611ac2565b96506020880135915080821115611be857600080fd5b611bf489838a01611ac2565b9550604088013594506060880135915080821115611c1157600080fd5b611c1d89838a01611ac2565b93506080880135915080821115611c3357600080fd5b50611c4088828901611ac2565b9150509295509295909350565b600060208284031215611c5f57600080fd5b5035919050565b600060208284031215611c7857600080fd5b611ae282611a1a565b60008060008060808587031215611c9757600080fd5b843567ffffffffffffffff80821115611caf57600080fd5b611cbb88838901611ac2565b95506020870135915080821115611cd157600080fd5b50611cde87828801611ac2565b9350506040850135915060608501358015158114611cfb57600080fd5b939692955090935050565b600080600060608486031215611d1b57600080fd5b611d2484611a1a565b9250602084013567ffffffffffffffff80821115611d4157600080fd5b611d4d87838801611ac2565b93506040860135915080821115611d6357600080fd5b50611d7086828701611ac2565b9150509250925092565b60008060408385031215611d8d57600080fd5b611d9683611a1a565b946020939093013593505050565b60005b83811015611dbf578181015183820152602001611da7565b50506000910152565b60008151808452611de0816020860160208601611da4565b601f01601f19169290920160200192915050565b6000610100808352611e088184018c611dc8565b90508281036020840152611e1c818b611dc8565b905088604084015287151560608401528281036080840152611e3e8188611dc8565b905082810360a0840152611e528187611dc8565b60c0840195909552505060e001529695505050505050565b60008060408385031215611e7d57600080fd5b823567ffffffffffffffff80821115611e9557600080fd5b611ea186838701611ac2565b93506020850135915080821115611eb757600080fd5b50611ec485828601611ac2565b9150509250929050565b868152851515602082015260c060408201526000611eef60c0830187611dc8565b8281036060840152611f018187611dc8565b6080840195909552505060a00152949350505050565b6020808252825182820181905260009190848201906040850190845b81811015611f4f57835183529284019291840191600101611f33565b50909695505050505050565b60008351611f6d818460208801611da4565b835190830190611f81818360208801611da4565b01949350505050565b80820180821115611fab57634e487b7160e01b600052601160045260246000fd5b92915050565b608081526000611fc46080830187611dc8565b8281036020840152611fd68187611dc8565b604084019590955250506060015292915050565b600181811c90821680611ffe57607f821691505b60208210810361201e57634e487b7160e01b600052602260045260246000fd5b50919050565b601f82111561206e57600081815260208120601f850160051c8101602086101561204b5750805b601f850160051c820191505b8181101561206a57828155600101612057565b5050505b505050565b815167ffffffffffffffff81111561208d5761208d611a36565b6120a18161209b8454611fea565b84612024565b602080601f8311600181146120d657600084156120be5750858301515b600019600386901b1c1916600185901b17855561206a565b600085815260208120601f198616915b82811015612105578886015182559484019460019091019084016120e6565b50858210156121235787850151600019600388901b60f8161c191681555b5050505050600190811b01905550565b6060815260006121466060830186611dc8565b82810360208401526121588186611dc8565b91505082604083015294935050505056fea2646970667358221220e2f37c46ea13e73a60c4dd811018e92fa84f8f78a92b1054bf05277452f8511464736f6c63430008130033",
  "linkReferences": {},
  "deployedLinkReferences": {}
}